:020000040800F2
:1000000080240020CD010008650500088B0400084D
:100010000D0500083F0300085D2E000800000000E9
:100020000000000000000000000000008D2C00080F
:100030008303000800000000CB020008D91000086C
:10004000E7010008E7010008E7010008E7010008F0
:10005000E7010008E7010008E7010008E7010008E0
:10006000E7010008E7010008E7010008E7010008D0
:10007000E7010008E7010008E7010008E7010008C0
:10008000E7010008E7010008E7010008E7010008B0
:10009000E7010008E7010008E7010008E7010008A0
:1000A000E7010008E7010008E7010008E701000890
:1000B000E7010008E7010008E7010008E701000880
:1000C000E7010008E7010008E7010008E701000870
:1000D000E7010008E7010008E7010008E701000860
:1000E000E7010008E7010008E7010008E701000850
:1000F000E7010008E7010008E7010008E701000840
:10010000E7010008E7010008E7010008E70100082F
:10011000E7010008E7010008E7010008E70100081F
:10012000E7010008E7010008E7010008E70100080F
:1001300000F002F800F03CF80AA090E8000C8244BD
:100140008344AAF10107DA4501D100F031F8AFF29A
:10015000090EBAE80F0013F0010F18BFFB1A43F0A5
:1001600001031847E02D0000002E0000103A24BFC4
:1001700078C878C1FAD8520724BF30C830C144BF0C
:1001800004680C607047000000230024002500264E
:10019000103A28BF78C1FBD8520728BF30C148BFEA
:1001A0000B6070471FB5AFF300801FBD10B510BDC9
:1001B00000F04BF81146FFF7F5FF02F06FFE00F07C
:1001C00069F8FFF7F3FF02F04AFE00000948804794
:1001D00009480047FEE7FEE7FEE7FEE7FEE7FEE729
:1001E000FEE7FEE7FEE7FEE704480549054A064B41
:1001F00070470000592D000831010008801E0020C2
:1002000080240020802000208020002072B67047CB
:1002100062B67047EFF3108072B6704780F31088B3
:10022000704730BF704720BF7047B0FA80F070470A
:1002300090FAA0F0B0FA80F0704790FAA0F0704702
:1002400070477047704770477047754600F028F850
:10025000AE4605006946534620F00700854618B0B3
:1002600020B5FFF7C1FFBDE820404FF000064FF07A
:1002700000074FF000084FF0000B21F00701AC46DB
:10028000ACE8C009ACE8C009ACE8C009ACE8C009FA
:100290008D4670470446AFF300802046FFF791FF7C
:1002A00000487047201E002018484FF0FF010170E1
:1002B000002080F309881648016881F308881548F2
:1002C0004FF08051016062B6FEE772B6EFF309802D
:1002D00028B1203880E8F00F0F490968086000B5A0
:1002E0000E4880475DF804EB0D480E490A7802700D
:1002F00009480D490A680260106890E8F00F203044
:1003000080F309884EF0040E62B6704722ED00E0DB
:100310001800002004ED00E0B0000020BD0F000830
:100320005200002053000020B400002010B54FF40C
:10033000407000F019F9BDE8104000F023B8FEE766
:1003400010B504490020086000F016F8BDE8104020
:1003500000F002B81400002010B5FFF75BFF044660
:100360001021044800F0D3F82046BDE81040FFF704
:1003700055BF00003405002070474FF0E020806931
:100380007047704710B501217C2002F073FC1048C3
:100390004FF6FF7101800021C17001460D4800F049
:1003A00023F80B490C4800F01FF809490B4800F0EE
:1003B0001BF807490A4800F017F80549094800F0FA
:1003C00013F80021BDE810407C2002F053BC00006F
:1003D000B800002000080140000C0140001001405E
:1003E0000014014000180140F0B5CB780022DC0673
:1003F00003F00F0301D58C7823430C884FF00F0CCA
:1004000014F0FF0F4FF0010E1AD006680D880EFA97
:1004100002F42540A5420FD195000CFA05F726EA13
:10042000070703FA05F6CD783E43282D01D1446134
:1004300002E0482D00D10461521C082AE6D3066070
:100440000A88FF2A1ED946685FF0000202F10805FB
:100450000EFA05F40D882540A5420FD195000CFA3F
:1004600005F726EA070703FA05F6CD783E43282D5F
:1004700000D14461CD78482D00D10461521C082A76
:10048000E4D34660F0BD01617047FEE7074A4106CC
:100490009369074843F001039361426822F0E062E8
:1004A000426042680A434260704700000010024008
:1004B0000000014000B58BB0FFF742FF0AA800F032
:1004C0005FF800210AAB0322059106A80EC00B4677
:1004D0005022CDE9032308210748CDE90101042377
:1004E00000930023054A06A1C03800F0DFFA0AA8ED
:1004F00000F052FA0BB000BD7C010020ED2D000889
:100500005461736B2053746172740000FEE70A46F5
:10051000002100F001B8000010B5002A21D0002809
:100520001FD000234FEA0304641C41EA0323042C78
:10053000FAD310F003040BD004E000BF521E00F801
:10054000011B641C22B1042CF8D301E008C0121F67
:10055000042AFBD203E000BF00F8011B521E002A50
:10056000FAD110BD704700000249084302490860F3
:10057000704700000000FA050CED00E0704770477E
:1005800010B5044600F096F83C48002202703C4842
:100590000A2102703B4802703B4802603B480260FF
:1005A0003B4802703B4802703B4802703B48027077
:1005B0003B480068B0FBF1F03A4908603A490868E6
:1005C00030B13A48006818B1096804C0491EFCD12E
:1005D0003748027001F03CFA01F0D2FA204600F0F0
:1005E0008FFD2088002847D1204601F039F8208867
:1005F000002841D1204601F057F8208800283BD13F
:10060000204601F0D9F82088002835D1204601F095
:100610004BFA208800282FD1204601F0BBFB208810
:10062000002829D1204601F0CDFD2088002823D1C3
:10063000204600F08DFF208800281DD1204600F0C4
:1006400025FE2088002817D1204602F061F9208875
:10065000002811D1204601F013FD208800280BD17D
:10066000204602F0A9F92088002805D100F046FDB7
:10067000BDE81040FFF782BF10BD0000240000203D
:10068000250000205E000020B0000020B400002003
:10069000520000205300002054000020640000207D
:1006A0000C2F000860000020E42E0008E02E000857
:1006B0009200002030B5094B0021094A0C46186809
:1006C00001E010C0491C1568A942FAD31868054911
:1006D00000EB8500001F086030BD0000E02E000820
:1006E000E42E00081800002010B51B4800780128EF
:1006F00030D1FFF78FFD19490446087828B3401E12
:1007000010F0FF00087020D115480078E8B901F01A
:100710008DF914490870C0B2134900EB400051F83C
:100720002000124908601249096888420DD050F82B
:10073000901F491C01600F490868401C08604FF079
:1007400080504FF0E021C1F8040D2046BDE8104074
:10075000FFF764BD10BD000025000020240000202C
:100760005E00002053000020601A0020B40000202A
:10077000B00000208800002010B51748007800283D
:1007800029D116480078002825D1FFF743FD0446FB
:1007900001F04CF912490870C1B201EB4100114956
:1007A00051F82010104801601048006881420DD0B7
:1007B00051F8900F401C08600D490868401C086003
:1007C0004FF080504FF0E021C1F8040D2046BDE805
:1007D0001040FFF723BD10BD240000205E00002064
:1007E00053000020601A0020B4000020B000002058
:1007F0008800002070B504460E48007810B146F617
:10080000625015E00C480078012802D045F6896056
:100810000EE00A4D2878FA2802D345F2092007E0B5
:10082000FFF7F8FC2978491C2970FFF7F7FC002036
:10083000208070BD24000020250000205E000020E4
:1008400070B504461348007810B146F665501EE0B6
:1008500011480078012802D045F6896017E00F4D55
:10086000287810B946F6645011E0FFF7D3FC2978D8
:10087000491E11F0FF01297004D0FFF7CFFC46F6A6
:10088000635004E0FFF7CAFCFFF776FF00202080EA
:1008900070BD000024000020250000205E00002024
:1008A0002DE9F041044619488846007817461D4650
:1008B00010B142F6E16002E024B945F6C350288049
:1008C000BDE8F081FFF7A6FC114E3178491C31706C
:1008D000FFF7A4FC27620F4820600027C4F80480BB
:1008E00004F10800676200F0E1FF204601F040FAE1
:1008F00009480188491C0180FFF78CFC3178491EAA
:100900003170FFF78BFC2F80DAE700002400002015
:100910005E00002053454D416C0000202DE9FF4151
:1009200006000C46154602D145F6C3500BE064B1F3
:10093000B4F5007F09D0B4F5004F06D0B4F5024FEE
:1009400003D045F62560288018E0114F3068B84282
:1009500002D045F6C450F6E7FFF70FFD0D492B46D0
:1009600009780246002921460CD000208DE80F00AE
:10097000034602463146384600F0BEFC002004B073
:10098000BDE8F081304604B0BDE8F04101F00EBA98
:1009900053454D412400002070B50F4D0446287882
:1009A000B0B901F043F80D4908700D49C0B20870A4
:1009B0000C4900EB400051F820000B4908600B493E
:1009C000086001202870FFF76FFC43F6992001E0D2
:1009D00045F68A60208070BD25000020530000206D
:1009E00052000020601A0020B4000020B000002057
:1009F0002DE9F0410646FFF70DFC224900250D6068
:100A000021490D8021490D8021490D6021490D604A
:100A100021490D6021490D81FFF700FCFFF7FAFB2A
:100A20001F490C6814E000BFFFF7F4FB44F8785F3F
:100A30002563A561A582E58265620746A562FFF789
:100A40009CFC2062783CA4F87050D4F8B84038463A
:100A5000FFF7E4FB002CE7D1FFF7DCFB11490C6842
:100A600004E000BFFFF7D6FBA585A469FFF7D6FB1E
:100A7000002CF7D101F07CFE02F06AF83580BDE869
:100A8000F0810000380000203200002072000020B9
:100A90008400002098000020A0000020541A0020AC
:100AA0008C00002058000020704700002DE9FF4F07
:100AB00083B004466048DDE917A5DDE910780078C9
:100AC000DDF85490139E10B147F24A1027E014B994
:100AD00047F2AD1023E0059810B947F24F101EE021
:100AE000B8F1000F02D146F62F6018E053480068B5
:100AF000864202D246F6306011E01298B04202D32C
:100B000046F631600BE046F27320202F07D20FB972
:100B10004B4902E01F2F06D14A498C4203D028805E
:100B200007B0BDE8F08F204601F05CFB4FF0000BF2
:100B3000A5F800B05FEACA700AD05FEA8A7007D5EC
:100B4000414600205A4601E004C1401CB042FBD39C
:100B50001299CDE9006A08EB8105DDE905012B4614
:100B6000424600F0EDF90599A1620699E162049907
:100B7000216284F83770C4F85490A5602060B9F100
:100B8000000F02D13048006800E04846A065169882
:100B9000C4F82480A6636060A4F83CA000205946F5
:100BA00004EB8002401CD16710F0FF00F8D004F184
:100BB0006400149900F0B6FD204600F04FF8FFF7EE
:100BC00029FB224D2978491C2970FFF727FB94F84F
:100BD000370000F049FF204601F018F8204601F0E8
:100BE000C3FA1B490888401C08801A48007801286D
:100BF00016D0FFF70FFB2978491E11F0FF0129706D
:100C000009D11549098831B1FFF708FB07B0BDE8E4
:100C1000F04F01F059B807B0BDE8F04FFFF7FEBA4A
:100C2000FFF7F8FA2978491E2970FFF7F7FA07B09D
:100C3000BDE8F04FFFF7A0BD24000020082F0008FA
:100C400094190020D4180020600000205E000020CD
:100C50009000002025000020300000207047000098
:100C600070B504463D480D46007810B147F24E106D
:100C700071E03B48844202D147F24C106BE03948A6
:100C8000844202D147F24D1065E02CB9FFF7C2FA59
:100C900035490C68FFF7C2FAFFF7BCFA334E3178DA
:100CA000491C3170FFF7BAFA94F8360008283ED292
:100CB000DFE800F004080C0C1C080C0C204600F0C7
:100CC000D9FF13E0204601F037FD0FE0204601F088
:100CD00033FD94F83400072808D2DFE800F0070459
:100CE000070404040400204600F012FE04F164002E
:100CF00000F0FEFC204600F03FF8204601F046FAE6
:100D00001B490888401E0880204601F06BFAFF202E
:100D100084F83600FFF77EFA3178491E3170FFF70C
:100D20007DFA00202880BDE87040FFF725BDFFF761
:100D300071FA3178491E11F0FF01317007D10D4968
:100D4000098821B1FFF76AFA00F0BEFF01E0FFF762
:100D500065FA46F62D60288070BD00002400002052
:100D6000D418002094190020B00000205E0000205C
:100D70009000002030000020704770472DE9F047B8
:100D8000824649480F46007814461D4610B146F287
:100D9000AE103DE02FB1B7F5004F02D045F625600B
:100DA00036E0002604B12660FFF734FADFF8FC8055
:100DB0008146D8F80000416CD1B1491E47468846AB
:100DC00041640CB1006C2060FFF7D7FA39680A6CF7
:100DD000801AC1F8A400D1F8A820824201D2C1F83B
:100DE000A8004846FFF71AFA2E804046BDE8F08773
:100DF000380405D54846FFF711FA46F2B01007E06F
:100E00002B4F387838B14846FFF708FA46F663505A
:100E100028800020EAE7012038704846FFF7FEF9F5
:100E2000002153460722084600F0D2FCFFF7F2F9F2
:100E30003978491E3970FFF7F1F9FFF79DFCFFF78C
:100E4000E9F9D8F80010814691F83500474648B1D5
:100E500001281FD0032823D104B1266047F2D920EE
:100E6000288010E074B1086C2060FFF786FA3968BA
:100E70000A6C801AC1F8A400D1F8A820824201D2DD
:100E8000C1F8A8002E803868446C4846FFF7C6F9C0
:100E90002046ABE70CB1086C206046F2A910DFE7F2
:100EA00046F62E60DCE7000024000020B0000020A1
:100EB0005E0000202DE9F04104461F480E460078F0
:100EC00017461D4610B147F2591020E046F2D520D2
:100ED000EEB1E7B1FFF79EF90CB918490C684FF075
:100EE0000008216841B9FFF799F9C6F8008047F278
:100EF0005210C7F800800AE0A18FC9070AD1FFF796
:100F00008DF9C6F8008047F25410C7F80080288099
:100F1000BDE8F081FFF782F90020616A01E0091D58
:100F2000401C0A68002AFAD03060A16B081A3860A9
:100F3000A5F80080ECE7000024000020B0000020AD
:100F400010B5029C02EB84024FF0807442F8044D0D
:100F500042F8040D184842F8040D121F4FF01234E5
:100F6000104614604FF0033240F8042D4FF0023267
:100F700040F8042D40F8043D40F8041D4FF01131B5
:100F800040F8041DD10040F8041D611040F8041D14
:100F9000910040F8041D4FF0073140F8041D4FF058
:100FA000063140F8041D4FF0053140F8041D510092
:100FB00040F8041D10BD00005524000810B5FFF7CF
:100FC000DCF90849084A09681268914206D0943150
:100FD0004B68C31A0B608C6823448B60C2F898007E
:100FE00010BD0000B0000020B40000202DE9F04149
:100FF0000646254888460078144610B147F2752009
:101000003EE0224D287810B146F6635038E05FEAA2
:10101000080005D0022803D0042808D0082803D1EE
:101020002EB947F27E202BE045F6256028E0FFF739
:10103000F1F82978491C2970FFF7F0F8144F0121C5
:101040003868234680F836104246314601F00AFBE4
:10105000208840B1FFF7DEF82978491E2970BDE8E5
:10106000F041FFF7DBB8386800F004FEFFF7D2F874
:101070002978491E2970FFF7D1F8FFF77DFB002082
:101080002080BDE8F0810000240000205E000020E8
:10109000B000002000B585B000F01CF8FFF76DF936
:1010A00004ABCDE9020300210748009101910078CB
:1010B000064900EB400001EB800100231A4604487A
:1010C00000F01AF905B000BD52000020601A00209F
:1010D0005449434B7047000010B5FFF79BF8064A90
:1010E0001178491C1170FFF799F8FFF7D3FFBDE89D
:1010F0001040FFF7F9BA00002400002070470000FC
:10110000034A00211160034A1180018070470000EA
:101110003C000020400000202DE9F04704460E4628
:1011200090469A46089DFFF775F85FEA08011AD0C5
:10113000012906D0B1F5004F15D06FF4004289188F
:1011400014D1216A31EA0601C4E9081A218A04F19E
:1011500008064FF0000971B9FFF760F8A5F8009094
:10116000206ABDE8F087216A3143EDE7FFF756F8C2
:1011700045F625604CE0284F3978491C3970FFF757
:101180004DF8366818E0B0F88810766801F00F0165
:1011900004290AD0082927D1216AD0F880201140DB
:1011A00009D0524600F03CF805E0216AD0F88020D2
:1011B00011408A42F5D016B1B0680028E3D1FFF79C
:1011C00029F83978491E3970FFF728F85FEA084096
:1011D00001D4FFF7D1FAFFF71DF8246AFFF71EF8D4
:1011E000A5F800902046BCE7FFF714F83978491EAF
:1011F00011F0FF01397007D10849098821B1FFF7C3
:101200000DF800F061FD01E0FFF708F843F6FF205C
:1012100028800020A5E700005E00002030000020AC
:1012200070B500F1340400252165657025700264F5
:10123000A078343C08280ED2DFE800F00D0D04043D
:101240000D0D0A0A204601F099F884F8365002E0A4
:10125000042084F836002046BDE8704000F058BBFA
:1012600070B5084D084C00BFFEF7D4FF2968491C33
:1012700029602168491C2160FEF7D0FFFFF77FF944
:10128000F2E70000200000207400002000B50F4AA3
:1012900089B0002111600B22CDE9061208900C489C
:1012A000059102680B480B4601680B480068CDE9C0
:1012B0000323CDE901011F2300930023074A08A15E
:1012C0000C48FFF7F3FB09B000BD00002000002030
:1012D000C02E0008BC2E0008B82E000861120008BD
:1012E00075432F4F532D4949492049646C6520545B
:1012F00061736B00D41800202DE9F84FDDE90BABCA
:1013000005460E4617469846DDF828900D9CFEF7D8
:1013100081FF1D4900901D4A0888128890422BD2F7
:10132000401C80B21A4A08801188814200D2108085
:1013300018490868C0E902670560A0F81080C0F885
:101340001490A0F818A0C0F81CB0406808601248BB
:1013500001210181114901604160002000F084FBFE
:101360000F48007808B10F490870002020800098CD
:10137000BDE8F84FFEF752BF0B490888401C0880B3
:1013800044F25360F2E7000030000020B02E000865
:101390003200002028000020601A0020941900204C
:1013A0005200002054000020340000203EB5394C8B
:1013B000394A206801688B1A91424AD016DC374AB4
:1013C000891830D0364A891824D0364A891836D040
:1013D000354A891809D102ABC269CDE90023038BD4
:1013E000028AC168806800F055FF3EBD2F49591838
:1013F00020D02F4A891827D02E4A8918F5D102AB60
:10140000C269CDE90023038B028AC168806800F0BD
:1014100057FB3EBD02AB0093028BC36941698068F4
:10142000FFF77AFE3EBD018BC269806802AB00F017
:10143000BDFC3EBD806802A900F0AEFF3EBD018B41
:10144000C269806802AB22E0806802A901F0A0F8BE
:101450003EBD19481949007800EB400001EB8000BF
:1014600000F056FC206802ABC2690021144800F06D
:10147000FDFF14490868401E0860E9D11248006861
:101480000860FEF77AFF024602AB00210F4800F029
:10149000EDFF3EBD2C0000205449434BADBAB2BE17
:1014A0000DF90BFAF2F8F7FF0006F6FF00F7FDF76B
:1014B00000FFEFFF03FE0FFE54000020601A002023
:1014C000A01C0020AC000020A8000020601D00200F
:1014D0002DE9F0411A4F1B4CDFF86C80002600BF4D
:1014E000FEF798FE0546208860B91849002008815B
:1014F0000860486000F0C8FA2846FEF78FFEFFF744
:101500003BF9E9E72846FEF789FEFEF736FF054678
:10151000FFF74CFFFEF731FF3968401B814200D2D4
:101520003860FEF777FED8F800104968C8F8001058
:101530002188491E2180FEF771FE002ED0D0CBE716
:1015400038000020300000202C000020601A00200D
:10155000F0B52D4989B000252C4B0D80196811B9C3
:1015600044F2526137E02A4E3188022902D244F215
:10157000546130E0274900220D601968DFF898C0F7
:1015800001F120040BE08D60C1F800C0CD600D8238
:101590004D610D834C6020312034521C92B237884B
:1015A000BA42F0D31A6841F81C2C1C491F4C0A603F
:1015B0001B490A601B490D801B490D80216811B928
:1015C00044F2556107E01A4D1A4A2968126891429F
:1015D00004D244F25661018009B0F0BD002103221B
:1015E000CDE906120890059113480B460168206862
:1015F0002A6801AC0FC40023104A11A117480093B8
:10160000FFF754FAE8E7000034000020C82E000875
:10161000B02E0008380000204E4F4E452800002014
:101620002C0000203000002032000020D02E0008C6
:10163000D82E0008082F0008D42E0008D114000866
:1016400075432F4F532D4949492049535220517515
:10165000657565205461736B0000000094190020CB
:10166000034A00211160034A118001807047000085
:10167000440000204800002010B5491E8CB2002113
:1016800000F110020B4607E0C0E900230381C360AC
:1016900010301032491C89B2A142F5D30360436077
:1016A0000381C36010BD000070B50E4D044628686C
:1016B00010B945F21E7004E00B4E308818B945F29F
:1016C0001D70208070BD31882868FFF7D5FF07485E
:1016D00029680160318881800021C18001812180D9
:1016E00070BD0000F02E0008B22E0008541A002031
:1016F00010B5428992B10A4903680C681C604368BE
:101700000B60CB8844891B1BCB808B884489234486
:101710008B8000214181818101604160104610BDB4
:10172000541A0020018100214181818101604160C2
:1017300070470000F0B544890589DDE905E7AC4252
:1017400002D346F2935004E01A4EB5881DB945F213
:101750001D703880F0BD34686D1ED4F800C0C6F826
:1017600000C0B580F5886D1CADB2F580B6F808C034
:10177000AC4500D23581468900251EB9046001239D
:1017800044600BE0DB0604D403681C602560046041
:1017900002E043682360446043895B1C438186897F
:1017A0009BB29E4200D2838161602281C4F80CE02A
:1017B0003D80F0BD541A0020034A00211160034A05
:1017C00011800180704700004C0000205000002074
:1017D0002DE9F041114D074628680C4680F8342069
:1017E0000026194680F8356000F0A8FC64B1FC6062
:1017F00004F1080601223946286800F011F839463C
:10180000304600F058F802E02868C6870663204694
:101810002968BDE8F04100F017B80000B0000020D2
:1018200010B5C28700242346016309E04B600B60BA
:101830000B614B610B83CB6188602031641CA4B2C7
:101840009442F3D310BD000038B14368C1F8BC30F6
:1018500081688968096AC161704791F8340002287B
:1018600005D0072805D104A0C1F8BC00704705A029
:10187000FAE706A0F8E700005461736B2053656D2A
:10188000000000005461736B205100002000000034
:10189000054AC1F8BC20816811B18968096A00E075
:1018A0000149C16170470000402F0008002101601C
:1018B00041600181704730B58A68002592F8374051
:1018C00002892AB9012202814D600D60016011E098
:1018D000521C0281026805E0936893F83730A342F6
:1018E00003D85268002AF7D100E02AB94D60426857
:1018F0000A605160416030BD136823B91160C1E9CD
:101900000052016030BDC1E900325960116030BD44
:1019100070B50646C48F056B07E0E86829460830B5
:1019200000F009F82035641EA4B2002CF5D1002087
:10193000F087306370BD10B502890024012A02D1FE
:10194000046044600CE00A681AB94A6814600260D6
:1019500006E04B6813B95460426001E053601A60BE
:101960000289521E02814C600C6010BDF8B505461C
:101970000C46184691F836100026069B082941D2DD
:10198000DFE801F0404004044040212194F8341085
:10199000032906D1009303462146284600F033F878
:1019A00003E0E265A4F86000236435B12046FFF748
:1019B000AFFF21462846FFF76BFF204600F0DEFC14
:1019C0003434A6701CE094F83410032906D1009337
:1019D00003462146284600F016F803E0E265A4F825
:1019E00060002364204600F0A7FE35B12046FFF7D3
:1019F0008FFF21462846FFF74BFF04203434A070A8
:101A000066702670F8BD70B50C6B049DC98F0AE036
:101A1000E668864204D1C4E904022383E56170BD0F
:101A20002034491E89B20029F2D170BD10B50024BE
:101A3000064802E02034E4B2001D01680029F9D014
:101A40000846FEF7F2FB2044C0B210BD1C00002087
:101A50000020044A014600BF42F82010401CFBD081
:101A6000704700001C00002000F01F024109012007
:101A7000C2F11F02034B904053F82120024343F868
:101A8000212070471C00002000F01F0241090120A6
:101A9000C2F11F02034B904053F82120824343F8C8
:101AA000212070471C000020034A00211160034AD6
:101AB0001180018070470000580000205C00002069
:101AC0002DE9FC5F80468A4693461E46DDF8349039
:101AD000FEF7A0FB284F3978491C3970FEF79EFBB2
:101AE000B8F8104008F108001CBBF00601D4002033
:101AF00000E010200C9ACDE9002903465A465146D1
:101B000008F12000FFF716FEFEF784FB3978491E26
:101B100011F0FF01397008D11849098829B1FEF781
:101B20007DFBBDE8FC5F00F0CFB8BDE8FC5FFEF7D1
:101B300075BBB10500D4012405680AE0A9686D6889
:101B40000C9B00935B4652464046FFF70FFF641E16
:101B5000A4B2002CF2D1FEF75DFB3978491E397032
:101B6000FEF75CFB300401D4FEF706FE0020A9F866
:101B70000000BDE8FC9F00005E0000203000002057
:101B80000020074B024600BF00EB400103EB810140
:101B90000A81401C0A60C0B24A602028F4D3704712
:101BA000601A002010B5044690F83700FFF75CFF7C
:101BB000074994F8370009788842204603D1BDE8E8
:101BC000104000F023B8BDE8104000F003B800005A
:101BD0005200002090F837100B4A01EB410102EB54
:101BE00081010A89002332B901220A81C36003619D
:101BF000086048607047521C0A810A68C0E90323E4
:101C00000A68106108607047601A002090F8371069
:101C10000A4A01EB410102EB81010A8900232AB93A
:101C200001220A81C3600361086005E0521C0A8139
:101C3000C3604A680261D06048607047601A002043
:101C400010B5018900290CD001290AD000240229ED
:101C5000016807D14268C1E90342C2E90314C0E93F
:101C6000002110BDCA6843681461C1E90343D9600B
:101C7000F5E7000070B5044690F83700114900EB15
:101C8000400001EB8000D4E90312002572B939B994
:101C900005810560456094F83700FFF7F5FE0DE01B
:101CA0000289521E02810D61016007E003895B1EFB
:101CB0000381D16009B9426000E00A612561E560F5
:101CC00070BD0000601A002010B5FEF7A3FA0C4AA0
:101CD000002111700C4A0B49116051F8902F521CD1
:101CE0000A600A4A1168491C11604FF080514FF098
:101CF000E022C2F8041DBDE81040FEF78FBA0000D4
:101D00005300002094190020B40000208800002017
:101D100070B5054612480078012820D1FEF77AFAFE
:101D200004462868B0B10F49884213D0816D11B1C3
:101D3000491E81650ED1288902280BD30A480078F4
:101D400040B92846FFF77CFF2868416D09B907496B
:101D5000096881652046BDE87040FEF75FBA70BD36
:101D600064000020D41800205E00002060000020E5
:101D7000002206A1064B4261C161196809B982615E
:101D800001E0816148611860704700002000000098
:101D900068000020034A00211160034A118001807D
:101DA00070470000680000206C0000202DE9F84F0B
:101DB0000646884693461F46FEF72CFA318A06F1FE
:101DC00008054FF0000A81B9346A611C07D1FEF79B
:101DD00025FA46F6C55038800020BDE8F88F641C0F
:101DE000C6E9084BFEF71AFA2CE0DFF8609099F884
:101DF0000010491C89F80010FEF710FA5FEA8850BD
:101E000001D52C8900E001242D680AE0A9686D68DD
:101E100000231A463046CDF800B0FFF7A7FD641E38
:101E2000A4B2002CF2D1346AFEF7F4F999F800104C
:101E3000491E89F80010FEF7F1F95FEA084001D465
:101E4000FEF79AFCA7F800A02046C6E75E00002037
:101E50002DE9FC5F794D7A4C2868460004E001AA20
:101E600000213046FFF7C2F820780128F7D101A8F9
:101E7000FEF7BEFD73482A680168914204D9B1FBA0
:101E8000F2FBBBF1000F03D100680A21B0FBF1FBAC
:101E90004FF47A79DFF8B0A142F210764FF00008E3
:101EA000FEF76BFA0090FEF7B5F96849684C0A68CE
:101EB0002260C1F80080FEF7B1F966482368026825
:101EC0009A4228D96448824202D23046012113E066
:101ED0006248824202D248460A210DE060488242AE
:101EE00002D26420014607E05E48824202D20A2004
:101EF000494601E001203146B2FBF1F15843B0FB05
:101F0000F1F0301A584980B2088058490A88824254
:101F100003D2088001E054480680FEF7C5FD002585
:101F2000FEF778F9DAF8004025E000BFFEF772F915
:101F30004F4F3978491C3970FEF770F954F89C0FEF
:101F4000606044F89C89FEF765F93978491E11F004
:101F5000FF01397007D14749098821B1FEF75EF9C1
:101F6000FFF7B2FE01E0FEF759F954F8A00F05445F
:101F7000FEF750F9A469FEF751F9002CD6D1E5B16E
:101F80003548854202D23746012013E03348854266
:101F900002D24F460A200DE03148854202D2642722
:101FA000384607E02F48854202D20A27484601E01A
:101FB00001273046B5FBF0F501E000270125FEF7CB
:101FC00029F9DAF800401CE0D4F8A0003146784343
:101FD000B0FBF5F080B2B04200D90846A4F88C00FE
:101FE000B4F88E10814201D2A4F88E0004F1AC0244
:101FF00001AB111D2046FEF75DFFFEF70BF9D4F88B
:10200000B840FEF70BF9002CDED11B4801780129FE
:1020100004D180F8008001A8FEF7EAFCFEF7ADF9D4
:102020000099401A15490A68824200D2086001AA44
:1020300000215846FEF7DAFF32E70000F42E0008D0
:10204000800000200C2F00088C000020740000206D
:102050007C00002078000020801A060000093D0066
:10206000005A62020084D71770000020720000201E
:102070005E000020300000206E0000208400002060
:1020800070B51D4A8AB0002111601C4A1F4C1160B6
:102090001B4A11601B4A11701B4A1170216811B94B
:1020A00046F62B610EE01A4E1A4A316812689142C8
:1020B00002D246F62C6105E0174D29781F2904D37A
:1020C00046F62A6101800AB070BD00210322CDE9E5
:1020D00006120890059111480B4601682068326885
:1020E00001AC0FC42B78009300230D4A0DA11248B8
:1020F000FEF7DCFCE7E70000740000207C00002015
:1021000078000020800000206E000020F82E0008DB
:10211000002F0008082F0008AC2E0008FC2E000835
:10212000511E000875432F4F532D494949205374C0
:102130006174205461736B00E01B002038B50446C5
:10214000022559B16B460222204600F08BFABDF8F9
:10215000000018B9032084F8360001E084F83650F6
:102160002046FFF787FD38BD0022074BC0F8B4209A
:10217000196811B9C0F8B82003E0C0F8B810C1F868
:10218000B4001860704700008C000020D0E92D21B9
:1021900000233AB90A4A116009B1C1F8B430C0F855
:1021A000B830704721B9C2F8B830C0F8B4307047C1
:1021B000C2F8B810B430C1F8B4204360036070476F
:1021C0008C000020044A00211160044A1180044A56
:1021D00011600180704700008C00002090000020FA
:1021E0008800002070B50025056085604560C560E9
:1021F0000561456185610446C56123A0C4E9080500
:10220000A562E5622563E5872564E565A4F860506D
:10221000002104F16400FFF785FA44F8745F6560FB
:10222000E560A5822561743C5FF0000004EB80014D
:10223000401CCD6710F0FF00F8D0343425612567CD
:102240006567656084F85650E567A56725814FF09E
:102250000040C4E90505E56125626562A4F85850AF
:10226000A4F85A50E5652566FEF787F8C4E9190514
:1022700025706570A5702020E070C4F8805044F887
:10228000845F03A0606070BD3F5461736B00000009
:10229000200000002DE9FC5FDDE90CB7044689460B
:1022A00092469846FDF7B6FF314D2978491C2970B2
:1022B000FDF7B4FF0CB92F4804680020388094F86B
:1022C00036002D4E08283CD2DFE800F004041D1D26
:1022D00004041D1DCDE900B743465246494604F1AA
:1022E0006400FFF727FAFDF795FF2978491E11F0E2
:1022F000FF01297021D13188F9B1FDF78FFFBDE8C9
:10230000FC5FFFF7E1BC94F834000228E2D15346A9
:102310004A4621460020CDF800B0FFF727FBFDF725
:1023200079FF2978491E2970FDF778FF5FEA084098
:102330001BD4BDE8FC5FFEF71FBABDE8FC5FFDF7EC
:102340006DBFFDF767FF2978491E11F0FF01297065
:1023500006D1318821B1FDF761FFFFF7B5FC01E03F
:10236000FDF75CFF46F62D603880BDE8FC9F00005D
:102370005E000020B00000203000002010B50446B0
:1023800000F0DAF994F83600400704D42046BDE89E
:102390001040FFF707BC10BD70B504460D46FDF7B1
:1023A00039FF00262E8094F8361008294AD2DFE83B
:1023B00001F0040404040A23333DFDF72FFF47F224
:1023C0005310288024E0224D2978491C2970FDF7FC
:1023D00025FF94F88A00401E10F0FF0084F88A0060
:1023E00004D184F836602046FFF7C8FFFDF712FFDE
:1023F0002978491E297009E094F88A10491E11F0C5
:10240000FF0184F88A1001D1012118E0FDF706FFD1
:10241000BDE87040FEF7B0B994F88A10491E11F07B
:10242000FF0184F88A10F1D1022108E094F88A10A3
:10243000491E11F0FF0184F88A10E7D1032184F8C6
:102440003610E3E7FDF7EAFE46F62D60288070BD02
:102450005E00002008B504480068FEF78EFC69465F
:102460000020FEF7FDFB08BDB00000202DE9F84F6D
:1024700004468A4690461D46FDF7CCFE414E317813
:10248000491C3170FDF7CAFE0CB93F4804680020B2
:10249000C4F84080288094F836003C4F46F6C55971
:1024A000082856D2DFE800F0404025254040252589
:1024B000FDF7B4FEFFF708FC02E000BFFDF7AEFE3B
:1024C000A5F800900020BDE8F88F00BF08F10108D2
:1024D000C4F84480FDF79EFE3178491E11F0FF01DB
:1024E000317033D1398881B3FDF798FEFFF7ECFBEB
:1024F00045E094F83400072816D100231A462146F7
:102500001846CDF80080FFF731FAD4F84480FDF783
:1025100081FE3178491E3170FDF780FE5FEA0A4086
:102520002DD4FEF729F92AE0D4F8448018F10100EF
:10253000CCD1FDF76FFE3178491E11F0FF013170EB
:10254000BCD139880029B9D0B2E7FFE7FDF766FEB4
:1025500015E0FDF75FFE3178491E11F0FF01317083
:1025600006D1398821B1FDF759FEFFF7ADFB01E037
:10257000FDF754FE46F62D6028804FF000084046D7
:10258000A1E700005E000020B00000203000002025
:102590002DE9F04104460D46FDF73CFE244904B9FF
:1025A0000C680968234F8C4206D1397821B1FDF7B8
:1025B00035FE46F6635038E00021298094F8361045
:1025C000012608292DD2DFE801F004171F21272753
:1025D00027273978491C3970FDF720FE042084F83C
:1025E000360084F88A602046FFF744FBFDF712FEB0
:1025F0003978491E397001E0052108E0FDF70EFE2B
:10260000BDE8F041FEF7B8B8062100E0072184F8E4
:10261000361084F88A60F1E714F88A1F491C21708B
:10262000ECE7FDF7FBFD46F62D602880BDE8F08164
:10263000B00000205E00002010B500200246074BCD
:10264000074C06E003EBC0010A608A80401CCA8088
:1026500080B221888842F5D310BD0000C415002047
:10266000B42E0008F0B5314C0025246847F27E26D0
:10267000042A08D10A1B521E12F5803F2BD8521C87
:10268000C0E9131215E031B3284E082A36680E440B
:102690000DD1826C0A44171B7F1E8F4201D2C26487
:1026A00000E0C664C16C0A1B0265816401E0C0E9F8
:1026B00013611F4AC16C12881E4EB1FBF2F702FB78
:1026C000171189B206EBC102918849B9456185614C
:1026D0000121106021E0C5640565C5611E80F0BD63
:1026E0001168C1B1CE6C361B0E65076DB74207D9B4
:1026F0004E690EB13146F5E7C0E9055148610AE07F
:102700008C6924B9C0E905158861106003E0C0E94F
:102710000514606188619188491C9180D48889B2D0
:102720008C4200D2D180C2611D80F0BD9400002097
:10273000B42E0008C415002010B5C169002915D0B9
:10274000002404650A68824204D142690A6032B1F9
:10275000946104E0D0E905235A6102B193614461B8
:102760008461C461C4648888401E888010BD0000F4
:1027700010B500200246064B064C04E003EBC001F6
:10278000401CCA8080B221888842F7D310BD000067
:10279000C4150020B42E00082DE9F05FFDF73AFDC6
:1027A0004B490A78521C0A70FDF738FDFDF7E5FD2C
:1027B000484E834630684849401C306009880025EF
:1027C000B0FBF1F201FB1200444980B251F83040F5
:1027D0002F464FF003094FF0040A002C59D094F80B
:1027E0003610D4F81480082950D2DFE801F04F04E5
:1027F0004F114F274F34E06C31688842A0EB010045
:10280000206542D184F836702046FFF7B7FD3DE0E1
:10281000E06C31688842A0EB0100206535D1E765A6
:10282000A4F86070FDF7A9FD20642046FFF770F85A
:102830002046FFF7A3FD3434A77022E0E06C316836
:102840008842A0EB010020651FD184F836A0204605
:10285000FFF772FF1AE0E06C31688842A0EB0100DC
:10286000206512D1E765A4F86070FDF786FD20644D
:102870002046FFF74DF82046FFF75EFF343484F81A
:1028800002A084F80190277000E001254446002D45
:10289000A3D0FDF772FD1249A0EB0B000A6882423B
:1028A00000D20860FDF7B6FC094A1178491E11F004
:1028B000FF01117008D10B49098829B1FDF7AEFC61
:1028C000BDE8F05FFFF700BABDE8F05FFDF7A6BC1A
:1028D0005E00002094000020B42E0008C4150020E3
:1028E00098000020300000201CB5084C002101ABEE
:1028F0006A460846FEF742FABDF804000028F5D102
:1029000020780128F2D1FFF747FFEFE725000020EC
:10291000F0B504461A4989B00020086019490860DA
:10292000FFF78AFE184D286810B947F212200EE012
:10293000164F174938680968884202D247F21320B7
:1029400005E0144E30781F2804D347F21120208070
:1029500009B0F0BD00210B22059106A816C00E4853
:102960000B46016828683A6801AC0FC433780093BD
:1029700000230A4A0AA10F48FEF798F8E8E700008A
:102980009400002098000020102F0008182F000845
:10299000082F0008AD2E0008142F0008E9280008B1
:1029A00075432F4F532D494949205469636B205477
:1029B00061736B00A01C002070B529498AB0002407
:1029C0000C60284B284A29491D6812680DB12B4616
:1029D00000E00A23B2FBF3F20A601146244A274BB7
:1029E00011602449264D0C6023490C60002106E04B
:1029F00003EBC1029480D480491C89B214602A88F8
:102A00009142F5D31F4C216811B947F247310EE0CE
:102A10001D4E1E4A31681268914202D247F2483177
:102A200005E01B4D29781F2904D347F24631018068
:102A30000AB070BD00210B22CDE906120890059165
:102A400014480B4601682068326801AC0FC42B782B
:102A500000930023104A11A11648FEF727F8E7E774
:102A60009C000020242F00080C2F0008A800002044
:102A7000AC000020A4000020A00000204C18002082
:102A8000B62E0008282F0008302F0008082F000855
:102A9000AE2E00082C2F0008792B000875432F4F0D
:102AA000532D4949492054696D6572205461736BF7
:102AB00000000000601D002070B5022280F82A206E
:102AC000204A0129136801D0016A01B9416A1E4AEE
:102AD0001944816112881D4CB1FBF2F502FB1512FD
:102AE00092B204EBC2021468002524B90561456165
:102AF000106001201EE0C91AC1611168C1B18C6962
:102B0000E41ACC61C669A64207D90C690CB121460A
:102B1000F5E7C0E9045108610AE04B6923B9C0E94F
:102B200004154861106003E0C0E9041318614861AE
:102B30009088401C9080D18880B2814200D2D080A1
:102B400070BD0000A4000020B62E00084C18002024
:102B500010B500200246064B064C04E003EBC00112
:102B6000401CCA8080B221888842F7D310BD000083
:102B70004C180020B62E00082DE9FC5FDFF898B055
:102B8000DFF89880DFF898A0002101AB6A4608467C
:102B9000FEF7F4F801A8FDF72DFEFDF7EEFB074662
:102BA000D8F800004FF00309401CC8F80000BBF83B
:102BB00000100026B0FBF1F301FB1300194980B2AD
:102BC00051F83040D4B1A069D8F800102569884286
:102BD00014D1204600F028F8208D022804D10121CC
:102BE0002046FFF769FF01E084F82A90A26812B13D
:102BF0002046E16890472C46002EE3D0FDF7BDFB50
:102C0000C41B01A8FDF71CFEDAF800105046A142D3
:102C1000BAD20460B8E70000B62E0008A400002075
:102C2000A00000204C18002010B5104A81691288BD
:102C30000F4BB1FBF2F402FB141189B203EBC1019B
:102C40000B6800240269834203D10A602AB15461EF
:102C500003E043691A6102B15361012280F82A201E
:102C6000046144618888401E888010BDB62E00082B
:102C70004C180020044A0029916901D0014300E06A
:102C800081439161704700000010024070470000CE
:102C9000214900200A6842F480320A604FF4A063A0
:102CA0000A68401C12F4003F01D19842F8D108682C
:102CB000800330D51948026842F0100202600268B1
:102CC00022F003020260026842F0020202604868D9
:102CD000486048684860486840F4806048604868D8
:102CE00020F47C104860486840F4E81048600868A8
:102CF00040F08070086008688001FCD5486820F0CA
:102D000003004860486840F0020048604868C0F32B
:102D100081000228FAD170470010024000200240D2
:102D20000B484FF47A710068B0FBF1F0B0F1807F8E
:102D30000CD220F07F41491E4FF0E0204161054A4E
:102D4000F0211170002181610721016170470000AD
:102D50000000002023ED00E010B50F48016841F0AD
:102D60000101016041680D4A1140416001680C4A4F
:102D700011400160016821F480210160416821F463
:102D8000FE0141604FF41F018160FFF781FF05499B
:102D90004FF00060086010BD001002400000FFF816
:102DA000FFFFF6FE08ED00E0F8B501250D4C00260A
:102DB0005FEA4527C4F88C51C4F890516A46002157
:102DC000C820FEF713F9C4F88C61C4F890616A4614
:102DD0000021C820FEF70AF96A4639460248FDF785
:102DE0009DFDE7E7008021420C05002000B58BB077
:102DF00000F036F8FFF794FF00210AAB032205919B
:102E000006A80EC00B460A210C486422CDE9021226
:102E1000CDE9001004930023094A0AA1C038FDF748
:102E200045FEBDF82830002208A10A48FDF738FD0C
:102E30000AA90948FDF714FF0BB000BD7C03002070
:102E4000A92D00085461736B310000007461736B2D
:102E500053656D000C050020BC000020FEE77047A4
:102E600038B501210820FFF705FF0120FDF70EFB13
:102E70001820ADF8000010208DF803000320064C48
:102E80008DF8020069462046FDF7AEFA182120466B
:102E9000FDF7F9FA38BD0000000C014010B5FDF750
:102EA00045FAFDF707FB002010BD00000B0A0B00E0
:102EB0000A00640011001100440500200600000013
:102EC0004000000000010000440600204001000016
:102ED000840700200C0000008000000000020000B9
:102EE000840900208000000000020000400600006D
:102EF000840B00200A000000C41100200C00000018
:102F0000800000000002000040000000E803000014
:102F1000C41300200C00000080000000000200002C
:102F2000880000000A0000004C1600200C00000081
:102F300080000000000200008800000090130000E4
:102F400020000000642F000800000020BC000000EA
:102F50006C01000820300008BC000020C4230000E1
:102F60008801000800A24A040000000000000000E0
:102F70000102030406070809000000000000000029
:102F80000000000000000000000000000000000041
:102F90000000000000000000000000000000000031
:102FA0000000000000000000000000000000000021
:102FB0000000000000000000000000000000000011
:102FC0000000000000000000000000000000000001
:102FD00000000000000000000000000000000000F1
:102FE00000000000000000000000000000000000E1
:102FF00000000000000000000000000000000000D1
:1030000000000000000000000000000000000000C0
:1030100000000000000000000000000000000000B0
:0400000508000131BD
:00000001FF
