:020000040800F2
:1000000080DA00202502000895150008410F00083D
:100010003D15000855090008E954000800000000DB
:10002000000000000000000000000000C5530008B0
:10003000F90C0008000000001707000899200008CC
:100040003F0200083F0200083F0200083F0200088C
:100050003F0200083F0200083F0200083F0200087C
:100060003F0200083F0200083F0200083F0200086C
:100070003F0200083F0200083F0200083F0200085C
:100080003F0200083F0200083F0200083F0200084C
:100090003F0200083F0200083F0200083F0200083C
:1000A0003F0200083F0200083F0200083F0200082C
:1000B0003F0200083F0200083F0200083F0200081C
:1000C0003F0200083F0200083F0200083F0200080C
:1000D0003F0200083F0200083F0200083F020008FC
:1000E0003F0200083F0200083F0200083F020008EC
:1000F0003F0200083F0200083F0200083F020008DC
:100100003F0200083F0200083F0200083F020008CB
:100110003F0200083F0200083F0200083F020008BB
:100120003F0200083F0200083F0200083F020008AB
:1001300000F002F800F067F80AA090E8000C824492
:100140008344AAF10107DA4501D100F05CF8AFF26F
:10015000090EBAE80F0013F0010F18BFFB1A43F0A5
:10016000010318471C8900003C8900000A444FF035
:10017000000C10F8013B13F0070408BF10F8014B06
:100180001D1108BF10F8015B641E05D010F8016B4B
:10019000641E01F8016BF9D113F0080F1EBF10F8AF
:1001A000014BAD1C0C1B09D16D1E58BF01F801CBD2
:1001B000FAD505E014F8016B01F8016B6D1EF9D555
:1001C0009142D6D37047000000230024002500266A
:1001D000103A28BF78C1FBD8520728BF30C148BFAA
:1001E0000B607047642900F0B980782900F0EE8038
:1001F000732900F04382002070471FB5AFF30080E1
:100200001FBD10B510BD00F049FA1146FFF7F5FF0C
:1002100006F030FC00F067FAFFF7F3FF05F05EFB35
:10022000704700000948804709480047FEE7FEE79D
:10023000FEE7FEE7FEE7FEE7FEE7FEE7FEE7FEE796
:1002400004480549054A064B7047000099540008C8
:100250003101000880C8002080DA002080CA002018
:1002600080CA002072B6704762B67047EFF3108004
:1002700072B6704780F31088704730BF704720BF58
:100280007047B0FA80F0704790FAA0F0B0FA80F0B2
:10029000704790FAA0F07047704700000FB4054A0D
:1002A000054910B503AB7944029800F0C2F910BCBF
:1002B0005DF814FB28000020EF65000070B50446CF
:1002C000856900683026C10600D42026C00709D100
:1002D00006E0D4E9012130469047206A401C2062A4
:1002E0006D1EF6D570BD70B5044685690068C007FF
:1002F00009D006E0D4E9012120209047206A401C63
:1003000020626D1EF6D570BD70B505460C46012AFB
:1003100001D101200BE02868800600D5EA690020A1
:1003200000E0401C904202D2215C0029F9D1A96969
:100330002618091AA961296A014428462962FFF78B
:10034000BDFF04E0D5E9012114F8010B9047B44248
:10035000F8D32846FFF7C7FF70BD00002DE9F04134
:100360008046002610687529414614A511D0AFF3C8
:100370000080002802DA404211A508E0D8F80010F9
:100380008A0701D50FA502E0490704D50EA501266D
:1003900001E0AFF30080002408F1240704E000F03E
:1003A00071F930313955641C0028F8D133462A469A
:1003B00021464046BDE8F04100F0DEB800000000F4
:1003C0002D0000002B0000002000000070B5044646
:1003D0000D4621461068AFF300802168090502D55B
:1003E000104A7A4402E00F4A7A440E32002104F1A6
:1003F000240306E000F00F064FEA1010965D5E54ED
:10040000491C0028F6D120680023000704D5702D70
:1004100002D009B1113202232046BDE8704000F03D
:10042000ABB80000748500002DE9F05F4FF0000BC1
:10043000044689464FF0010AC0F820B02046E16822
:10044000884700287DD0252802D0D4E9012185E005
:10045000464F00267F442046E1688847202805460D
:1004600007DB312D05D2781910F8200C08B10643AE
:10047000F1E7B00701D526F00406C4F81CB0002748
:10048000C4F818B02A2D10D1204659F8041B04EBEB
:1004900087029161E1688847012F054628D1E0690C
:1004A000002830DA26F020062DE0A5F13000524673
:1004B0000A2801461AD2CAB104EB87009246804648
:1004C000816108E0D8F8180000EB800005EB4000DF
:1004D0003038C8F818002046E1688847054650467D
:1004E000A5F130010A2901D20028EBD1012F0AD051
:1004F0002E2D08D12046E16888477F1C0546022F33
:1005000046F02006BEDBA069002803DA404246F030
:100510000106A061F00701D026F010068DB1A5F10B
:100520004100192802D8203546F400664A4629467B
:10053000204626604E46FFF755FE60B1012804D1E3
:1005400000E010E006F1040978E7F61D26F0070048
:1005500000F1080972E7D4E9012128469047206A92
:10056000401C20626AE7206ABDE8F09F2A850000EF
:1005700070477047704770472DE9F0470D460446B5
:100580009246994600F124080168880604D5E0697E
:1005900021F01001216000E001200027A84200DDC9
:1005A000471BA1697A1902EB0900081AA0612068AB
:1005B000C00602D42046FFF781FE002608E0D4E9F9
:1005C00001211AF806009047206A401C761C206220
:1005D0004E45F4DB2068C0060AD52046FFF76EFEC4
:1005E00006E0D4E9012130209047206A401C2062B7
:1005F000381EA7F10107F4DC07E0D4E9012118F85F
:1006000005009047206A401C2062281EA5F10105C4
:10061000F3DC2046FFF767FE21680220090600D4BC
:100620000120BDE8F087000001694A1C02610878DA
:10063000704710B50C46194690B0CDE90242002231
:100640000692044A7A44CDE9042001A8FFF7ECFEA3
:1006500010B010BDE1FFFFFF10B5436913B1AFF358
:10066000008001E0FFF750FE012010BD126800F18C
:1006700024010A7000224A700122EDE711684FF050
:10068000FF32E9E74FF00A01B0FBF1F202FB110182
:10069000104670470048704720C800207546FFF795
:1006A000F9FFAE4605006946534620F0070085462F
:1006B00018B020B5FFF7C4FDBDE820404FF000069C
:1006C0004FF000074FF000084FF0000B21F007013A
:1006D000AC46ACE8C009ACE8C009ACE8C009ACE87D
:1006E000C0098D4670470446AFF300802046FFF7EF
:1006F00093FD000018484FF0FF010170002080F3C7
:1007000009881648016881F3088815484FF0805120
:10071000016062B6FEE772B6EFF3098028B12038B7
:1007200080E8F00F0F490968086000B50E4880475F
:100730005DF804EB0D480E490A78027009480D492E
:100740000A680260106890E8F00F203080F3098892
:100750004EF0040E62B6704722ED00E03400002037
:1007600004ED00E0CC0000207D1F00086E0000209A
:100770006F000020D00000202DE9FC4704F08CFE23
:1007800004F06AFE4FF0E020016941F001010161CF
:1007900000F001FF4FF4E131482006F0C9FB00F002
:1007A000AFFE002006F0CCF904F012FC04F0C6FE07
:1007B00000F00AFC00264FF47847DFF80081404C37
:1007C0004FF4FA754FF0010920E000BFA8F800705F
:1007D0003CA31022CDE90023134608220A2114204D
:1007E00000F065FEC4F88C61284605F043FB3CA38D
:1007F0001022CDE90023134608220A21142000F01C
:1008000056FEC4F88C91284605F034FB04F0CCF871
:100810002A28DBD106F018FB05F0A6FD364C002097
:10082000216805F0DDFD0120616805F0D9FD4FF676
:10083000FF7419E031A31022CDE900231346C8222A
:1008400032213C2000F033FEC82005F013FB422388
:10085000F02232213C20009400F008FD00231022F9
:100860006E21142006F026FC05F0FAFF0028E1D1E5
:1008700004F03CFE10B924A0FFF710FD04F0C6FF01
:1008800024A0FFF70BFD04F0EBFE04F0E9FE0146A7
:1008900023A0FFF703FD04F025FF26A0FFF7FEFCD1
:1008A00029A31022CDE900234FF4A073F022962152
:1008B0003C2000F0FCFDBDE8FC870000D4000020D7
:1008C00000802142534420436172642046696C6574
:1008D0002120202020202020202020202000000077
:1008E000506C6561736520436865636B20534420D9
:1008F000436172642100000048010020466F6E745D
:10090000204572726F7221004852657365744F6B97
:10091000210D0A005352657365744F6B210D0A0057
:1009200052616D20546573743A3058253034580D37
:100930000A000000426F61726420496E6974204FA2
:10094000766572210D0A000053595354454D204FCE
:100950004B212000FEE7000010B50449002008608C
:1009600000F016F8BDE8104000F002B8300000209A
:1009700010B5FFF77BFC04461021044800F0DFFDB2
:100980002046BDE81040FFF775BC0000A804002019
:1009900070474FF0E02080697047000070B537491C
:1009A00005462A24486B10F0450FFBD0410702D5BD
:1009B0000324042003E0C00704D00124204603F0F0
:1009C000EDF959E003F024FAA8422BD140F2FF5090
:1009D00003F0E4F9002003F033FA294908424BD030
:1009E000002801DA1C2070BD410001D5092070BD2E
:1009F000810001D50A2070BDC10001D50B2070BD5A
:100A0000010101D50C2070BD410101D50D2070BD43
:100A1000C10101D50E2070BD010201D50F2070BDAE
:100A2000410201D5102070BD810201D5112070BD99
:100A3000C10201D5122070BD010301D5132070BD84
:100A4000410301D5142070BD810301D5152070BD6F
:100A5000C10301D5162070BD010401D5172070BD5A
:100A6000410401D5182070BD810401D5192070BD45
:100A7000000701D51A2070BD204670BD00800140DE
:100A800008E0FFFD10B50B492A24486B10F0450F14
:100A9000FBD0410702D50324042003E0C00705D0A2
:100AA0000124204603F07AF9204610BD40F2FF50A1
:100AB000F8E700000080014070B50C461949064671
:100AC0002A25486B10F0450FFBD0410702D50324BF
:100AD000042003E0C00705D00124204603F05EF99E
:100AE000204670BD03F094F9B04213D140F2FF509C
:100AF00003F054F9002003F0A3F910F4604F03D180
:100B00004FEA104020800BE0810401D5132070BD16
:100B1000410401D5102070BD000401D50F2070BD27
:100B2000284670BD0080014070B506460C4604F0B2
:100B3000C1FBB4F5805F18D20C4D0020C5F88801C8
:100B4000012E01D1832000E0862004F087FAC4F34F
:100B5000871004F083FAA006000E04F07FFA00204C
:100B600004F07CFA0120C5F8880170BD0000224223
:100B700070B506460C4604F09DFB0D4D0020C5F8EF
:100B80008801012E01D1532000E0552004F066FABF
:100B9000C4F3871004F062FAA006000E04F05EFAB7
:100BA000002004F05BFA0120C5F8880170BD000048
:100BB000000022420349C20002D5C1F80404704774
:100BC00048607047000002400029016802D041F0EF
:100BD000010102E04FF6FE72114001607047000013
:100BE000024600200549D30002D5D1F8001400E0E8
:100BF0000968114200D00120704700000000024047
:100C000070B5026847F6F0739A430D6A8B680C69F9
:100C10002B43D1E9056534432343CC692B4323435C
:100C2000D1E909542B43234313430360CA6842604C
:100C30000A6882604968C16070BD000070B50646F0
:100C40008CB00D461148FFF7B5FF114C002120462E
:100C5000FFF7BAFF0F48CDE901060020A908CDE94A
:100C600003018021CDE90501890007918900CDE9C3
:100C700008108900CDE90A1001A92046FFF7C0FF3E
:100C800001212046FFF7A0FF0CB070BD00F000105E
:100C9000440402408080014070B506468CB00C468A
:100CA0001248FFF787FF124D00212846FFF78CFFFF
:100CB0001048CDE9010610200390A0080490002000
:100CC0008021CDE90501890007918900CDE908104F
:100CD0008900CDE90A1001A92846FFF791FF0121FB
:100CE0002846FFF771FF0CB070BD000000F0001047
:100CF0004404024080800140704700002DE9FC5F01
:100D000000240E4668462146224606C0494F4FF051
:100D1000080B1020C7E900B04FF0400AC7E902A451
:100D20004FF480682546C7F81080384603F0CAF8AB
:100D30001020FFF733FE2A2833D13F48B946806898
:100D400001043960C7E902A5372138467960C0F847
:100D500010804746374803F0B5F83720FFF71EFEEE
:100D60002A281ED1334835491430C0E9001B3021F0
:100D700081600221C0E903150121416103F020F8DF
:100D80003321C9E90051C9E902A52A48C9F8107000
:100D900003F098F83320FFF701FE05462A280CD00F
:100DA0002846BDE8FC9F504603F038F860B103F0D8
:100DB00083F847F82400641C06E0DFF884804FF4D1
:100DC000001A6F4640F22A69D8F8340010EA090F79
:100DD000E9D0082003F022F820B1082002F0DEFF5D
:100DE0000420DEE7022003F019F820B1022002F00F
:100DF000D5FF0220D5E7202003F010F820B12020F5
:100E000002F0CCFF0620CCE74FF40074204603F03C
:100E100005F820B1204602F0C1FF0720C1E740F2EB
:100E2000FF5002F0BBFF009800BA7060019800BA52
:100E30003060B5E7D81D0020D8000020FFFF0F006C
:100E400000800140F0B5CB780022DC0603F00F03F0
:100E500001D58C7823430C884FF00F0C14F0FF0F52
:100E60004FF0010E1AD006680D880EFA02F42540E4
:100E7000A5420FD195000CFA05F726EA070703FAF9
:100E800005F6CD783E43282D01D1446102E0482D7E
:100E900000D10461521C082AE6D306600A88FF2AA2
:100EA0001ED946685FF0000202F108050EFA05F44B
:100EB0000D882540A5420FD195000CFA05F726EACA
:100EC000070703FA05F6CD783E43282D00D144618B
:100ED000CD78482D00D10461521C082AE4D3466025
:100EE000F0BD0000F0B5144C002801DAE36900E021
:100EF0006368450D2E0185B2C0F30157B540C0F3BC
:100F00000342032F06D123F07062636823F07063FD
:100F1000636008E0C60203D503269640B34300E0B1
:100F2000AB4343F0706201B12A43002801DAE26169
:100F3000F0BD6260F0BD000000000140016170473B
:100F400010B50A4C21680AA0FFF7A8F961680BA048
:100F5000FFF7A4F9A1680CA0FFF7A0F961690DA043
:100F6000FFF79CF9FFF75CF9FEE7000028ED00E0D1
:100F7000434653523A2538580D0A0000484653520A
:100F80003A2538580D0A0000444653523A2538583D
:100F90000D0A0000414653523A2538580D0A000008
:100FA0000029018802D041F4806101E021F48061D0
:100FB000018070470029018802D041F0010101E061
:100FC00021F00101018070477FB50121082002F066
:100FD00033FE0121480502F023FE01210220FFF724
:100FE00081FF4FF44070ADF80C0003208DF80E0027
:100FF0001C208DF80F0003A91248FFF723FF0020E3
:10100000ADF804004BF6FF70ADF80600A024ADF873
:1010100008404FF48060ADF80A000001ADF80C0004
:1010200009480A4D009001212846FFF7C3FF694691
:10103000284600F00FF801212846FFF7B1FF0448C9
:1010400004807FBD000C0140801A0600005400405F
:101050003A01002070B50446808886B00D4620F025
:101060003F0601A802F0F4FD26490398B0FBF1F118
:1010700089B20E43A680228822F001022280224BF0
:101080002A689A421CD85200B0FBF2F080B20428C1
:1010900000D20420491C2184A083208840F0010054
:1010A000208020884FF6F5310840A9886A891143CD
:1010B00001432180A88929890843208106B070BD99
:1010C000EB88A3F53F46FF3E05D102EB4202B0FBA1
:1010D000F2F080B208E002EBC20303EB0212B0FBB5
:1010E000F2F080B240F48040020501D140F00100EE
:1010F0004FF4967251434FF47A72B1FBF2F140F41F
:101100000040C7E740420F00A086010070B50446CA
:1011100040482A25806801043F4801600D21416054
:10112000402181600021C1604FF48061016102F0C3
:10113000C9FE3A49486B10F0450FFBD0410702D574
:101140000324042003E0C00705D00124204602F058
:1011500025FE204670BD02F05BFE0D282ED140F228
:10116000FF5002F01BFE002002F06AFEC0F3432194
:1011700021702B4908424BD0002801DA1C2070BD99
:10118000410001D5092070BD810001D50A2070BD44
:10119000C10001D50B2070BD010101D50C2070BD2F
:1011A000410101D50D2070BDC10101D50E2070BDDA
:1011B000010201D50F2070BD410201D5102070BD84
:1011C000810201D5112070BDC10201D5122070BD70
:1011D000010301D5132070BD410301D5142070BD5A
:1011E000810301D5152070BDC10301D5162070BD46
:1011F000010401D5172070BD410401D5182070BD30
:10120000810401D5192070BD000701D51A2070BDD9
:10121000284670BDD8000020D81D00200080014065
:1012200008E0FFFD074A41069369074843F00103C0
:101230009361426822F0E062426042680A43426081
:1012400070470000001002400000014000B500F0AF
:1012500037F822204FF0C041088002480249008838
:10126000088000BDD40000200000026070B5141A90
:101270005E1A641C761CA4B2B6B2049D00F02CF871
:1012800022204FF0C04108800021074A08E00020DA
:1012900002E01580401C80B2A042FAD3491C89B2FA
:1012A000B142F4D370BD000000000260034601208B
:1012B00000E058430A00A1F10101C9B2F9D1704719
:1012C0004E234FF0C0421380024B18804F201080F5
:1012D0001980704700000260F0B506460C461746BC
:1012E0001D46FFF7EDFF44214FF0C04046EA0722BC
:1012F000018004490A80452202800C804622028037
:101300000D80F0BD000002602DE9FF4F0C468846BD
:1013100005464649203A0D98B1F800B0D2B21E46B3
:101320000292002842D13DE00C2E08D1029840499B
:1013300000EB400001EB800111F80A7005E03D4828
:10134000029900EB011010F80A704FF000093806FE
:1013500003D53649A1F800B002E034484188018045
:1013600021462846FFF772FF7806070E3248641CB4
:101370000088A4B2A84253D9A4EB0800B04207D118
:101380002D486D1C0088ADB24446A84248D906E0FD
:1013900009F1010000F0FF09B9F1080FD7D30AF1F4
:1013A0000100C0B28246B042BED339E0002034E032
:1013B0000C2E06D102981E4900EB400001EB800183
:1013C00003E01C49029801EB001111F80A704FF07C
:1013D0000009380603D521462846FFF737FF78066F
:1013E000070E1548641C4088A4B2A84218D9A4EB83
:1013F0000800B04207D110486D1C0088ADB24446C9
:10140000A8420DD906E009F1010000F0FF09B9F189
:10141000080FDED30AF10100C0B28246B042C7D342
:101420000249A1F800B0BDE8FF8F0000D400002001
:10143000E47A0008587F0008941D00202DE9F84F39
:10144000DDF828A0002680468B4691461D4634468E
:101450004FEA5A071DE0281B401EC1B20A20FFF7C1
:1014600025FFB9FBF0F00A21B0FBF1F201FB1201FC
:10147000A6B9681E844211DA79B9002307FB0480FB
:10148000009380B2534620225946FFF73DFF641C6B
:10149000E4B2AC42DFD3BDE8F88F0126002307FB9E
:1014A00004800093303180B25346CAB2ECE72DE994
:1014B000F847044600F0FF0A10441FFA80F9DDE9FE
:1014C000097658180D461FFA80F811E04C4502D3F2
:1014D000E819544685B245450FD2002300933B4698
:1014E00029462046FFF710FF04EB570084B2761C14
:1014F0003278A2F120005E28E8D9BDE8F887000024
:1015000038B50121082002F097FB0120FFF78AFE81
:101510001820ADF8000010208DF803000320064CC1
:101520008DF8020069462046FFF78CFC1821204602
:10153000FFF704FD38BD0000000C0140FEE70A463D
:10154000002100F001B8000010B5002A21D00028C9
:101550001FD000234FEA0304641C41EA0323042C38
:10156000FAD310F003040BD004E000BF521E00F8C1
:10157000011B641C22B1042CF8D301E008C0121F27
:10158000042AFBD203E000BF00F8011B521E002A10
:10159000FAD110BD704710B500214FF0006000F087
:1015A0003FF8BDE810404FF4407000F02FB8F0B5A0
:1015B0000F23C47801784FF0E0220127E4B1D2F87C
:1015C0000C4D867804F4E064C4F5E064240AC4F1A8
:1015D0000405E34044781E40AC40264333011144E7
:1015E00081F800340078410900F01F0002EB81010E
:1015F0008740C1F80071F0BD01F01F008740480925
:1016000002EB8000C0F88071F0BD00000249084381
:1016100002490860704700000000FA050CED00E088
:10162000024A1140014302480160704780FFFF1FDA
:1016300008ED00E07047704710B5044600F096F8DA
:101640003C48002202703C480A2102703B4802706C
:101650003B4802603B4802603B4802703B480270D6
:101660003B4802703B4802703B480068B0FBF1F019
:101670003A4908603A49086830B13A48006818B1F8
:10168000096804C0491EFCD13748027001F0BCF95A
:1016900001F052FA204600F013FD2088002847D1BF
:1016A000204600F0BDFF2088002841D1204600F0F0
:1016B000DBFF208800283BD1204601F05DF8208820
:1016C000002835D1204601F0CBF9208800282FD101
:1016D000204601F029FB2088002829D1204601F06E
:1016E0003BFD2088002823D1204600F011FF2088F0
:1016F00000281DD1204600F0A9FD2088002817D120
:10170000204602F0CFF82088002811D1204601F0B1
:1017100081FC208800280BD1204602F017F9208890
:10172000002805D100F0CAFCBDE81040FFF782BFD9
:1017300010BD000040000020410000207A00002081
:10174000CC000020D00000206E0000206F000020A0
:101750007000002080000020AC7A00087C0000208F
:10176000847A0008807A0008AE00002030B5094B6A
:101770000021094A0C46186801E010C0491C156890
:10178000A942FAD31868054900EB8500001F0860DC
:1017900030BD0000807A0008847A00083400002000
:1017A00010B51B480078012830D1FEF75FFD1949BC
:1017B0000446087828B3401E10F0FF00087020D1BE
:1017C00015480078E8B901F00DF914490870C0B265
:1017D000134900EB400051F82000124908601249FB
:1017E000096888420DD050F8901F491C01600F49CC
:1017F0000868401C08604FF080504FF0E021C1F8AD
:10180000040D2046BDE81040FEF734BD10BD0000B9
:1018100041000020400000207A0000206F000020DE
:10182000D4190020D0000020CC000020A40000200B
:1018300010B517480078002829D1164800780028EC
:1018400025D1FEF713FD044601F0CCF812490870CB
:10185000C1B201EB4100114951F82010104801605C
:101860001048006881420DD051F8900F401C08606C
:101870000D490868401C08604FF080504FF0E0218F
:10188000C1F8040D2046BDE81040FEF7F3BC10BDC2
:10189000400000207A0000206F000020D4190020B2
:1018A000D0000020CC000020A400002070B5044629
:1018B0000E48007810B146F6625015E00C480078EA
:1018C000012802D045F689600EE00A4D2878FA28F2
:1018D00002D345F2092007E0FEF7C8FC2978491C2D
:1018E0002970FEF7C7FC0020208070BD400000205A
:1018F000410000207A00002070B5044613480078AB
:1019000010B146F665501EE011480078012802D05B
:1019100045F6896017E00F4D287810B946F66450F7
:1019200011E0FEF7A3FC2978491E11F0FF01297090
:1019300004D0FEF79FFC46F6635004E0FEF79AFCE5
:10194000FFF776FF0020208070BD000040000020DF
:10195000410000207A00002070B50F4D0446287821
:10196000B0B901F03FF80D4908700D49C0B20870D8
:101970000C4900EB400051F820000B4908600B496E
:10198000086001202870FEF7B5FE43F6992001E0BB
:1019900045F68A60208070BD410000206F00002065
:1019A0006E000020D4190020D0000020CC000020C0
:1019B0002DE9F0410646FEF759FC224900250D604D
:1019C00021490D8021490D8021490D6021490D607B
:1019D00021490D6021490D81FEF74CFCFEF746FCC4
:1019E0001F490C6814E000BFFEF740FC44F8785F24
:1019F0002563A561A582E58265620746A562FEF7BB
:101A0000C8FF2062783CA4F87050D4F8B84038463B
:101A1000FEF730FC002CE7D1FEF728FC11490C68DA
:101A200004E000BFFEF722FCA585A469FEF722FCB6
:101A3000002CF7D101F066FE02F054F83580BDE8C5
:101A4000F0810000540000204E0000208E00002095
:101A5000A0000020B4000020BC000020C819002015
:101A6000A800002074000020704700002DE9FF4FFF
:101A700083B004466048DDE917A5DDE910780078F9
:101A8000DDF85490139E10B147F24A1027E014B9C4
:101A900047F2AD1023E0059810B947F24F101EE051
:101AA000B8F1000F02D146F62F6018E053480068E5
:101AB000864202D246F6306011E01298B04202D35C
:101AC00046F631600BE046F27320202F07D20FB9A3
:101AD0004B4902E01F2F06D14A498C4203D028808F
:101AE00007B0BDE8F08F204601F046FB4FF0000B39
:101AF000A5F800B05FEACA700AD05FEA8A7007D51D
:101B0000414600205A4601E004C1401CB042FBD3CC
:101B10001299CDE9006A08EB8105DDE905012B4644
:101B2000424600F0EDF90599A1620699E162049937
:101B3000216284F83770C4F85490A5602060B9F130
:101B4000000F02D13048006800E04846A0651698B2
:101B5000C4F82480A6636060A4F83CA00020594625
:101B600004EB8002401CD16710F0FF00F8D004F1B4
:101B70006400149900F0B6FD204600F04FF8FEF71F
:101B800075FB224D2978491C2970FEF773FB94F8E8
:101B9000370000F045FF204601F014F8204601F020
:101BA000ADFA1B490888401C08801A4800780128B3
:101BB00016D0FEF75BFB2978491E11F0FF01297052
:101BC00009D11549098831B1FEF754FB07B0BDE8CA
:101BD000F04F01F055B807B0BDE8F04FFEF74ABB33
:101BE000FEF744FB2978491E2970FEF743FB07B036
:101BF000BDE8F04FFFF71CBE40000020A87A0008A7
:101C000008190020481800207C0000207A000020DD
:101C1000AC000020410000204C0000207047000074
:101C200070B504463D480D46007810B147F24E109D
:101C300071E03B48844202D147F24C106BE03948D6
:101C4000844202D147F24D1065E02CB9FEF70EFB3D
:101C500035490C68FEF70EFBFEF708FB334E317872
:101C6000491C3170FEF706FB94F8360008283ED276
:101C7000DFE800F004080C0C1C080C0C204600F0F7
:101C8000D5FF13E0204601F021FD0FE0204601F0D2
:101C90001DFD94F83400072808D2DFE800F007049F
:101CA000070404040400204600F00DFE04F1640063
:101CB00000F0FEFC204600F03FF8204601F030FA2C
:101CC0001B490888401E0880204601F055FAFF2075
:101CD00084F83600FEF7CAFA3178491E3170FEF7F3
:101CE000C9FA00202880BDE87040FFF7A1BDFEF7CB
:101CF000BDFA3178491E11F0FF01317007D10D494D
:101D0000098821B1FEF7B6FA00F0BAFF01E0FEF74C
:101D1000B1FA46F62D60288070BD0000400000201A
:101D20004818002008190020CC0000207A0000206C
:101D3000AC0000204C000020704770472DE9F047B0
:101D4000824649480F46007814461D4610B146F2B7
:101D5000AE103DE02FB1B7F5004F02D045F625603B
:101D600036E0002604B12660FEF780FADFF8FC803A
:101D70008146D8F80000416CD1B1491E47468846DB
:101D800041640CB1006C2060FEF703FE39680A6CF8
:101D9000801AC1F8A400D1F8A820824201D2C1F86B
:101DA000A8004846FEF766FA2E804046BDE8F08758
:101DB000380405D54846FEF75DFA46F2B01007E054
:101DC0002B4F387838B14846FEF754FA46F6635040
:101DD00028800020EAE7012038704846FEF74AFADA
:101DE000002153460722084600F0D2FCFEF73EFAD7
:101DF0003978491E3970FEF73DFAFFF719FDFEF7F5
:101E000035FAD8F80010814691F83500474648B1B8
:101E100001281FD0032823D104B1266047F2D9201E
:101E2000288010E074B1086C2060FEF7B2FD3968BC
:101E30000A6C801AC1F8A400D1F8A820824201D20D
:101E4000C1F8A8002E803868446C4846FEF712FAA4
:101E50002046ABE70CB1086C206046F2A910DFE722
:101E600046F62E60DCE7000040000020CC00002099
:101E70007A0000202DE9F04104461F480E46007804
:101E800017461D4610B147F2591020E046F2D52002
:101E9000EEB1E7B1FEF7EAF90CB918490C684FF05A
:101EA0000008216841B9FEF7E5F9C6F8008047F25D
:101EB0005210C7F800800AE0A18FC9070AD1FEF7C7
:101EC000D9F9C6F8008047F25410C7F8008028807E
:101ED000BDE8F081FEF7CEF90020616A01E0091D3E
:101EE000401C0A68002AFAD03060A16B081A3860DA
:101EF000A5F80080ECE7000040000020CC000020A6
:101F000010B5029C02EB84024FF0807442F8044D3D
:101F100042F8040D184842F8040D121F4FF0123415
:101F2000104614604FF0033240F8042D4FF0023297
:101F300040F8042D40F8043D40F8041D4FF01131E5
:101F400040F8041DD10040F8041D611040F8041D44
:101F5000910040F8041D4FF0073140F8041D4FF088
:101F6000063140F8041D4FF0053140F8041D5100C2
:101F700040F8041D10BD0000E933000810B5FEF75D
:101F800008FD0849084A09681268914206D0943150
:101F90004B68C31A0B608C6823448B60C2F89800AE
:101FA00010BD0000CC000020D00000202DE9F04141
:101FB0000646254888460078144610B147F2752039
:101FC0003EE0224D287810B146F6635038E05FEAD3
:101FD000080005D0022803D0042808D0082803D11F
:101FE0002EB947F27E202BE045F6256028E0FEF76B
:101FF0003DF92978491C2970FEF73CF9144F01215D
:102000003868234680F836104246314601F0F4FA2B
:10201000208840B1FEF72AF92978491E2970BDE8C9
:10202000F041FEF727B9386800F000FEFEF71EF910
:102030002978491E2970FEF71DF9FFF7F9FB0020EA
:102040002080BDE8F0810000400000207A000020E0
:10205000CC00002000B585B000F01CF8FEF799FC1C
:1020600004ABCDE9020300210748009101910078FB
:10207000064900EB400001EB800100231A460448AA
:1020800000F01AF905B000BD6E000020D419002040
:102090005449434B7047000010B5FEF7E7F8064A75
:1020A0001178491C1170FEF7E5F8FFF7D3FFBDE882
:1020B0001040FFF775BB0000400000207047000093
:1020C000034A00211160034A11800180704700001B
:1020D000580000205C0000202DE9F04704460E4621
:1020E00090469A46089DFEF7C1F85FEA08011AD0AB
:1020F000012906D0B1F5004F15D06FF400428918C0
:1021000014D1216A31EA0601C4E9081A218A04F1CE
:1021100008064FF0000971B9FEF7ACF8A5F8009079
:10212000206ABDE8F087216A3143EDE7FEF7A2F8A7
:1021300045F625604CE0284F3978491C3970FEF788
:1021400099F8366818E0B0F88810766801F00F0149
:1021500004290AD0082927D1216AD0F8802011400B
:1021600009D0524600F03CF805E0216AD0F8802002
:1021700011408A42F5D016B1B0680028E3D1FEF7CD
:1021800075F83978491E3970FEF774F85FEA08402F
:1021900001D4FFF74DFBFEF769F8246AFEF76AF8F1
:1021A000A5F800902046BCE7FEF760F83978491E94
:1021B00011F0FF01397007D10849098821B1FEF7F4
:1021C00059F800F05DFD01E0FEF754F843F6FF20FA
:1021D00028800020A5E700007A0000204C000020A5
:1021E00070B500F134040025216565702570026426
:1021F000A078343C08280ED2DFE800F00D0D04046E
:102200000D0D0A0A204601F083F884F8365002E0EA
:10221000042084F836002046BDE8704000F053BB2F
:1022200070B5084D084C00BFFEF720F82968491C1E
:1022300029602168491C2160FEF71CF8FFF7FBF9B3
:10224000F2E700003C0000209000002000B50F4A9B
:1022500089B0002111600B22CDE9061208900C48CC
:10226000059102680B480B4601680B480068CDE9F0
:102270000323CDE901011F2300930023074A08A18E
:102280000C48FFF7F3FB09B000BD00003C00002044
:10229000607A00085C7A0008587A00082122000859
:1022A00075432F4F532D4949492049646C6520548B
:1022B00061736B00481800202DE9F84FDDE90BAB86
:1022C00005460E4617469846DDF828900D9CFDF70A
:1022D000CDFF1D4900901D4A0888128890422BD2DC
:1022E000401C80B21A4A08801188814200D21080B6
:1022F00018490868C0E902670560A0F81080C0F8B6
:102300001490A0F818A0C0F81CB0406808601248EB
:1023100001210181114901604160002000F080FB32
:102320000F48007808B10F490870002020800098FD
:10233000BDE8F84FFDF79EBF0B490888401C088098
:1023400044F25360F2E700004C000020507A00088D
:102350004E00002044000020D4190020081900205D
:102360006E00002070000020500000203EB5394C67
:10237000394A206801688B1A91424AD016DC374AE4
:10238000891830D0364A891824D0364A891836D070
:10239000354A891809D102ABC269CDE90023038B04
:1023A000028AC168806800F03FFF3EBD2F4959187E
:1023B00020D02F4A891827D02E4A8918F5D102AB90
:1023C000C269CDE90023038B028AC168806800F0EE
:1023D00053FB3EBD02AB0093028BC3694169806829
:1023E000FFF77AFE3EBD018BC269806802AB00F048
:1023F000A7FC3EBD806802A900F098FF3EBD018B9E
:10240000C269806802AB22E0806802A901F08AF804
:102410003EBD19481949007800EB400001EB8000EF
:1024200000F052FC206802ABC2690021144800F0A1
:10243000E7FF14490868401E0860E9D112480068A7
:102440000860FEF7A6FA024602AB00210F4800F032
:10245000D7FF3EBD480000205449434BADBAB2BE41
:102460000DF90BFAF2F8F7FF0006F6FF00F7FDF79B
:1024700000FFEFFF03FE0FFE70000020D4190020C4
:10248000141C0020C8000020C4000020D41C002020
:102490002DE9F0411A4F1B4CDFF86C80002600BF7D
:1024A000FDF7E4FE0546208860B918490020088140
:1024B0000860486000F0C4FA2846FDF7DBFEFFF72D
:1024C000B7F9E9E72846FDF7D5FEFEF762FA0546BB
:1024D000FFF74CFFFEF75DFA3968401B814200D2DE
:1024E0003860FDF7C3FED8F800104968C8F800103E
:1024F0002188491E2180FDF7BDFE002ED0D0CBE7FC
:10250000540000204C00002048000020D419002076
:10251000F0B52D4989B000252C4B0D80196811B9F3
:1025200044F2526137E02A4E3188022902D244F245
:10253000546130E0274900220D601968DFF898C027
:1025400001F120040BE08D60C1F800C0CD600D8268
:102550004D610D834C6020312034521C92B237887B
:10256000BA42F0D31A6841F81C2C1C491F4C0A606F
:102570001B490A601B490D801B490D80216811B958
:1025800044F2556107E01A4D1A4A296812689142CF
:1025900004D244F25661018009B0F0BD002103224B
:1025A000CDE906120890059113480B460168206892
:1025B0002A6801AC0FC40023104A11A117480093E8
:1025C000FFF754FAE8E7000050000020687A00089E
:1025D000507A0008540000204E4F4E454400002021
:1025E000480000204C0000204E000020707A0008B7
:1025F000787A0008A87A0008747A00089124000804
:1026000075432F4F532D4949492049535220517545
:10261000657565205461736B000000000819002087
:10262000034A00211160034A1180018070470000B5
:10263000600000206400002010B5491E8CB200210B
:1026400000F110020B4607E0C0E900230381C360DC
:1026500010301032491C89B2A142F5D303604360A7
:102660000381C36010BD000070B50E4D044628689C
:1026700010B945F21E7004E00B4E308818B945F2CF
:102680001D70208070BD31882868FFF7D5FF07488E
:1026900029680160318881800021C1800181218009
:1026A00070BD0000907A0008527A0008C819002016
:1026B00010B5428992B10A4903680C681C604368EE
:1026C0000B60CB8844891B1BCB808B8844892344B7
:1026D0008B8000214181818101604160104610BDE5
:1026E000C819002001810021418181810160416080
:1026F00070470000F0B544890589DDE905E7AC4283
:1027000002D346F2935004E01A4EB5881DB945F243
:102710001D703880F0BD34686D1ED4F800C0C6F856
:1027200000C0B580F5886D1CADB2F580B6F808C064
:10273000AC4500D23581468900251EB904600123CD
:1027400044600BE0DB0604D403681C602560046071
:1027500002E043682360446043895B1C43818689AF
:102760009BB29E4200D2838161602281C4F80CE05A
:102770003D80F0BDC8190020034A00211160034AC2
:102780001180018070470000680000206C0000206C
:102790002DE9F041114D074628680C4680F8342099
:1027A0000026194680F8356000F092FC64B1FC60A8
:1027B00004F1080601223946286800F011F839466C
:1027C000304600F053F802E02868C68706632046CA
:1027D0002968BDE8F04100F017B80000CC000020E7
:1027E00010B5C28700242346016309E04B600B60EB
:1027F0000B614B610B83CB6188602031641CA4B2F8
:102800009442F3D310BD000038B14368C1F8BC3026
:1028100081688968096AC161704791F834000228AB
:1028200005D0072805D104A0C1F8BC00704705A059
:10283000FAE706A0F8E700005461736B2053656D5A
:10284000000000005461736B205100002000000064
:10285000054AC1F8BC20816811B18968096A00E0A5
:102860000149C16170470000E07A000830B58A680C
:10287000002592F8374002892AB9012202814D6071
:102880000D60016011E0521C0281026805E093684E
:1028900093F83730A34203D85268002AF7D100E0FA
:1028A0002AB94D6042680A605160416030BD1368CA
:1028B00023B91160C1E90052016030BDC1E90032A5
:1028C0005960116030BD70B50646C48F056B07E0D6
:1028D000E8682946083000F009F82035641EA4B2E3
:1028E000002CF5D10020F087306370BD10B502894F
:1028F0000024012A02D1046044600CE00A681AB97D
:102900004A681460026006E04B6813B95460426084
:1029100001E053601A600289521E02814C600C6013
:1029200010BDF8B505460C46184691F8361000263D
:10293000069B082941D2DFE801F0404004044040F2
:10294000212194F83410032906D10093034621462F
:10295000284600F033F803E0E265A4F86000236441
:1029600035B12046FFF7AFFF21462846FFF770FF3D
:10297000204600F0CDFC3434A6701CE094F83410EE
:10298000032906D1009303462146284600F016F895
:1029900003E0E265A4F860002364204600F096FEA0
:1029A00035B12046FFF78FFF21462846FFF750FF3D
:1029B00004203434A07066702670F8BD70B50C6BBE
:1029C000049DC98F0AE0E668864204D1C4E9040286
:1029D0002383E56170BD2034491E89B20029F2D1FC
:1029E00070BD000010B50024064802E02034E4B2B7
:1029F000001D01680029F9D00846FDF742FC20447B
:102A0000C0B210BD380000200020044A014600BFBB
:102A100042F82010401CFBD0704700003800002016
:102A200000F01F0241090120C2F11F02034B904038
:102A300053F82120024343F821207047380000203A
:102A400000F01F0241090120C2F11F02034B904018
:102A500053F82120824343F821207047380000209A
:102A6000034A00211160034A118001807047000071
:102A700074000020780000202DE9FC5F80468A4623
:102A800093461E46DDF83490FDF7F0FB284F397869
:102A9000491C3970FDF7EEFBB8F8104008F108004A
:102AA0001CBBF00601D4002000E010200C9ACDE9F8
:102AB000002903465A46514608F12000FFF71AFE46
:102AC000FDF7D4FB3978491E11F0FF01397008D1A8
:102AD0001849098829B1FDF7CDFBBDE8FC5F00F07E
:102AE000CFB8BDE8FC5FFDF7C5BBB10500D401243C
:102AF00005680AE0A9686D680C9B00935B46524626
:102B00004046FFF70EFF641EA4B2002CF2D1FDF781
:102B1000ADFB3978491E3970FDF7ACFB300401D4A8
:102B2000FEF786FE0020A9F80000BDE8FC9F00002B
:102B30007A0000204C0000200020074B024600BF16
:102B400000EB400103EB81010A81401C0A60C0B226
:102B50004A602028F4D37047D419002010B50446E9
:102B600090F83700FFF75CFF074994F837000978C1
:102B70008842204603D1BDE8104000F023B8BDE8EC
:102B8000104000F003B800006E00002090F83710ED
:102B90000B4A01EB410102EB81010A89002332B9A2
:102BA00001220A81C3600361086048607047521CBB
:102BB0000A810A68C0E903230A6810610860704747
:102BC000D419002090F837100A4A01EB410102EBBA
:102BD00081010A8900232AB901220A81C3600361A5
:102BE000086005E0521C0A81C3604A680261D06037
:102BF00048607047D419002010B5018900290CD015
:102C000001290AD000240229016807D14268C1E9DC
:102C10000342C2E90314C0E9002110BDCA68436839
:102C20001461C1E90343D960F5E7000070B50446BB
:102C300090F83700114900EB400001EB8000D4E927
:102C40000312002572B939B905810560456094F811
:102C50003700FFF7F5FE0DE00289521E02810D617B
:102C6000016007E003895B1E0381D16009B94260FE
:102C700000E00A612561E56070BD0000D419002004
:102C800010B5FDF7F3FA0C4A002111700C4A0B49FC
:102C9000116051F8902F521C0A600A4A1168491CB1
:102CA00011604FF080514FF0E022C2F8041DBDE8E2
:102CB0001040FDF7DFBA00006F0000200819002067
:102CC000D0000020A400002070B50546124800780E
:102CD000012820D1FDF7CAFA04462868B0B10F498F
:102CE000884213D0816D11B1491E81650ED12889AA
:102CF00002280BD30A48007840B92846FFF77CFF2A
:102D00002868416D09B90749096881652046BDE811
:102D10007040FDF7AFBA70BD800000204818002059
:102D20007A0000207C000020034A00211160034A41
:102D3000118001807047000084000020880000207E
:102D40002DE9F84F0646884693461F46FDF78EFA52
:102D5000318A06F108054FF0000A81B9346A611C16
:102D600007D1FDF787FA46F6C55038800020BDE848
:102D7000F88F641CC6E9084BFDF77CFA2CE0DFF8FD
:102D8000609099F80010491C89F80010FDF772FA5C
:102D90005FEA885001D52C8900E001242D680AE003
:102DA000A9686D6800231A463046CDF800B0FFF7D9
:102DB000B8FD641EA4B2002CF2D1346AFDF756FAB5
:102DC00099F80010491E89F80010FDF753FA5FEAE0
:102DD000084001D4FEF72CFDA7F800A02046C6E766
:102DE0007A0000202DE9FC5F794D7A4C2868460076
:102DF00004E001AA00213046FFF7D8F82078012826
:102E0000F7D101A8FEF7D4FD73482A680168914202
:102E100004D9B1FBF2FBBBF1000F03D100680A211A
:102E2000B0FBF1FB4FF47A79DFF8B0A142F21076F3
:102E30004FF00008FDF7ADFD0090FDF717FA684967
:102E4000684C0A682260C1F80080FDF713FA6648F2
:102E5000236802689A4228D96448824202D23046E6
:102E6000012113E06248824202D248460A210DE065
:102E70006048824202D26420014607E05E488242F6
:102E800002D20A20494601E001203146B2FBF1F1AD
:102E90005843B0FBF1F0301A584980B208805849C5
:102EA0000A88824203D2088001E054480680FEF777
:102EB000DBFD0025FDF7DAF9DAF8004025E000BF78
:102EC000FDF7D4F94F4F3978491C3970FDF7D2F925
:102ED00054F89C0F606044F89C89FDF7C7F9397875
:102EE000491E11F0FF01397007D14749098821B106
:102EF000FDF7C0F9FFF7C4FE01E0FDF7BBF954F898
:102F0000A00F0544FDF7B2F9A469FDF7B3F9002C51
:102F1000D6D1E5B13548854202D23746012013E0CB
:102F20003348854202D24F460A200DE0314885429F
:102F300002D26427384607E02F48854202D20A278A
:102F4000484601E001273046B5FBF0F501E00027D7
:102F50000125FDF78BF9DAF800401CE0D4F8A00059
:102F600031467843B0FBF5F080B2B04200D9084654
:102F7000A4F88C00B4F88E10814201D2A4F88E001F
:102F800004F1AC0201AB111D2046FEF773FFFDF703
:102F90006DF9D4F8B840FDF76DF9002CDED11B486F
:102FA0000178012904D180F8008001A8FEF700FD16
:102FB000FDF7EFFC0099401A15490A68824200D2D9
:102FC000086001AA00215846FEF7F0FF32E7000032
:102FD000947A00089C000020AC7A0008A800002029
:102FE000900000209800002094000020801A060025
:102FF00000093D00005A62020084D7178C000020AF
:103000008E0000207A0000204C0000208A00002062
:10301000A000002070B51D4A8AB0002111601C4A32
:103020001F4C11601B4A11601B4A11701B4A117022
:10303000216811B946F62B610EE01A4E1A4A316822
:103040001268914202D246F62C6105E0174D2978AC
:103050001F2904D346F62A6101800AB070BD002101
:103060000322CDE906120890059111480B4601682C
:103070002068326801AC0FC42B78009300230D4AFE
:103080000DA11248FEF7F2FCE7E7000090000020D7
:1030900098000020940000209C0000208A0000205E
:1030A000987A0008A07A0008A87A00084C7A0008EC
:1030B0009C7A0008E52D000875432F4F532D494990
:1030C000492053746174205461736B00541B0020B9
:1030D00038B50446022559B16B460222204600F05D
:1030E0008BFABDF8000018B9032084F8360001E01F
:1030F00084F836502046FFF799FD38BD0022074B73
:10310000C0F8B420196811B9C0F8B82003E0C0F8BD
:10311000B810C1F8B400186070470000A800002083
:10312000D0E92D2100233AB90A4A116009B1C1F84A
:10313000B430C0F8B830704721B9C2F8B830C0F820
:10314000B4307047C2F8B810B430C1F8B42043604E
:1031500003607047A8000020044A00211160044A5F
:103160001180044A1160018070470000A80000200F
:10317000AC000020A400002070B50025056085602B
:103180004560C5600561456185610446C56123A050
:10319000C4E90805A562E5622563E5872564E56560
:1031A000A4F86050002104F16400FFF79BFA44F892
:1031B000745F6560E560A5822561743C5FF0000086
:1031C00004EB8001401CCD6710F0FF00F8D03434D0
:1031D000256125676567656084F85650E567A567D2
:1031E00025814FF00040C4E90505E561256265626F
:1031F000A4F85850A4F85A50E5652566FDF7C9FBB8
:10320000C4E9190525706570A5702020E070C4F828
:10321000805044F8845F03A0606070BD3F546173C8
:103220006B000000200000002DE9FC5FDDE90CB719
:103230000446894692469846FDF718F8314D29789C
:10324000491C2970FDF716F80CB92F4804680020B6
:10325000388094F836002D4E08283CD2DFE800F084
:1032600004041D1D04041D1DCDE900B7434652464C
:10327000494604F16400FFF73DFAFCF7F7FF2978AF
:10328000491E11F0FF01297021D13188F9B1FCF7F5
:10329000F1FFBDE8FC5FFFF7F3BC94F834000228AF
:1032A000E2D153464A4621460020CDF800B0FFF750
:1032B00038FBFCF7DBFF2978491E2970FCF7DAFFA1
:1032C0005FEA08401BD4BDE8FC5FFEF7B1BABDE879
:1032D000FC5FFCF7CFBFFCF7C9FF2978491E11F04E
:1032E000FF01297006D1318821B1FCF7C3FFFFF738
:1032F000C7FC01E0FCF7BEFF46F62D603880BDE854
:10330000FC9F00007A000020CC0000204C00002030
:1033100010B5044600F0DAF994F83600400704D4FA
:103320002046BDE81040FFF719BC10BD70B504463B
:103330000D46FCF79BFF00262E8094F836100829D6
:103340004AD2DFE801F0040404040A23333DFCF709
:1033500091FF47F25310288024E0224D2978491C20
:103360002970FCF787FF94F88A00401E10F0FF00D8
:1033700084F88A0004D184F836602046FFF7C8FF3D
:10338000FCF774FF2978491E297009E094F88A1027
:10339000491E11F0FF0184F88A1001D1012118E0C3
:1033A000FCF768FFBDE87040FEF742BA94F88A1057
:1033B000491E11F0FF0184F88A10F1D1022108E0C2
:1033C00094F88A10491E11F0FF0184F88A10E7D1A1
:1033D000032184F83610E3E7FCF74CFF46F62D6036
:1033E000288070BD7A00002008B504480068FEF708
:1033F000A4FC69460020FEF713FC08BDCC000020A9
:103400002DE9F84F04468A4690461D46FCF72EFFEC
:10341000414E3178491C3170FCF72CFF0CB93F4804
:1034200004680020C4F84080288094F836003C4F9F
:1034300046F6C559082856D2DFE800F04040252559
:1034400040402525FCF716FFFFF71AFC02E000BFFD
:10345000FCF710FFA5F800900020BDE8F88F00BF32
:1034600008F10108C4F84480FCF700FF3178491ED8
:1034700011F0FF01317033D1398881B3FCF7FAFEC6
:10348000FFF7FEFB45E094F83400072816D100232F
:103490001A4621461846CDF80080FFF742FAD4F8C4
:1034A0004480FCF7E3FE3178491E3170FCF7E2FE00
:1034B0005FEA0A402DD4FEF7BBF92AE0D4F8448035
:1034C00018F10100CCD1FCF7D1FE3178491E11F082
:1034D000FF013170BCD139880029B9D0B2E7FFE7CC
:1034E000FCF7C8FE15E0FCF7C1FE3178491E11F06B
:1034F000FF01317006D1398821B1FCF7BBFEFFF71F
:10350000BFFB01E0FCF7B6FE46F62D6028804FF0C9
:1035100000084046A1E700007A000020CC0000200F
:103520004C0000202DE9F04104460D46FCF79EFEBC
:10353000244904B90C680968234F8C4206D13978B4
:1035400021B1FCF797FE46F6635038E00021298050
:1035500094F83610012608292DD2DFE801F004176F
:103560001F21272727273978491C3970FCF782FE4D
:10357000042084F8360084F88A602046FFF756FB62
:10358000FCF774FE3978491E397001E0052108E026
:10359000FCF770FEBDE8F041FEF74AB9062100E0F5
:1035A000072184F8361084F88A60F1E714F88A1F3E
:1035B000491C2170ECE7FCF75DFE46F62D60288083
:1035C000BDE8F081CC0000207A00002010B500207A
:1035D0000246074B074C06E003EBC0010A608A80F5
:1035E000401CCA8080B221888842F5D310BD0000FB
:1035F00038150020547A0008F0B5314C00252468B5
:1036000047F27E26042A08D10A1B521E12F5803F7B
:103610002BD8521CC0E9131215E031B3284E082AEA
:1036200036680E440DD1826C0A44171B7F1E8F42F0
:1036300001D2C26400E0C664C16C0A1B02658164E9
:1036400001E0C0E913611F4AC16C12881E4EB1FB34
:10365000F2F702FB171189B206EBC102918849B952
:10366000456185610121106021E0C5640565C56182
:103670001E80F0BD1168C1B1CE6C361B0E65076DA2
:10368000B74207D94E690EB13146F5E7C0E9055199
:1036900048610AE08C6924B9C0E9051588611060A9
:1036A00003E0C0E90514606188619188491C91803C
:1036B000D48889B28C4200D2D180C2611D80F0BD15
:1036C000B0000020547A00083815002010B5C169F8
:1036D000002915D0002404650A68824204D1426999
:1036E0000A6032B1946104E0D0E905235A6102B165
:1036F000936144618461C461C4648888401E888089
:1037000010BD000010B500200246064B064C04E038
:1037100003EBC001401CCA8080B221888842F7D3E5
:1037200010BD000038150020547A00082DE9F05F24
:10373000FCF79CFD4B490A78521C0A70FCF79AFD75
:10374000FDF727F9484E834630684849401C3060F1
:1037500009880025B0FBF1F201FB1200444980B258
:1037600051F830402F464FF003094FF0040A002C67
:1037700059D094F83610D4F81480082950D2DFE8D4
:1037800001F04F044F114F274F34E06C31688842ED
:10379000A0EB0100206542D184F836702046FFF787
:1037A000B7FD3DE0E06C31688842A0EB0100206588
:1037B00035D1E765A4F86070FDF7EBF8206420468A
:1037C000FFF781F82046FFF7A3FD3434A77022E00D
:1037D000E06C31688842A0EB010020651FD184F8BD
:1037E00036A02046FFF772FF1AE0E06C316888428D
:1037F000A0EB0100206512D1E765A4F86070FDF729
:10380000C8F820642046FFF75EF82046FFF75EFF09
:10381000343484F802A084F80190277000E0012578
:103820004446002DA3D0FDF7B4F81249A0EB0B00DD
:103830000A68824200D20860FCF718FD094A117834
:10384000491E11F0FF01117008D10B49098829B1F7
:10385000FCF710FDBDE8F05FFFF712BABDE8F05FBE
:10386000FCF708BD7A000020B0000020547A000860
:1038700038150020B40000204C0000201CB5084C76
:10388000002101AB6A460846FEF758FABDF804006D
:103890000028F5D120780128F2D1FFF747FFEFE7A4
:1038A00041000020F0B504461A4989B000200860A4
:1038B00019490860FFF78AFE184D286810B947F2C9
:1038C00012200EE0164F174938680968884202D264
:1038D00047F2132005E0144E30781F2804D347F236
:1038E0001120208009B0F0BD00210B22059106A80F
:1038F00016C00E480B46016828683A6801AC0FC430
:103900003378009300230A4A0AA10F48FEF7AEF865
:10391000E8E70000B0000020B4000020B07A000802
:10392000B87A0008A87A00084D7A0008B47A00082E
:103930007D38000875432F4F532D4949492054695C
:10394000636B205461736B00141C002070B529490F
:103950008AB000240C60284B284A29491D68126847
:103960000DB12B4600E00A23B2FBF3F20A601146C8
:10397000244A274B11602449264D0C6023490C60D2
:10398000002106E003EBC1029480D480491C89B277
:1039900014602A889142F5D31F4C216811B947F26F
:1039A00047310EE01D4E1E4A31681268914202D224
:1039B00047F2483105E01B4D29781F2904D347F20F
:1039C000463101800AB070BD00210B22CDE90612FC
:1039D0000890059114480B4601682068326801ACD4
:1039E0000FC42B7800930023104A11A11648FEF74C
:1039F0003DF8E7E7B8000020C47A0008AC7A000878
:103A0000C4000020C8000020C0000020BC0000202E
:103A1000C0170020567A0008C87A0008D07A00083B
:103A2000A87A00084E7A0008CC7A00080D3B0008FE
:103A300075432F4F532D4949492054696D657220B4
:103A40005461736B00000000D41C002070B502228A
:103A500080F82A20204A0129136801D0016A01B99F
:103A6000416A1E4A1944816112881D4CB1FBF2F56E
:103A700002FB151292B204EBC2021468002524B9AD
:103A800005614561106001201EE0C91AC16111681D
:103A9000C1B18C69E41ACC61C669A64207D90C6928
:103AA0000CB12146F5E7C0E9045108610AE04B6911
:103AB00023B9C0E904154861106003E0C0E90413AC
:103AC000186148619088401C9080D18880B2814202
:103AD00000D2D08070BD0000C0000020567A0008DF
:103AE000C017002010B500200246064B064C04E02B
:103AF00003EBC001401CCA8080B221888842F7D302
:103B000010BD0000C0170020567A00082DE9FC5FA8
:103B1000DFF898B0DFF89880DFF898A0002101ABBB
:103B20006A460846FEF70AF901A8FDF7BFFEFCF752
:103B300030FF0746D8F800004FF00309401CC8F8D2
:103B40000000BBF800100026B0FBF1F301FB1300EE
:103B5000194980B251F83040D4B1A069D8F80010AA
:103B60002569884214D1204600F028F8208D0228CB
:103B700004D101212046FFF769FF01E084F82A9073
:103B8000A26812B12046E16890472C46002EE3D08F
:103B9000FCF7FFFEC41B01A8FDF7AEFEDAF800102B
:103BA0005046A142BAD20460B8E70000567A000835
:103BB000C0000020BC000020C017002010B5104A33
:103BC000816912880F4BB1FBF2F402FB141189B228
:103BD00003EBC1010B6800240269834203D10A6030
:103BE0002AB1546103E043691A6102B153610122B1
:103BF00080F82A20046144618888401E888010BDB6
:103C0000567A0008C0170020044A0029516901D0E3
:103C1000014300E081435161704700000010024001
:103C2000044A0029D16901D0014300E08143D161F8
:103C30007047000000100240044A0029916901D039
:103C4000014300E081439161704700000010024091
:103C500010B5204A5168204B11F00C0103D0042903
:103C600001D0082901D0036011E051685368022493
:103C700001F4701104EB914113F4803F02D05368BA
:103C80009B0301D5154B00E0134B5943016051686C
:103C9000134B01F0F00109095C5C0168E1404160EF
:103CA000546804F4E064240A1C5D21FA04F484607E
:103CB000546804F46054E40A1B5DD940C160526842
:103CC000074B02F44042920B1B1F9A5CB1FBF2F1CE
:103CD000016110BD0010024000127A0000093D0091
:103CE000040000202DE9FC478146002168460A4671
:103CF00006C0084600F0A4F8800102D50E20BDE8F9
:103D0000FC87244C6946A06880B2FCF7F7FF2A289C
:103D1000F5D140263720204D370101994FF0060A92
:103D20004FF00008B9F1010F13D149032FD5A16855
:103D3000C5E90387C5E9010609042960284600F0A2
:103D4000C1F83720FCF72AFE2A28D8D102202860A3
:103D500012E0C9031BD5A168C5E90387C5E90106BF
:103D6000090429600C4800F0ADF83720FCF716FE76
:103D70002A28C4D1C5F80080C5E901A6C5E9038792
:103D8000054800F09FF80620FCF708FEB7E725205D
:103D9000B5E70000D8000020D81D00200149886345
:103DA0007047000000800140014908607047000032
:103DB000A000304201490860704700008C05304285
:103DC00030B5094902684A6242688A62CA6AD0E923
:103DD0000354836840692B43044322F0F7022343D2
:103DE0001343CB6230BD0000008001400648002133
:103DF000016041608160C16041628162C162034AC9
:103E00008263C1637047000000800140FF07C0006B
:103E100001480069C0B27047008001400349024672
:103E2000496B0020114200D0012070470080014002
:103E30000248006800F00300704700000080014065
:103E4000014940587047000014800140044A00298D
:103E5000D16B01D0014300E08143D1637047000082
:103E60000080014070B5094B5968041D47F6FF6298
:103E700070CC9143027D34432A4305682243006994
:103E80002A4302430A435A6070BD0000008001408B
:103E900008B54FF4C060FDF7B9FB31208DF8000084
:103EA00001208DF8010003218DF802108DF8030028
:103EB0006846FDF77CFB08BD0148006870470000BC
:103EC0008080014030B5084902688A60CA68D0E93C
:103ED0000254436800692B4304436FF30A022343EF
:103EE0001343CB6030BD00000080014004490A68E4
:103EF00022F003020A600A6802430A607047000069
:103F00000080014001490860704700008080014046
:103F10002DE9F04101461A482A244068032807D0B9
:103F200018B1012801D0022827D1B1F5805F02D154
:103F30002720BDE8F0814FF4006800260127114DCD
:103F400041450BD10120FFF7CDFE04462A2814D1AC
:103F50002F752E606E60C5E902680AE00020FFF749
:103F6000C1FE04462A2808D12F752E606E60AE600F
:103F7000EE6004482E61FFF775FF2046D9E7000088
:103F8000D8000020C01D00202DE9F0438D49DFF846
:103F900038924C6880F84E408968A0F84C10D9F8E7
:103FA00000104FF02A0C0A0E95090570C2F3830524
:103FB000457002F0030282700A0CC2700A0A027194
:103FC0004171D9F80420110E0901C180C388C2F3E0
:103FD000074101F00F0543EA1111C1800572C2F3D8
:103FE0000721CB094372C1F380138372C1F34013DD
:103FF000C372C1F3001303734FF0000E80F80DE09D
:104000004B469B684FF00108C3F30746C3F30727ED
:104010004FEA13650CB1012C2AD18907090D016102
:104020000169D2B241EA820101610269C5F3C204A9
:1040300042EA95120261047505F0070141757109A4
:104040008175C6F38201C175B107490F0176027E01
:10405000394642EAD71202760269057E047A521C7A
:10406000AD1CAA4008FA04F56A43C0E9112512E024
:10407000022C10D19106890A0161016941EA0521EA
:10408000016102693946324302610269521CD2045D
:10409000426422028264C1F38012183042708906A1
:1040A000490E8170D9B2837843EAD113837001F04D
:1040B0007F01C170D9F80C20110ECB090371C1F337
:1040C00041134371C1F3820383718907090FC171E1
:1040D000C379C2F3074143EA9113C371C1F340139B
:1040E000037280F809E001F001018172C2F3072137
:1040F000CB09C372C1F380130373C1F3401343733D
:10410000C1F300138373C1F38103C37301F003018F
:104110000174C2F346014174434680F812802A4A72
:10412000103211680C0E0475C1F307442402C482D6
:10413000C58AC1F307242543C582090681615168F8
:1041400085690C0E45EA044484618569C1F307441E
:1041500045EA042484618569C1F307242543856108
:10416000017791680C0E4477C1F30744240604627A
:10417000056AC1F3072445EA04440462046AC9B22B
:1041800044EA01210162D168046A44EA11640462CC
:1041900090F82440C1F3074244EA121480F8244006
:1041A0001207120DC284C48CC1F307221443C484C5
:1041B000C1F3460180F8281080F829306046BDE838
:1041C000F0830000D8000020A01D002038B5012198
:1041D0003020FFF731FD4FF4F850ADF80000032018
:1041E0008DF8020018208DF8030069461448FCF78A
:1041F00029FE0420ADF8000069461248FCF722FEB3
:1042000001218802FFF700FD01210220FFF7FCFCDD
:10421000FFF7ECFD00F09CF82A2810D100F016F80A
:1042200004462A280AD108480121017500210160AD
:1042300041608160C1600161FFF714FE204638BD16
:104240000010014000140140C01D00202DE9F84F6E
:1042500001202A240090FFF7EBFD10B92520BDE8CE
:10426000F88FDFF8E490D9F80400042869D0374EBD
:1042700000250220C6E900504FF0C00AC6E902A599
:104280004FF480683046C6F81080FFF71BFEFCF73D
:10429000F9FB04462A2854D10020FFF7D1FDA6F1EE
:1042A000280738600420FFF7CBFD78600820FFF76F
:1042B000C7FDB8600C20FFF7C3FDF860D9F8040013
:1042C0004F4628B1012803D0062801D0022810D17A
:1042D0000320C6E90050C6E903584020B0601B48DF
:1042E000FFF7F0FD69460320FCF7E6FB04462A28A9
:1042F00027D17868042824D0BDF80000B8600004F5
:104300003060C6E902A50920C6F8108070600F4829
:10431000FFF7D8FDFCF7B6FB04462A2811D1002090
:10432000FFF78EFD094D383D28600420FFF788FD1A
:1043300068600820FFF784FDA8600C20FFF780FD6F
:10434000E86020468BE70000D8000020D81D002040
:104350002DE9F05F00276E48B221017507604760C4
:104360008760C7603C463E46B846BB463D4607614F
:10437000FFF778FD0320FFF7B9FD0120FFF714FDDB
:1043800063484FF480611830056045608560C0E97E
:104390000351FFF797FD42F2107A4FF02A09554674
:1043A00001E06D1E05D08020FFF738FD0028F8D011
:1043B0000DB9032004E040F2FF50FFF7EFFC484640
:1043C0002A287ED1DFF848914FF4D57109F11809F8
:1043D000C9F800100821C9F804104021C9E9021BDE
:1043E00009014846C9F81010FFF76CFD494A2A2513
:1043F000516B5046924602E0DAF83410401E11F03C
:10440000450F02D10028F7D102E008B1480702D5D4
:104410000325042003E0480603D52A254020FFF7A2
:10442000BDFC2A2D05D13C4901204FF08048486051
:104430000FE03722C9E900B24022C9E9022B344813
:1044400011011830C9F81010FFF73CFD3720FCF7B8
:10445000A5FA2F4837221830C0E900B24FF480691E
:10446000C0E903B940228260FFF72CFD3720FCF73A
:1044700095FA05462A2849D136E0254D37201835CA
:10448000C5E900B0C5E903B940275E462846AF60DC
:10449000FFF718FD3720FCF781FA2A282ED11F4993
:1044A00048EA01002860C5E903692920C5E9010738
:1044B0002846FFF707FD2A255146486B10F0450FA7
:1044C00000E01BE0F9D0400702D50325042001E0FD
:1044D00040F2FF50FFF762FC2A2D17D10020FFF7B2
:1044E000AFFCC60F0746641C1EB94FF6FF7084422E
:1044F000C3D34FF6FF70844202D31B20BDE8F09F68
:1045000017F0804F02D00448022141602846F5E7A9
:10451000C01D002000800140D80000200000108055
:104520002DE9F84F06460C00154679D074482A212B
:10453000017000278761DFF8D09107617149C9E9EF
:104540000017C9F80870C9F80C70C9F8107048460F
:10455000C9F81470FFF734FC0020FFF72BFC002093
:10456000FFF76EFC800102D50E20BDE8F88F64488D
:104570004068022801D10502760A681EB0F5006F76
:104580004ED205424CD1284601F00DFBDFF8788170
:104590000090A8F114084FF0400BC8E902B74FF49F
:1045A000806A1021C8F810A0C8E900514046FFF702
:1045B00089FC1020FCF7F2F92A28D6D15149C9E923
:1045C0000015009950480901C9F808100221C9E9ED
:1045D00003170121C9F81410FFF7F2FBDFF820914F
:1045E0001121C9E90457C9F82440C8E902B7C8F83D
:1045F00010A0C8E900614046FFF764FC1120FCF7F9
:10460000CDF906462A2879D1D9F80C004F46022860
:1046100050D14FF400493D4F40F22A6810E0FFE7C7
:104620002620A2E74846FFF7F9FB48B15FF00005F6
:10463000FFF742FC44F825006D1C082DF8D3203408
:10464000786B10EA080FEDD00820FFF7E7FB20B1E8
:104650000820FFF7A3FB042087E70220FFF7DEFB1B
:1046600020B10220FFF79AFB02207EE72020FFF70F
:10467000D5FB20B12020FFF791FB062075E74FF412
:1046800000752846FFF7CAFB40B12846FFF786FBB6
:1046900007206AE7FFF710FC01C401E04FF40015A2
:1046A0002846FFF7BBFB0028F4D140F2FF50FFF78C
:1046B00075FB23E001280ED1012148F22A30FFF7D3
:1046C000C5FBB86910B938782A28FAD038782A2872
:1046D00014D0387849E788B9012140F22A30FFF731
:1046E000B5FB0120FFF766FB29462046FCF7A6FA3A
:1046F000074C2046FCF774FA0028FAD0304634E71D
:10470000D8000020FFFF0F00EC1D002000800140BA
:10471000002000102DE9F84F80460C0017461E4679
:104720004CD0DFF828A22A218AF800100025CAF808
:10473000185088488649CAF81050C0E900158560AD
:10474000C56005614561FFF73BFB0020FFF732FBC9
:104750000020FFF775FB800102D50E20BDE8F88F21
:10476000DAF80400022802D107024FEA5828781E1E
:10477000B0F5006F22D2074220D1384601F013FA7B
:10478000DFF8D0B10090ABF1140B1021CBE9007130
:104790004021CBE902150901A9465846CBF8101073
:1047A000FFF790FB1020FCF7F9F805462A2874D192
:1047B000012E72D97E43B6F1007F01D32620CDE7CA
:1047C0000121CAE904616348614ACAF82440C0E98A
:1047D0000026009A5746120182600222C0E903298E
:1047E0004D464161FFF7ECFA4146CBF8001012212B
:1047F000CBF804104021CBE90215D84658464FF4B7
:10480000806BC0F810B053481438FFF75BFB1220E0
:10481000FCF7C4F805462A28C9D1F96840F22A30C5
:10482000022968D182460DE04FF40040FFF7F6FA06
:1048300040B10026FFF740FB44F82600761C082E06
:10484000F8D320344448406B10EA0A0FECD008201B
:10485000FFF7E4FA20B10820FFF7A0FA04207DE773
:104860000220FFF7DBFA20B10220FFF797FA0220BF
:1048700074E72020FFF7D2FA20B12020FFF78EFA4C
:1048800006206BE74FF400763046FFF7C7FA48B1D1
:104890003046FFF783FA072060E72BE0FFF70CFBB9
:1048A00001C401E04FF400163046FFF7B7FA0028C4
:1048B000F4D14FF48070FFF7B1FAB8B1786818B14D
:1048C000022801D0012811D10C21C8E90091C8E9C2
:1048D000039B204840211438C8F80810FFF7F2FA6B
:1048E0000C20FCF75BF805462A282CD140F2FF503B
:1048F000FFF754FA27E001290DD148F22A30FFF7DB
:10490000A5FAB86910B938782A28FAD038782A2850
:1049100019D0387822E7B1B90121FFF797FA0120C1
:10492000FFF748FA31462046FCF788F90B4C204641
:10493000FCF756F90028FAD0B8690028E6D1387893
:104940002A28F9D0E2E7284608E70000D80000202E
:10495000FFFF0F00EC1D0020008001400020001030
:1049600010B5094908600720486040208860002091
:10497000C8604FF4806008610846FFF7A3FABDE8FD
:1049800010400720FCF70AB8D81D00202A2118B1D2
:10499000012801D0022802D1024AD06000E026217D
:1049A00008467047D800002070B5FFF70FFC04469A
:1049B0002A2821D11148FFF7E7FA104D0446686C08
:1049C000010D0FA0FBF76AFC13A0A96CFBF766FCB6
:1049D0002A2C11D1B5F84C000004FFF7C1FF0446A2
:1049E0002A2809D10020FFF793FA04462A2803D188
:1049F0000220FFF7CBFF0446204670BD580400207C
:104A00005344436172644361706163697479203D0A
:104A10002025644D420D0A00200D0A204361726476
:104A2000426C6F636B53697A652025642000000037
:104A30002DE9FC5F4FF0000680460C001746354616
:104A4000009664D0DFF888922A2189F80010C9F80E
:104A50001860A1489F49C9F81060C0E90016866037
:104A6000C66006614661FFF7ABF90020FFF7A2F9C7
:104A70000020FFF7E5F9800102D50E20BDE8FC9F7C
:104A8000D9F80400022802D107024FEA5828781EFC
:104A9000B0F5006F3BD2074239D1384601F083F8B8
:104AA000DFF834A20190AAF1140A4FF0400BCAE9D2
:104AB00002B61021CAE9007189015046CAF81010E7
:104AC000FFF700FA1020FBF769FF2A28D6D18048AB
:104AD000D14680680104CAF800100D21CAF80410FC
:104AE0005046C0F808B04FF48061C0E903617A48CD
:104AF000DA46B3461438FFF7E5F90D20FBF74EFF11
:104B00002A28BBD10020FFF79BF9724E1CE026201B
:104B1000B4E76F48761E80680104C9F800100D21C3
:104B2000C9E902ABC9F804106B484FF4806114382E
:104B3000C9F81010FFF7C6F90D20FBF72FFF2A2840
:104B40009CD10020FFF77CF9C00502D4002EE0D1F3
:104B500000E00EB9292091E71821C9E902ABC9E9A3
:104B600000815D484FF480611438C9F81010FFF7D8
:104B7000A9F91820FBF712FF2A28C9D1DFF85081C4
:104B80005548C8E9047B534AC8F82040C0E90027CB
:104B9000019A01211201C0E9022BC0E904B1464685
:104BA000FFF70EF9F068022854D1DFF8309140F297
:104BB0001A6A24E04FF48040FFF730F9F8B1D8F8D2
:104BC0001000401B202810D281074FEA900700D127
:104BD00000E07F1C002605E02068FFF793F9761CB3
:104BE000241D2D1DBE42F7D309E0002654F82600EF
:104BF000FFF788F9761C082EF8D320342035D9F831
:104C0000340010EA0A0FD5D00820FFF707F920B1C9
:104C10000820FFF7C3F8042030E70220FFF7FEF872
:104C200020B10220FFF7BAF8022027E71020FFF793
:104C3000F5F820B11020FFF7B1F805201EE74FF47A
:104C400000742046FFF7EAF880B32046FFF7A6F885
:104C5000072013E7454601280ED1012144F21A30FE
:104C6000FFF7F4F8A86910B928782A28FAD028782C
:104C70002A281CD0287801E7C0B9012140F21A3057
:104C8000FFF7E4F839462046FCF706F80120FFF765
:104C900091F8134C2046FBF7A3FF0028FAD0A8692F
:104CA0000028E4D128782A28F9D0E0E7FFE740F28D
:104CB000FF50FFF773F86846FCF728FA2A28ABD1B3
:104CC0009DF800100729F6D00629F4D0D6E600009A
:104CD000D8000020FFFF0F00EC1D002000800140E5
:104CE000002000102DE9FC5F07464FF000000C008B
:104CF00016469946054600905ED0DFF8C0A22A22EB
:104D00008AF800208346CAF81800AE49AC4ACAF8AF
:104D10001000C1E900208860C86008614861084649
:104D2000FFF74EF80020FFF745F80020FFF788F85E
:104D3000800102D50E20BDE8FC9FDAF804000228AD
:104D400001D106027F0A701EB0F5006F34D2064210
:104D500032D1304600F027FF01909A4810211438D4
:104D6000C0E900614021C0E9021B09010161FFF7B0
:104D7000A9F81020FBF712FE2A28DCD18F484FF04B
:104D8000400A806801048F48143801600D21C0E991
:104D900002AB41604FF480610161FFF793F80D2091
:104DA000FBF7FCFD2A28C6D1B9F1010F72D909FB26
:104DB00006F8B8F1007F01D32620BCE77F4E70686B
:104DC00018B1012801D0022823D1B06801047D4820
:104DD000143801603721C0E902AB41604FF48061B3
:104DE0000161FFF76FF83720FBF7D8FD2A28A2D121
:104DF000744817211438C0E902ABC0E900914FF4A0
:104E000080610161FFF75EF81720FBF7C7FD2A28D4
:104E100091D16C4819211438C0E900714FF4806AAF
:104E2000C0E903BA40218160FFF74CF81920FBF775
:104E3000B5FD2A28C1D10122C6E904826148604932
:104E40003462C0E900180199B1460901C0E9021BAA
:104E5000C0E904B2FEF7B4FFF16840F21A3002294B
:104E600073D1804627E000BF4FF48040FEF7D6FFA5
:104E700008B3D9F81000401B20280CD35FF00006BF
:104E800054F82600FFF73EF8761C082EF8D320349D
:104E9000203510E057E081074FEA900700D100E08D
:104EA0007F1C002605E02068FFF72CF8761C241DE7
:104EB0002D1DBE42F7D34448406B10EA080FD3D0F3
:104EC0000820FEF7ABFF20B10820FEF767FF0420A3
:104ED00031E70220FEF7A2FF20B10220FEF75EFFBD
:104EE000022028E71020FEF799FF20B11020FEF7DE
:104EF00055FF05201FE74FF400742046FEF78EFF94
:104F000020B12046FEF74AFF072014E74FF48070D7
:104F1000FEF784FF002841D0D9F8040018B1012819
:104F200001D002283AD127480C221438C0E900B237
:104F3000C0E903BA40228260FEF7C4FF0C20FBF7F1
:104F40002DFD2A28C4D129E0FFE74D4601290DD1C6
:104F500044F21A30FEF77AFFA86910B928782A2897
:104F6000FAD028782A2819D02878E4E6B1B90121A6
:104F7000FEF76CFF0120FEF71DFF41462046FBF7C0
:104F80008BFE124C2046FBF72BFE0028FAD0A869B6
:104F90000028E6D128782A28F9D0E2E740F2FF502D
:104FA000FEF7FCFE6846FCF7B1F82A2890D19DF880
:104FB00000100729F6D00629F4D0BCE6D80000205E
:104FC000FFFF0F00EC1D00200080014000200010BA
:104FD00010B586B0012141F20400FEF72DFEE0205D
:104FE000ADF8140018208DF817000320194C8DF827
:104FF000160005A92046FBF725FFE0212046FBF718
:105000009DFF0020ADF800004FF48271ADF8021052
:10501000ADF804000221ADF806100121ADF808102A
:105020004902ADF80A103821ADF80C10ADF80E00A9
:105030000720094CADF810006946204600F0A6F99B
:105040000121204600F062F8FF2000F007F806B0CA
:1050500010BD0000000801400030014000210C4A52
:1050600003E0491CC9B2C82909D813899B07F8D5A0
:105070009081002005E0401CC0B2C82801D9002062
:1050800070471189C907F6D09089C0B270470000F7
:105090000030014002460548018821F038010180B6
:1050A000018811430180012100F030B80030014037
:1050B00000210E4A03E0491CC9B2C8290BD8B2F836
:1050C00008389B07F7D5A2F80C08002005E0401C23
:1050D000C0B2C82801D900207047B2F80818C90723
:1050E000F5D0B2F80C08C0B27047000000300040A4
:1050F00005490A8822F038020A800A8802430A8099
:105100000121014800F002B8003800400029018860
:1051100002D041F0400101E021F0400101807047E0
:1051200008B501211020FEF787FD0C20ADF8000026
:1051300010208DF8030003208DF80200694607480F
:10514000FBF780FEFFF744FF00F07CF8044908807D
:1051500081B204A0FBF7A2F808BD000000100140D6
:1051600038010020466C61736849443D3A25780D4A
:105170000A0000002DE9F05F06460C46924600202A
:10518000FFF788FF4FF40470B4FBF0F500FB154700
:1051900029460120FBF7ECFC00F08CF8DFF8A0B00A
:1051A0000021CBF88811D420FFF758FF0020FFF72B
:1051B00055FF380AFFF752FFF8B2FFF74FFF002004
:1051C000FFF74CFF00244FF00109D8462CE0FF20E8
:1051D000FFF744FF641C06F8010BA4B2E0194FF47A
:1051E0000471B0FBF1F201FB1200E8B9C8F8889134
:1051F0006D1CB5F5805F20D229460120FBF7B8FC75
:1052000000F058F80020C8F88801D420FFF726FFE6
:105210000020FFF723FF0020FFF720FF0020FFF70B
:105220001DFF0020FFF71AFF5445D0D3C8F888911E
:10523000BDE8F05F3820FFF72DBFBDE8F09F00000C
:105240000000224270B500F035F80D4E00243460A5
:105250009F20FFF703FFA520FFF700FF44EA00258A
:10526000A520FFF7FBFE40EA0504A520FFF7F6FEA8
:10527000A520FFF7F3FE01203060204670BD00003E
:105280008801224210B50A4C00202060D720FFF789
:10529000E5FE0020FFF7E2FE0020FFF7DFFE002022
:1052A000FFF7DCFEFF20FFF7D9FE0121216010BDD2
:1052B000880122422DE91040FFF7E4FF0006FBD5EC
:1052C00010BD00002DE9F74F06460D460020FFF700
:1052D000E1FE4FF4047BB5FBFBF40BFB14572146B6
:1052E0000120FBF745FCFFF7E5FFDFF89C804FF05E
:1052F0000009C8F888918420FFF7B0FE0020FFF76E
:10530000ADFE380AFFF7AAFEF8B2FFF7A7FE0025A8
:105310004FF0010A29E03078FFF7A0FE6D1C761CE3
:10532000ADB2E819B0FBFBF20BFB1200E8B9C8F80C
:1053300088A1A1B20120FBF7F7FB641CB4F5805FE4
:105340001FD221460120FBF713FCFFF7B3FFC8F87B
:1053500088918420FFF782FE0020FFF77FFE002067
:10536000FFF77CFE0020FFF779FE02988542D2D33A
:10537000C8F888A1A1B203B0BDE8F04F0120FBF747
:10538000D3BBBDE8FE8F00000000224270B502884A
:105390004D8802F441530A888C88CE882A433443CE
:1053A0000D8922434C892A438D892243CC892A4383
:1053B00022431A430280828B22F400628283098A8C
:1053C000018270BD70470000214900200A6842F444
:1053D00080320A604FF4A0630A68401C12F4003F58
:1053E00001D19842F8D10868800330D51948026885
:1053F00042F010020260026822F0030202600268BA
:1054000042F00202026048684860486848604868A4
:1054100040F480604860486820F47C104860486828
:1054200040F4E8104860086840F080700860086840
:105430008001FCD5486820F003004860486840F0CF
:10544000020048604868C0F381000228FAD1704722
:1054500000100240002002400D484FF47A710068AD
:10546000B0FBF1F0B0F1807F11D220F07F41491EF6
:105470004FF0E0204161074AF02111700021816165
:1054800007210161016921F0010101617047FEE717
:105490001400002023ED00E010B50F48016841F032
:1054A0000101016041680D4A1140416001680C4AE8
:1054B00011400160016821F480210160416821F4FC
:1054C000FE0141604FF41F018160FFF77DFF054938
:1054D0004FF00060086010BD001002400000FFF8AF
:1054E000FFFFF6FE08ED00E0FEE7000070B5104E8D
:1054F00000243460142000F0BDFC0E4D0120C5F8DE
:1055000098010D490860306004E0641CE4B2322068
:1055100000F0BCFCD5F81C0108B9C82CF5D3142048
:1055200000F0A8FCC82C01D3012070BD002070BD84
:10553000B081224200002242B081214270B586B083
:1055400001213C20FEF778FB01218803FEF768FB70
:105550004FF46040ADF8000003248DF8024018209D
:10556000264E8DF8030069463046FBF76BFCB514F8
:10557000ADF800508DF8024010208DF80300694608
:105580003046FBF75FFCADF8005069461C48FBF75E
:1055900059FC40201B4CADF8000069462046FBF743
:1055A00051FC48208DF803008020ADF800006946CA
:1055B0002046FBF747FC0020ADF804004FF4827151
:1055C000ADF806106115ADF80C00ADF80E102021F5
:1055D000ADF81010ADF80800ADF80A00ADF81200F3
:1055E0000720094CADF8140001A92046FFF7CEFEB4
:1055F00001212046FFF78AFD06B070BD000C014076
:1056000000140140001001400038004070B5124CF9
:10561000054600BFD4F81C010028FBD02020FFF76E
:1056200067FD0126C4F898610C4C0020206003201F
:10563000FFF73EFD2846FFF73BFDFF20FFF738FD53
:105640000502FF20FFF734FD284485B226601020B4
:10565000FFF74EFD284670BD00002242B081214276
:1056600010B5FFF743FF4FF40261002000F00CF982
:10567000174C00BFD4F81C010028FBD02020FFF7F6
:1056800037FD0020C4F898014D20FFF711FDEA20F6
:10569000FFF70EFD6D20FFF70BFD5420FFF708FD0F
:1056A0000020FFF705FD0020FFF702FD0020FFF7B7
:1056B000FFFC0020FFF7FCFC962000F0DBFB012044
:1056C000C4F89801BDE810400820FFF79FBF000014
:1056D00000002242C0F1FE0000EB002081B20B204E
:1056E00000F0D2B870B5FFF701FF42F220010B20A5
:1056F00000F0CAF8FE20FFF7EDFF4FF40261002032
:1057000000F0C2F8404C00BFD4F81C010028FBD0C8
:105710002020FFF7EDFC002504F5CC742560532014
:10572000FFF7C6FCEF20FFF7C3FC6E20FFF7C0FCBD
:105730002420FFF7BDFC0020FFF7BAFC0020FFF794
:10574000B7FC0020FFF7B4FC0020FFF7B1FC642099
:1057500000F090FB0126266025604520FFF7A8FC9D
:105760007820FFF7A5FC6920FFF7A2FC7420FFF763
:105770009FFC0020FFF79CFC0020FFF799FC002015
:10578000FFF796FC0020FFF793FC642000F072FB0B
:10579000266025605320FFF78BFCEF20FFF788FC85
:1057A0006E20FFF785FC4420FFF782FC0020FFF706
:1057B0007FFC0020FFF77CFC0020FFF779FC002035
:1057C000FFF776FC642000F055FB2660256045203D
:1057D000FFF76EFC7820FFF76BFC6920FFF768FC91
:1057E0007420FFF765FC0020FFF762FC0020FFF744
:1057F0005FFC0020FFF75CFC0020FFF759FC6420F1
:1058000000F038FB266070BD000022422DE9F04117
:105810001C4D00BFD5F81C010028FBD0FF20FFF76E
:1058200047FC002440F604073E1F0BE039460020E9
:1058300000F02AF8022000F01DFB2046641CE4B2B0
:10584000642804D80020FFF7E1FEB042EED1D5F87D
:105850001C010028FBD000244FF4184507E003206A
:1058600000F012F82046641CE4B2642805D8032036
:10587000FFF7CCFE2946A842F1D1BDE8F041142043
:1058800000F0F8BA000022422DE9F041114C064622
:105890000D4600BFD4F81C010028FBD02020FFF7E4
:1058A00027FC0127C4F898710B4C002020600220CF
:1058B000FFF7FEFB3046FFF7FBFB280AFFF7F8FB7C
:1058C000E8B2FFF7F5FB2760BDE8F0411020FFF7D5
:1058D0000FBC000000002242B0812142704700004E
:1058E00010B504460A464078012304F1300100F067
:1058F00016FD08B1032010BDB4F82E02A0F52A4110
:10590000553901D0022010BD94F86610D4F86720F4
:10591000094841EA0221B0EB012F08D094F8821027
:10592000D4F8832041EA0221B0EB012F01D10020FD
:1059300010BD012010BD00000046415400E0401C95
:1059400002780AB18A42FAD1007870472DE9F04115
:105950000B46016816460D78303D092D05D84A786A
:105960003A2A02D1891C016000E0002500271F604F
:10597000022D02D30B20BDE8F081784850F8254075
:105980000CB90C20F7E71C60207848B1607800F073
:10599000D4FCC10704D10EB140070ED40020EAE7C1
:1059A0002770E8B2B846607000F0ADFCC10701D0C6
:1059B0000320E0E71EB1400701D50A20DBE70026FF
:1059C00031462046FFF78CFF01280DD104F5F77012
:1059D000017900297DD0017AD0F8090041EA00263A
:1059E00031462046FFF77CFF032801D10120C2E7A2
:1059F00000286ED1B4F83B00B0F5007F69D1B4F84F
:105A000046E0BEF1000F05D194F85400D4F85510CB
:105A100040EA012EC4F81CE094F84000E070012830
:105A200001D0022855D10EFB00FC94F83D00A07077
:105A300000284ED0411E08424BD1B4F841002081CD
:105A400083B2180745D1B4F8430028B994F8500040
:105A5000D4F8511040EA0120E28F72B302EB0C013E
:105A600001EB1311884234D3A578401AB0FBF5F04E
:105A700018B3012540F6F677B84200D302254FF659
:105A8000F677B84200D303253144A162801CB118D7
:105A9000A0612162032D09D17BB994F85C10D4F880
:105AA0005D20800041EA022161620DE02BB161447A
:105AB0006162022D02D1400006E00AE000F001011F
:105AC00000EB400001EB500000F2FF10BEEB502F46
:105AD00001D20D204FE74FF0FF30C4E90380474665
