:020000040800F2
:10000000A8E1002025020008751E0008C91100089B
:100010001D1E0008510A0008796800080000000051
:10002000000000000000000000000000A55C0008C7
:10003000F50D000800000000370700084D290008F2
:100040003F0200083F0200083F0200083F0200088C
:100050003F0200083F0200083F0200083F0200087C
:100060003F0200083F0200083F0200083F0200086C
:100070003F0200083F0200083F0200083F0200085C
:100080003F0200083F0200083F0200083F0200084C
:100090003F0200083F0200083F0200083F0200083C
:1000A0003F0200083F0200083F0200083F0200082C
:1000B0003F0200083F0200083F0200083F0200081C
:1000C0003F0200083F0200083F0200083F0200080C
:1000D0003F0200083F0200083F0200083F020008FC
:1000E0003F0200083F0200083F0200083F020008EC
:1000F0003F0200083F0200083F0200083F020008DC
:100100003F0200083F0200083F0200083F020008CB
:100110003F0200083F0200083F0200083F020008BB
:100120003F0200083F0200083F0200083F020008AB
:1001300000F002F800F067F80AA090E8000C824492
:100140008344AAF10107DA4501D100F05CF8AFF26F
:10015000090EBAE80F0013F0010F18BFFB1A43F0A5
:100160000103184718A1000038A100000A444FF00D
:10017000000C10F8013B13F0070408BF10F8014B06
:100180001D1108BF10F8015B641E05D010F8016B4B
:10019000641E01F8016BF9D113F0080F1EBF10F8AF
:1001A000014BAD1C0C1B09D16D1E58BF01F801CBD2
:1001B000FAD505E014F8016B01F8016B6D1EF9D555
:1001C0009142D6D37047000000230024002500266A
:1001D000103A28BF78C1FBD8520728BF30C148BFAA
:1001E0000B607047642900F0B980782900F0EE8038
:1001F000732900F04D82002070471FB5AFF30080D7
:100200001FBD10B510BD00F059FA1146FFF7F5FFFC
:1002100007F0FAFD00F077FAFFF7F3FF06F026FD8E
:10022000704700000948804709480047FEE7FEE79D
:10023000FEE7FEE7FEE7FEE7FEE7FEE7FEE7FEE796
:1002400004480549054A064B70470000715D0008E7
:1002500031010008A8CF0020A8E10020A8D100208B
:10026000A8D1002072B6704762B67047EFF31080D5
:1002700072B6704780F31088704730BF704720BF58
:100280007047B0FA80F0704790FAA0F0B0FA80F0B2
:10029000704790FAA0F07047704700000FB4054A0D
:1002A000054910B503AB7944029800F0CCF910BCB5
:1002B0005DF814FB280000208379000070B5044627
:1002C000856900683026C10600D42026C00709D100
:1002D00006E0D4E9012130469047206A401C2062A4
:1002E0006D1EF6D570BD70B5044685690068C007FF
:1002F00009D006E0D4E9012120209047206A401C63
:1003000020626D1EF6D570BD70B505460C46012AFB
:1003100001D101200BE02868800600D5EA690020A1
:1003200000E0401C904202D2215C0029F9D1A96969
:100330002618091AA961296A014428462962FFF78B
:10034000BDFF04E0D5E9012114F8010B9047B44248
:10035000F8D32846FFF7C7FF70BD00002DE9F04134
:100360008046002610687529414614A511D0AFF3C8
:100370000080002802DA404211A508E0D8F80010F9
:100380008A0701D50FA502E0490704D50EA501266D
:1003900001E0AFF30080002408F1240704E000F03E
:1003A0007BF930313955641C0028F8D133462A4690
:1003B00021464046BDE8F04100F0E9B800000000E9
:1003C0002D0000002B0000002000000070B5044646
:1003D0000D4621461068AFF300802168090502D55B
:1003E000104A7A4402E00F4A7A440E32002104F1A6
:1003F000240306E000F00F064FEA1010965D5E54ED
:10040000491C0028F6D120680023000704D5702D70
:1004100002D009B1113202232046BDE8704000F03D
:10042000B6B80000F89C00002DE9F05F4FF0000B1B
:10043000044689464FF0010AC0F820B02046E16822
:10044000884700287DD0252802D0D4E9012185E005
:10045000464F00267F442046E1688847202805460D
:1004600007DB312D05D2781910F8200C08B10643AE
:10047000F1E7B00701D526F00406C4F81CB0002748
:10048000C4F818B02A2D10D1204659F8041B04EBEB
:1004900087029161E1688847012F054628D1E0690C
:1004A000002830DA26F020062DE0A5F13000524673
:1004B0000A2801461AD2CAB104EB87009246804648
:1004C000816108E0D8F8180000EB800005EB4000DF
:1004D0003038C8F818002046E1688847054650467D
:1004E000A5F130010A2901D20028EBD1012F0AD051
:1004F0002E2D08D12046E16888477F1C0546022F33
:1005000046F02006BEDBA069002803DA404246F030
:100510000106A061F00701D026F010068DB1A5F10B
:100520004100192802D8203546F400664A4629467B
:10053000204626604E46FFF755FE60B1012804D1E3
:1005400000E010E006F1040978E7F61D26F0070048
:1005500000F1080972E7D4E9012128469047206A92
:10056000401C20626AE7206ABDE8F09FAE9C000054
:10057000704770477047704710B500F095F80068F5
:1005800010BD10B5044600F08FF8046010BD2DE9D1
:10059000F0470D4604469246994600F1240801684A
:1005A000880604D5E06921F01001216000E00120F7
:1005B0000027A84200DD471BA1697A1902EB090058
:1005C000081AA0612068C00602D42046FFF776FE14
:1005D000002608E0D4E901211AF806009047206AB5
:1005E000401C761C20624E45F4DB2068C0060AD50C
:1005F0002046FFF763FE06E0D4E901213020904752
:10060000206A401C2062381EA7F10107F4DC07E0D5
:10061000D4E9012118F805009047206A401C2062A7
:10062000281EA5F10105F3DC2046FFF75CFE2168DA
:100630000220090600D40120BDE8F08701694A1CA8
:1006400002610878704710B50C46194690B0CDE9A4
:10065000024200220692044A7A44CDE9042001A80D
:10066000FFF7E2FE10B010BDE1FFFFFF10B54369D8
:1006700013B1AFF3008001E0FFF746FE012010BD8B
:10068000126800F124010A7000224A700122EDE78D
:1006900011684FF0FF32E9E74FF00A01B0FBF1F2C9
:1006A00002FB110110467047014870477047000077
:1006B00048CF00200048704748CF00207546FFF71C
:1006C000F9FFAE4605006946534620F0070085460F
:1006D00018B020B5FFF7B4FDBDE820404FF000068C
:1006E0004FF000074FF000084FF0000B21F007011A
:1006F000AC46ACE8C009ACE8C009ACE8C009ACE85D
:10070000C0098D4670470446AFF300802046FFF7CE
:1007100083FD000018484FF0FF010170002080F3B6
:1007200009881648016881F3088815484FF0805100
:10073000016062B6FEE772B6EFF3098028B1203897
:1007400080E8F00F0F490968086000B50E4880473F
:100750005DF804EB0D480E490A78027009480D490E
:100760000A680260106890E8F00F203080F3098872
:100770004EF0040E62B6704722ED00E0300000201B
:1007800004ED00E0C8000020312800086A000020C5
:100790006B000020CC0000200029816802D041F0CD
:1007A000010101E021F00101816070470D4910B5A0
:1007B000884202D1012144150AE00B49884202D146
:1007C0000121041504E0094988420AD10121CC0322
:1007D000204603F0A1FE2046BDE81040002103F0B2
:1007E0009BBE10BD0024014000280140003C014098
:1007F000014689680020490700D50120704701465D
:1008000089680020090700D50120704730B542688B
:100810000E4B0C791A400B6842EA042213434360E2
:1008200082680B4B4D791A40D1E9024342EA4502F6
:10083000234313438360C26A097C22F47002491E79
:10084000C9B242EA0151C16230BD0000FFFEF0FFB3
:10085000FDF7F1FF816841F0080181607047816810
:1008600041F00401816070472DE9FC4705F080FAF2
:1008700005F062FA4FF0E026306920F002003061A6
:100880004FF4E131482007F061FD01F0A9FA00F0D2
:1008900063FF01F0BDF8002007F01CFB05F008F82D
:1008A00006F014F800F048FD3D48006880474FF01E
:1008B00000084FF478493B4F3B4C4FF4FA754FF02A
:1008C000010A1FE0A7F8009038A31022CDE9002309
:1008D000134608220A21142001F059FAC4F88C8129
:1008E000284606F08FFC38A31022CDE900231346DA
:1008F00008220A21142001F04AFAC4F88CA12846E3
:1009000006F080FC04F0C0FC2A28DBD107F066FC6E
:1009100006F0F4FE324C0020216806F02BFF012087
:10092000616806F027FF4FF6FF7419E02DA310222F
:10093000CDE900231346C82232213C2001F027FADA
:10094000C82006F05FFC4223F02232213C200094B4
:1009500000F0F2FF002310226E21142007F0B8FDF2
:1009600007F048F90028E1D105F088FF10B920A070
:10097000FFF794FC06F012F924A0FFF78FFC06F0B5
:1009800037F8014628A0FFF789FC06F073F82BA082
:10099000FFF784FC306940F002003061BDE8FC875D
:1009A00040010020D0000020008021425344204319
:1009B0006172642046696C6521202020202020205F
:1009C0002020202020000000506C656173652043CA
:1009D0006865636B2053442043617264210000000A
:1009E00074010020466F6E74204572726F72210090
:1009F0005653313030332048415244574152455FBD
:100A000052657365744F6B210D0A000056533130E7
:100A1000303320534F4654574152455F52657365FA
:100A2000744F6B210D0A0000565331303033205281
:100A3000616D3A3058253034580D0A00537973747B
:100A4000656D20496E6974204F766572210D0A002C
:100A5000FEE7000010B504490020086000F016F819
:100A6000BDE8104000F002B82C00002010B5FFF7E0
:100A7000FDFB04461021044801F0D1F92046BDE8F1
:100A80001040FFF7F7BB0000D00B002070474FF07D
:100A9000E02080697047000070B5374905462A2478
:100AA000486B10F0450FFBD0410702D5032404200A
:100AB00003E0C00704D00124204603F0DFFD59E025
:100AC00003F016FEA8422BD140F2FF5003F0D6FDF2
:100AD000002003F025FE294908424BD0002801DA06
:100AE0001C2070BD410001D5092070BD810001D5D9
:100AF0000A2070BDC10001D50B2070BD010101D5D8
:100B00000C2070BD410101D50D2070BDC10101D582
:100B10000E2070BD010201D50F2070BD410201D52C
:100B2000102070BD810201D5112070BDC10201D518
:100B3000122070BD010301D5132070BD410301D502
:100B4000142070BD810301D5152070BDC10301D5EE
:100B5000162070BD010401D5172070BD410401D5D8
:100B6000182070BD810401D5192070BD000701D582
:100B70001A2070BD204670BD0080014008E0FFFDD6
:100B800010B50B492A24486B10F0450FFBD04107E4
:100B900002D50324042003E0C00705D00124204629
:100BA00003F06CFD204610BD40F2FF50F8E7000056
:100BB0000080014070B50C46194906462A25486B4D
:100BC00010F0450FFBD0410702D50324042003E0B9
:100BD000C00705D00124204603F050FD204670BD1B
:100BE00003F086FDB04213D140F2FF5003F046FD02
:100BF000002003F095FD10F4604F03D14FEA104040
:100C000020800BE0810401D5132070BD410401D583
:100C1000102070BD000401D50F2070BD284670BDA6
:100C20000080014070B506460C4604F0B3FFB4F5F1
:100C3000805F18D20C4D0020C5F88801012E01D12B
:100C4000832000E0862004F079FEC4F3871004F0CE
:100C500075FEA006000E04F071FE002004F06EFE8A
:100C60000120C5F8880170BD0000224270B506461B
:100C70000C4604F08FFF0D4D0020C5F88801012EB1
:100C800001D1532000E0552004F058FEC4F3871032
:100C900004F054FEA006000E04F050FE002004F004
:100CA0004DFE0120C5F8880170BD00000000224201
:100CB0000349C20002D5C1F8040470474860704778
:100CC000000002400029016802D041F0010102E069
:100CD0004FF6FE721140016070470000024600208E
:100CE0000549D30002D5D1F8001400E0096811428B
:100CF00000D00120704700000000024070B502687B
:100D000047F6F0739A430D6A8B680C692B43D1E95F
:100D1000056534432343CC692B432343D1E909546C
:100D20002B43234313430360CA6842600A6882600E
:100D30004968C16070BD000070B506468CB00D46B4
:100D40001148FFF7B5FF114C00212046FFF7BAFF0D
:100D50000F48CDE901060020A908CDE90301802153
:100D6000CDE90501890007918900CDE908108900C6
:100D7000CDE90A1001A92046FFF7C0FF0121204656
:100D8000FFF7A0FF0CB070BD00F00010440402405B
:100D90008080014070B506468CB00C461248FFF7C3
:100DA00087FF124D00212846FFF78CFF1048CDE940
:100DB000010610200390A008049000208021CDE9B6
:100DC0000501890007918900CDE908108900CDE966
:100DD0000A1001A92846FFF791FF01212846FFF7D5
:100DE00071FF0CB070BD000000F000104404024020
:100DF0008080014070472DE9FC4F07460024032006
:100E000088461546A0EB420647E0A8EB050081B2F4
:100E100001903819824680B200F050FDA8EB040022
:100E200081B200907819814680B200F047FD08EB4E
:100E30000400834681B21FFA89F000F03FFD08EB01
:100E40000500814681B21FFA8AF000F037FD1FFAD3
:100E500089F1381B814680B200F030FD781B824654
:100E60001FFA8BF180B200F029FD019881B21FFAC0
:100E700089F000F023FD009881B21FFA8AF000F09B
:100E80001DFD641C002E03DA06EB8406B61D04E08B
:100E9000601B06EB80060A366D1EAC42B5DDBDE870
:100EA000FC8F00004FF0204202EB80000029016817
:100EB00002D041F0010101E0014A11400160704798
:100EC000FEFF0F00F0B5D0E9024241682143D0E9AE
:100ED00004341A431143D0E9062321431143194333
:100EE000D0E9082311431943D0E90A2311431943D8
:100EF000026B036811434FF0204242F823108168CF
:100F0000082906D1016802EB81010B6843F0400318
:100F10000B60416BD1E901431D020B68D1E9036706
:100F200043EA041345EA06452B4343EA0755D1E952
:100F3000054345EA04610468194302EB84035960E0
:100F4000C16AB1F5804F15D1816BD1E901431D0212
:100F50000B68D1E9046743EA041345EA065489693A
:100F60002343006843EA07630B4302EB8000C0F8A9
:100F70000431F0BD00686FF0704102EB8000C0F8F2
:100F80000411F0BD2DE9FC5F00240E4668462146A1
:100F9000224606C0494F4FF0080B1020C7E900B0A9
:100FA0004FF0400AC7E902A44FF480682546C7F80D
:100FB0001080384603F0F6FB1020FFF76DFD2A285D
:100FC00033D13F48B946806801043960C7E902A5BA
:100FD000372138467960C0F810804746374803F01B
:100FE000E1FB3720FFF758FD2A281ED13348354949
:100FF0001430C0E9001B302181600221C0E90315D3
:101000000121416103F04CFB3321C9E90051C9E9D9
:1010100002A52A48C9F8107003F0C4FB3320FFF77B
:101020003BFD05462A280CD02846BDE8FC9F5046CB
:1010300003F064FB60B103F0AFFB47F82400641CCD
:1010400006E0DFF884804FF4001A6F4640F22A6908
:10105000D8F8340010EA090FE9D0082003F04EFB5D
:1010600020B1082003F00AFB0420DEE7022003F091
:1010700045FB20B1022003F001FB0220D5E7202030
:1010800003F03CFB20B1202003F0F8FA0620CCE767
:101090004FF40074204603F031FB20B1204603F0EA
:1010A000EDFA0720C1E740F2FF5003F0E7FA00989D
:1010B00000BA7060019800BA3060B5E700250020E2
:1010C000D4000020FFFF0F0000800140F0B5CB7876
:1010D0000022DC0603F00F0301D58C7823430C8833
:1010E0004FF00F0C14F0FF0F4FF0010E1AD00668EE
:1010F0000D880EFA02F42540A5420FD195000CFA96
:1011000005F726EA070703FA05F6CD783E43282DB2
:1011100001D1446102E0482D00D10461521C082A2B
:10112000E6D306600A88FF2A1ED946685FF00002EF
:1011300002F108050EFA05F40D882540A5420FD1ED
:1011400095000CFA05F726EA070703FA05F6CD78AD
:101150003E43282D00D14461CD78482D00D1046153
:10116000521C082AE4D34660F0BD0000F0B5144CD0
:10117000002801DAE36900E06368450D2E0185B2BD
:10118000C0F30157B540C0F30342032F06D123F04B
:101190007062636823F07063636008E0C60203D581
:1011A00003269640B34300E0AB4343F0706201B1C5
:1011B0002A43002801DAE261F0BD6260F0BD000060
:1011C000000001400161704710B5FFF729F8094C94
:1011D000216809A0FFF762F861680AA0FFF75EF8CE
:1011E000A1680BA0FFF75AF861690CA0FFF756F849
:1011F000FEE7000028ED00E0434653523A253858F8
:101200000D0A0000484653523A2538580D0A00008E
:10121000444653523A2538580D0A0000414653526D
:101220003A2538580D0A00002DE9F0412B4C0646AE
:101230000F464FF400352946204600F071F900288A
:10124000F9D10121204600F057F9254D20462946C5
:1012500000F058F80028F9D0224800220088C1B2D6
:10126000204600F0CEF9204D2046294600F04AF8ED
:101270000028F9D03146204600F0CBF91A4DAD1CBC
:101280002946204600F03EF80028F9D0394620468D
:1012900000F0BFF92946204600F034F80028F9D0C4
:1012A0000121204600F032F90121204600F024F906
:1012B0000022A021204600F0A4F91421204600F0CD
:1012C0009BF98007F0D50949204600F027F8204611
:1012D000BDE8F041012100F019B9000000540040C0
:1012E0000100030036010020820007000004001006
:1012F0000029018802D041F4806101E021F480617D
:10130000018070470246938A0020128B43EA024311
:1013100023F07F42914300D101207047C94381826D
:1013200070470029018802D041F0010101E021F05D
:1013300001010180704700007FB50121082003F002
:10134000DFF80121480503F0CFF801210220FFF763
:101350000DFF4FF44070ADF80C0003208DF80E0027
:101360001C208DF80F0003A91248FFF7AFFE0020E4
:10137000ADF804004BF6FF70ADF80600A024ADF800
:1013800008404FF48060ADF80A000001ADF80C0091
:1013900009480A4D009001212846FFF7C2FF69461F
:1013A000284600F0CDF801212846FFF7A1FF0448A8
:1013B00004807FBD000C0140801A060000540040EC
:1013C000360100202DE9F041324E80464FF40034C2
:1013D0002146304600F0A4F80028F9D1012130461A
:1013E00000F08AF82C4C30462146FFF78BFF00288E
:1013F000F9D02A4D00222888C1B2304600F001F908
:10140000274F30463946FFF77DFF0028F9D00121EC
:101410003046FFF786FF4146304600F0FAF8204F8D
:10142000BF1C39463046FFF76DFF0028F9D0012177
:10143000304600F061F821463046FFF763FF002890
:10144000F9D028880122C1B2304600F0DAF8124CF7
:10145000641C21463046FFF755FF0028F9D00021D3
:101460003046FFF745FF0121304600F04FF80A4CA7
:101470003F3421463046FFF745FF0028F9D030467B
:1014800000F0BCF8044601213046FFF731FF20464A
:10149000BDE8F08100540040010003003601002047
:1014A000820007002DE9F041024600200D46044667
:1014B000561808E00702301B401EC0B2FFF782FF3B
:1014C000641C3844E4B2AC42F4D3BDE8F0812DE9A9
:1014D000F04105460E461746002409E0E00026FAD2
:1014E00000F0C1B22819C0B2FFF79EFE641CE4B23E
:1014F000BC42F3D3BDE8F0810029018802D041F459
:10150000807101E021F48071018070470029018819
:1015100002D041F4007101E021F4007101807047B4
:10152000024600200B0F21F07F4101D0143201E070
:10153000090C183212680A4200D0012070470000DE
:1015400070B50446808886B00D4620F03F0601A89D
:1015500002F0EEFF26490398B0FBF1F189B20E4389
:10156000A680228822F001022280224B2A689A4219
:101570001CD85200B0FBF2F080B2042800D2042044
:10158000491C2184A083208840F00100208020880D
:101590004FF6F5310840A9886A891143014321803B
:1015A000A88929890843208106B070BDEB88A3F57E
:1015B0003F46FF3E05D102EB4202B0FBF2F080B2A3
:1015C00008E002EBC20303EB0212B0FBF2F080B2C0
:1015D00040F48040020501D140F001004FF49672C2
:1015E00051434FF47A72B1FBF2F140F40040C7E787
:1015F00040420F00A0860100405A7047008AC0B2E6
:10160000704712B141F0010101E001F0FE010182D9
:10161000704701827047000070B5044640482A2593
:10162000806801043F4801600D21416040218160D4
:101630000021C1604FF48061016103F0B3F83A49C1
:10164000486B10F0450FFBD0410702D5032404205E
:1016500003E0C00705D00124204603F00FF8204620
:1016600070BD03F045F80D282ED140F2FF5003F075
:1016700005F8002003F054F8C0F3432121702B49F2
:1016800008424BD0002801DA1C2070BD410001D572
:10169000092070BD810001D50A2070BDC10001D5AF
:1016A0000B2070BD010101D50C2070BD410101D599
:1016B0000D2070BDC10101D50E2070BD010201D504
:1016C0000F2070BD410201D5102070BD810201D5EF
:1016D000112070BDC10201D5122070BD010301D5DA
:1016E000132070BD410301D5142070BD810301D5C5
:1016F000152070BDC10301D5162070BD010401D5B0
:10170000172070BD410401D5182070BD810401D59A
:10171000192070BD000701D51A2070BD284670BD84
:10172000D4000020002500200080014008E0FFFDDB
:10173000074A41069369074843F0010393614268F1
:1017400022F0E062426042680A4342607047000053
:10175000001002400000014070B586B001214FF436
:10176000027002F0CDFE4FF4004002F0A7FE012609
:10177000ADF8006000248DF8034069461548FFF776
:10178000A5FC154D2846FFF711F88DF80840019487
:101790008DF809404FF46020CDE903048DF8146002
:1017A00001A92846FFF732F801212846FEF7F4FF89
:1017B0002846FFF74FF82846FFF721F80028FAD10E
:1017C0002846FFF74CF82846FFF712F80028FAD110
:1017D00006B070BD000C01400024014070B50A49FC
:1017E000064608884D88002445432146204600F0DF
:1017F000D7F922204FF0C0410880044801E006805C
:10180000641CAC42FBD370BDBC240020000002600D
:10181000044800218171F02101804FF4A0714180C2
:1018200070470000BC2400202DE9FE4F00245F1A01
:101830008B46A2EB0008611E26468146B8F1000FD8
:1018400002DD4FF0010002E003D14FF000000190F3
:1018500002E0C8F100080191002F02DD4FF0010005
:1018600002E003D14FF00000009001E07F420091C0
:10187000B84501DD454600E03D46681C4FF0000AD2
:10188000029015E01FFA8BF11FFA89F000F016F8AC
:1018900044443E44AC4202DD0199641B8944AE429B
:1018A00002DD0099761B8B440AF101001FFA80FAD1
:1018B00002998A45E6DDBDE8FE8F000000B500F024
:1018C0006FF922204FF0C041088002480249008889
:1018D000088000BDD00000200000026000B501219A
:1018E00097B0080202F0F4FD0220019000200521CB
:1018F000CDE902014FF08051CDE906010490059039
:1019000008900821CDE909011021CDE90B100E90B6
:101910000F900902CDE9100112901390149001A8C4
:101920001590169008A8FFF7CDFA01210020FFF7C7
:10193000B9FA17B000BD000070B5141A5E1A641C25
:10194000761CA4B2B6B2049D00F036F922204FF006
:10195000C04108800021074A08E0002002E015800D
:10196000401C80B2A042FAD3491C89B2B142F4D3E0
:1019700070BD00000000026038B50121602002F057
:10198000BFFD10208DF8030003248DF802404002B3
:101990001D4DADF8000069462846FFF797FB8DF80E
:1019A000024018208DF803004CF23370ADF80000AF
:1019B00069462846FFF78AFB4FF68070ADF80000B5
:1019C00069461248FFF782FB8020ADF800006946A7
:1019D0002846FFF77BFBEC14ADF80040694628462B
:1019E000FFF774FB10212846FFF7ECFB2021284667
:1019F000FFF7E8FB80212846FFF7E4FB2146284655
:101A0000FFF7E0FB38BD0000001401400018014062
:101A10002DE9F047FFF7B0FFFFF760FF322005F038
:101A2000F1FB00264FF0C04426804F4D01272F8048
:101A3000322005F0E7FB002000F0A6F84B49888033
:101A400026802F80278043F63F3028800221218086
:101A5000201528800C2020804FF00709A5F8009061
:101A60000D20208006222A800E2020804FF448502E
:101A700028801E202080BB2028800320208046F65E
:101A8000642028800F2020802E80442020804FF466
:101A90006F432B80452323802E804623238040F2F2
:101AA0003F132B80302323802E803123238040F26C
:101AB00006732B803223238040F206232B804FF0C5
:101AC0003308A4F80080D3012B803423238029809D
:101AD000352121802E803621218040F20771298016
:101AE00037212180790229803A21218040F608118E
:101AF00029803B21218040F60D71298028212180F9
:101B00002A802F21218041F2EB212980262121806A
:101B10004FF4E0412980202121804BF2E30129800C
:101B20002721218028802E20208047F645602880AC
:101B3000102020802E800F2005F064FB11202080D3
:101B400046F678002880A4F80090A5F800802220AE
:101B500020800120FFF75CFE05480760BDE8F047E4
:101B60004FF6FF70FFF73ABE00000260BC24002071
:101B7000B48122420346012000E058430A00A1F14B
:101B80000101C9B2F9D1704710B54FF0C0410880CA
:101B9000052005F049FB0148008810BD00000260E7
:101BA0004E234FF0C0421380024B18804F2010800C
:101BB0001980704700000260F0B506460C461746D3
:101BC0001D46FFF7EDFF44214FF0C04046EA0722D3
:101BD000018004490A80452202800C80462202804E
:101BE0000D80F0BD000002602DE9FF4F0C468846D5
:101BF00005464649203A0D98B1F800B0D2B21E46CB
:101C00000292002842D13DE00C2E08D102984049B2
:101C100000EB400001EB800111F80A7005E03D483F
:101C2000029900EB011010F80A704FF00009380615
:101C300003D53649A1F800B002E03448418801805C
:101C400021462846FFF73AFE7806070E3248641C04
:101C50000088A4B2A84253D9A4EB0800B04207D12F
:101C60002D486D1C0088ADB24446A84248D906E014
:101C700009F1010000F0FF09B9F1080FD7D30AF10B
:101C80000100C0B28246B042BED339E0002034E049
:101C90000C2E06D102981E4900EB400001EB80019A
:101CA00003E01C49029801EB001111F80A704FF093
:101CB0000009380603D521462846FFF7FFFD7806C0
:101CC000070E1548641C4088A4B2A84218D9A4EB9A
:101CD0000800B04207D110486D1C0088ADB24446E0
:101CE000A8420DD906E009F1010000F0FF09B9F1A1
:101CF000080FDED30AF10100C0B28246B042C7D35A
:101D00000249A1F800B0BDE8FF8F0000D00000201C
:101D100068920008DC960008BC2400202DE9F84FEA
:101D2000DDF828A0002680468B4691461D463446A5
:101D30004FEA5A071DE0281B401EC1B20A20FFF7D8
:101D400019FFB9FBF0F00A21B0FBF1F201FB12011F
:101D5000A6B9681E844211DA79B9002307FB048012
:101D6000009380B2534620225946FFF73DFF641C82
:101D7000E4B2AC42DFD3BDE8F88F0126002307FBB5
:101D800004800093303180B25346CAB2ECE72DE9AB
:101D9000F847044600F0FF0A10441FFA80F9DDE915
:101DA000097658180D461FFA80F811E04C4502D309
:101DB000E819544685B245450FD2002300933B46AF
:101DC00029462046FFF710FF04EB570084B2761C2B
:101DD0003278A2F120005E28E8D9BDE8F88700003B
:101DE00038B50121082002F08BFB0120FFF7A0FC91
:101DF0001820ADF8000010208DF803000320064CD9
:101E00008DF8020069462046FFF760F91821204648
:101E1000FFF7D8F938BD0000000C0140FEE70A4684
:101E2000002100F001B8000010B5002A21D00028E0
:101E30001FD000234FEA0304641C41EA0323042C4F
:101E4000FAD310F003040BD004E000BF521E00F8D8
:101E5000011B641C22B1042CF8D301E008C0121F3E
:101E6000042AFBD203E000BF00F8011B521E002A27
:101E7000FAD110BD7047F0B50F23C47801784FF048
:101E8000E0220127E4B1D2F80C4D867804F4E06436
:101E9000C4F5E064240AC4F10405E34044781E401C
:101EA000AC4026433301114481F8003400784109E5
:101EB00000F01F0002EB81018740C1F80071F0BD06
:101EC00001F01F008740480902EB8000C0F88071D4
:101ED000F0BD000002490843024908607047000055
:101EE0000000FA050CED00E07047704710B504469D
:101EF00000F096F83C48002202703C480A2102702B
:101F00003B4802703B4802603B4802603B4802701D
:101F10003B4802703B4802703B4802703B480068F7
:101F2000B0FBF1F03A4908603A49086830B13A48E4
:101F3000006818B1096804C0491EFCD13748027016
:101F400001F0BCF901F052FA204600F013FD2088A0
:101F5000002847D1204600F0BDFF2088002841D14D
:101F6000204600F0DBFF208800283BD1204601F00E
:101F70005DF82088002835D1204601F0CBF9208873
:101F800000282FD1204601F029FB2088002829D1E4
:101F9000204601F03BFD2088002823D1204600F098
:101FA00011FF208800281DD1204600F0A9FD2088BF
:101FB000002817D1204602F0CFF82088002811D140
:101FC000204601F081FC208800280BD1204602F039
:101FD00017F92088002805D100F0CAFCBDE81040A0
:101FE000FFF782BF10BD00003C0000203D00002034
:101FF00076000020C8000020CC0000206A000020ED
:102000006B0000206C0000207C0000203092000853
:10201000780000200892000804920008AA0000201E
:1020200030B5094B0021094A0C46186801E010C080
:10203000491C1568A942FAD31868054900EB8500C8
:10204000001F086030BD00000492000808920008DC
:102050003000002010B51B480078012830D1FEF771
:1020600005F919490446087828B3401E10F0FF000E
:10207000087020D115480078E8B901F00DF914492D
:102080000870C0B2134900EB400051F8200012491B
:1020900008601249096888420DD050F8901F491C09
:1020A00001600F490868401C08604FF080504FF0F5
:1020B000E021C1F8040D2046BDE81040FEF7DAB873
:1020C00010BD00003D0000203C00002076000020F4
:1020D0006B000020FC200020CC000020C800002065
:1020E000A000002010B517480078002829D1164814
:1020F0000078002825D1FEF7B9F8044601F0CCF8A5
:1021000012490870C1B201EB4100114951F8201089
:10211000104801601048006881420DD051F8900FBE
:10212000401C08600D490868401C08604FF0805052
:102130004FF0E021C1F8040D2046BDE81040FEF745
:1021400099B810BD3C000020760000206B000020F4
:10215000FC200020CC000020C8000020A0000020AF
:1021600070B504460E48007810B146F6625015E08E
:102170000C480078012802D045F689600EE00A4D2F
:102180002878FA2802D345F2092007E0FEF76EF816
:102190002978491C2970FEF76DF80020208070BD59
:1021A0003C0000203D0000207600002070B5044671
:1021B0001348007810B146F665501EE011480078CB
:1021C000012802D045F6896017E00F4D287810B934
:1021D00046F6645011E0FEF749F82978491E11F0DF
:1021E000FF01297004D0FEF745F846F6635004E07D
:1021F000FEF740F8FFF776FF0020208070BD00005A
:102200003C0000203D0000207600002070B50F4DFE
:1022100004462878B0B901F03FF80D4908700D491F
:10222000C0B208700C4900EB400051F820000B4987
:1022300008600B49086001202870FEF76BFA43F62E
:10224000992001E045F68A60208070BD3D000020A5
:102250006B0000206A000020FC200020CC00002041
:10226000C80000202DE9F0410646FDF7FFFF224996
:1022700000250D6021490D8021490D8021490D6007
:1022800021490D6021490D6021490D81FDF7F2FFC3
:10229000FDF7ECFF1F490C6814E000BFFDF7E6FFF7
:1022A00044F8785F2563A561A582E58265620746EB
:1022B000A562FEF7ECFB2062783CA4F87050D4F8DD
:1022C000B8403846FDF7D6FF002CE7D1FDF7CEFF2A
:1022D00011490C6804E000BFFDF7C8FFA585A4699B
:1022E000FDF7C8FF002CF7D101F066FE02F054F8AC
:1022F0003580BDE8F0810000500000204A00002039
:102300008A0000209C000020B0000020B8000020BF
:10231000F0200020A4000020700000207047000082
:102320002DE9FF4F83B004466048DDE917A5DDE9DC
:1023300010780078DDF85490139E10B147F24A10DF
:1023400027E014B947F2AD1023E0059810B947F221
:102350004F101EE0B8F1000F02D146F62F6018E0D2
:1023600053480068864202D246F6306011E0129867
:10237000B04202D346F631600BE046F27320202FC4
:1023800007D20FB94B4902E01F2F06D14A498C42B0
:1023900003D0288007B0BDE8F08F204601F046FB4F
:1023A0004FF0000BA5F800B05FEACA700AD05FEAF0
:1023B0008A7007D5414600205A4601E004C1401CFE
:1023C000B042FBD31299CDE9006A08EB8105DDE943
:1023D00005012B46424600F0EDF90599A1620699E8
:1023E000E1620499216284F83770C4F85490A560C2
:1023F0002060B9F1000F02D13048006800E0484683
:10240000A0651698C4F82480A6636060A4F83CA078
:102410000020594604EB8002401CD16710F0FF00F9
:10242000F8D004F16400149900F0B6FD204600F0E5
:102430004FF8FDF71BFF224D2978491C2970FDF745
:1024400019FF94F8370000F045FF204601F014F81A
:10245000204601F0ADFA1B490888401C08801A4844
:102460000078012816D0FDF701FF2978491E11F0E8
:10247000FF01297009D11549098831B1FDF7FAFE2C
:1024800007B0BDE8F04F01F055B807B0BDE8F04F18
:10249000FDF7F0BEFDF7EAFE2978491E2970FDF729
:1024A000E9FE07B0BDE8F04FFFF71CBE3C0000207E
:1024B0002C92000830200020701F0020780000209F
:1024C00076000020A80000203D00002048000020E9
:1024D0007047000070B504463D480D46007810B1C5
:1024E00047F24E1071E03B48844202D147F24C1053
:1024F0006BE03948844202D147F24D1065E02CB9B7
:10250000FDF7B4FE35490C68FDF7B4FEFDF7AEFEED
:10251000334E3178491C3170FDF7ACFE94F836002B
:1025200008283ED2DFE800F004080C0C1C080C0C54
:10253000204600F0D5FF13E0204601F021FD0FE01A
:10254000204601F01DFD94F83400072808D2DFE88A
:1025500000F00704070404040400204600F00DFE08
:1025600004F1640000F0FEFC204600F03FF8204635
:1025700001F030FA1B490888401E0880204601F00F
:1025800055FAFF2084F83600FDF770FE3178491EB9
:102590003170FDF76FFE00202880BDE87040FFF726
:1025A000A1BDFDF763FE3178491E11F0FF013170C6
:1025B00007D10D49098821B1FDF75CFE00F0BAFF93
:1025C00001E0FDF757FE46F62D60288070BD000043
:1025D0003C000020701F002030200020C800002098
:1025E00076000020A80000204800002070477047B7
:1025F0002DE9F047824649480F46007814461D46AB
:1026000010B146F2AE103DE02FB1B7F5004F02D049
:1026100045F6256036E0002604B12660FDF726FE6B
:10262000DFF8FC808146D8F80000416CD1B1491E2A
:102630004746884641640CB1006C2060FEF727FADB
:1026400039680A6C801AC1F8A400D1F8A820824227
:1026500001D2C1F8A8004846FDF70CFE2E80404686
:10266000BDE8F087380405D54846FDF703FE46F27D
:10267000B01007E02B4F387838B14846FDF7FAFD27
:1026800046F6635028800020EAE70120387048466B
:10269000FDF7F0FD002153460722084600F0D2FC6A
:1026A000FDF7E4FD3978491E3970FDF7E3FDFFF7CA
:1026B00019FDFDF7DBFDD8F80010814691F83500D3
:1026C000474648B101281FD0032823D104B1266012
:1026D00047F2D920288010E074B1086C2060FEF722
:1026E000D6F939680A6C801AC1F8A400D1F8A8207C
:1026F000824201D2C1F8A8002E803868446C484656
:10270000FDF7B8FD2046ABE70CB1086C206046F23F
:10271000A910DFE746F62E60DCE700003C00002051
:10272000C8000020760000202DE9F04104461F4833
:102730000E46007817461D4610B147F2591020E0AA
:1027400046F2D520EEB1E7B1FDF790FD0CB918497E
:102750000C684FF00008216841B9FDF78BFDC6F801
:10276000008047F25210C7F800800AE0A18FC90725
:102770000AD1FDF77FFDC6F8008047F25410C7F874
:1027800000802880BDE8F081FDF774FD0020616ABB
:1027900001E0091D401C0A68002AFAD03060A16BD4
:1027A000081A3860A5F80080ECE700003C00002023
:1027B000C800002010B5029C02EB84024FF0807428
:1027C00042F8044D42F8040D184842F8040D121F57
:1027D0004FF01234104614604FF0033240F8042DCD
:1027E0004FF0023240F8042D40F8043D40F8041D3B
:1027F0004FF0113140F8041DD10040F8041D611064
:1028000040F8041D910040F8041D4FF0073140F8D6
:10281000041D4FF0063140F8041D4FF0053140F81B
:10282000041D510040F8041D10BD00009D3C00082F
:1028300010B5FEF72CF90849084A09681268914258
:1028400006D094314B68C31A0B608C6823448B60AC
:10285000C2F8980010BD0000C8000020CC00002085
:102860002DE9F0410646254888460078144610B107
:1028700047F275203EE0224D287810B146F66350AD
:1028800038E05FEA080005D0022803D0042808D009
:10289000082803D12EB947F27E202BE045F62560AB
:1028A00028E0FDF7E3FC2978491C2970FDF7E2FCDC
:1028B000144F01213868234680F8361042463146CD
:1028C00001F0F4FA208840B1FDF7D0FC2978491EC8
:1028D0002970BDE8F041FDF7CDBC386800F000FE7E
:1028E000FDF7C4FC2978491E2970FDF7C3FCFFF7EA
:1028F000F9FB00202080BDE8F08100003C000020B2
:1029000076000020C800002000B585B000F01CF85B
:10291000FEF7BDF804ABCDE90203002107480091A2
:1029200001910078064900EB400001EB8001002393
:102930001A46044800F01AF905B000BD6A000020EC
:10294000FC2000205449434B7047000010B5FDF7B0
:102950008DFC064A1178491C1170FDF78BFCFFF7BE
:10296000D3FFBDE81040FFF775BB00003C0000201E
:1029700070470000034A00211160034A1180018062
:102980007047000054000020580000202DE9F04757
:1029900004460E4690469A46089DFDF767FC5FEA9E
:1029A00008011AD0012906D0B1F5004F15D06FF4F7
:1029B0000042891814D1216A31EA0601C4E9081AD3
:1029C000218A04F108064FF0000971B9FDF752FCA5
:1029D000A5F80090206ABDE8F087216A3143EDE751
:1029E000FDF748FC45F625604CE0284F3978491C36
:1029F0003970FDF73FFC366818E0B0F8881076684B
:102A000001F00F0104290AD0082927D1216AD0F842
:102A10008020114009D0524600F03CF805E0216AC0
:102A2000D0F8802011408A42F5D016B1B068002855
:102A3000E3D1FDF71BFC3978491E3970FDF71AFC0C
:102A40005FEA084001D4FFF74DFBFDF70FFC246A55
:102A5000FDF710FCA5F800902046BCE7FDF706FC4A
:102A60003978491E11F0FF01397007D108490988EA
:102A700021B1FDF7FFFB00F05DFD01E0FDF7FAFB82
:102A800043F6FF2028800020A5E700007600002004
:102A90004800002070B500F1340400252165657000
:102AA00025700264A078343C08280ED2DFE800F0DC
:102AB0000D0D04040D0D0A0A204601F083F884F878
:102AC000365002E0042084F836002046BDE870400D
:102AD00000F053BB70B5084D084C00BFFDF7C6FBB6
:102AE0002968491C29602168491C2160FDF7C2FB47
:102AF000FFF7FBF9F2E70000380000208C0000200F
:102B000000B50F4A89B0002111600B22CDE90612F1
:102B100008900C48059102680B480B4601680B4869
:102B20000068CDE90323CDE901011F2300930023B1
:102B3000074A08A10C48FFF7F3FB09B000BD0000ED
:102B400038000020E4910008E0910008DC910008C2
:102B5000D52A000875432F4F532D49494920496410
:102B60006C65205461736B00701F00202DE9F84FD5
:102B7000DDE90BAB05460E4617469846DDF8289072
:102B80000D9CFDF773FB1D4900901D4A08881288B3
:102B900090422BD2401C80B21A4A08801188814290
:102BA00000D2108018490868C0E902670560A0F8E3
:102BB0001080C0F81490A0F818A0C0F81CB04068AD
:102BC0000860124801210181114901604160002023
:102BD00000F080FB0F48007808B10F490870002012
:102BE00020800098BDE8F84FFDF744BB0B490888EA
:102BF000401C088044F25360F2E7000048000020C7
:102C0000D49100084A00002040000020FC20002051
:102C1000302000206A0000206C0000204C000020C2
:102C20003EB5394C394A206801688B1A91424AD026
:102C300016DC374A891830D0364A891824D0364AEB
:102C4000891836D0354A891809D102ABC269CDE955
:102C50000023038B028AC168806800F03FFF3EBDFD
:102C60002F49591820D02F4A891827D02E4A891861
:102C7000F5D102ABC269CDE90023038B028AC1689A
:102C8000806800F053FB3EBD02AB0093028BC3692A
:102C900041698068FFF77AFE3EBD018BC26980689A
:102CA00002AB00F0A7FC3EBD806802A900F098FFCF
:102CB0003EBD018BC269806802AB22E0806802A938
:102CC00001F08AF83EBD19481949007800EB400030
:102CD00001EB800000F052FC206802ABC2690021C9
:102CE000144800F0E7FF14490868401E0860E9D165
:102CF000124800680860FDF7CAFE024602AB0021D8
:102D00000F4800F0D7FF3EBD440000205449434B1C
:102D1000ADBAB2BE0DF90BFAF2F8F7FF0006F6FFF6
:102D200000F7FDF700FFEFFF03FE0FFE6C00002031
:102D3000FC2000203C230020C4000020C000002014
:102D4000FC2300202DE9F0411A4F1B4CDFF86C806A
:102D5000002600BFFDF78AFA0546208860B91849A9
:102D6000002008810860486000F0C4FA2846FDF79A
:102D700081FAFFF7B7F9E9E72846FDF77BFAFDF797
:102D800086FE0546FFF74CFFFDF781FE3968401BC4
:102D9000814200D23860FDF769FAD8F8001049681E
:102DA000C8F800102188491E2180FDF763FA002E23
:102DB000D0D0CBE750000020480000204400002085
:102DC000FC200020F0B52D4989B000252C4B0D804A
:102DD000196811B944F2526137E02A4E318802294C
:102DE00002D244F2546130E0274900220D60196894
:102DF000DFF898C001F120040BE08D60C1F800C03D
:102E0000CD600D824D610D834C6020312034521C09
:102E100092B23788BA42F0D31A6841F81C2C1C4988
:102E20001F4C0A601B490A601B490D801B490D801D
:102E3000216811B944F2556107E01A4D1A4A296810
:102E40001268914204D244F25661018009B0F0BD8B
:102E500000210322CDE906120890059113480B4684
:102E6000016820682A6801AC0FC40023104A11A130
:102E700017480093FFF754FAE8E700004C000020E1
:102E8000EC910008D4910008500000204E4F4E45B0
:102E90004000002044000020480000204A0000209C
:102EA000F4910008FC9100082C920008F8910008A9
:102EB000452D000875432F4F532D4949492049534B
:102EC00052205175657565205461736B00000000D8
:102ED00030200020034A00211160034A1180018044
:102EE000704700005C0000206000002010B5491E03
:102EF0008CB2002100F110020B4607E0C0E900236C
:102F00000381C36010301032491C89B2A142F5D34D
:102F1000036043600381C36010BD000070B50E4DB7
:102F20000446286810B945F21E7004E00B4E308844
:102F300018B945F21D70208070BD31882868FFF7F0
:102F4000D5FF074829680160318881800021C18050
:102F50000181218070BD000014920008D691000804
:102F6000F020002010B5428992B10A4903680C682C
:102F70001C6043680B60CB8844891B1BCB808B880B
:102F8000448923448B80002141818181016041601B
:102F9000104610BDF0200020018100214181818177
:102FA0000160416070470000F0B544890589DDE9A2
:102FB00005E7AC4202D346F2935004E01A4EB588BE
:102FC0001DB945F21D703880F0BD34686D1ED4F80F
:102FD00000C0C6F800C0B580F5886D1CADB2F580A4
:102FE000B6F808C0AC4500D23581468900251EB927
:102FF0000460012344600BE0DB0604D403681C601A
:103000002560046002E043682360446043895B1CE0
:10301000438186899BB29E4200D283816160228176
:10302000C4F80CE03D80F0BDF0200020034A0021F0
:103030001160034A11800180704700006400002085
:10304000680000202DE9F041114D074628680C4624
:1030500080F834200026194680F8356000F092FC94
:1030600064B1FC6004F1080601223946286800F0CA
:1030700011F83946304600F053F802E02868C68758
:10308000066320462968BDE8F04100F017B800004B
:10309000C800002010B5C28700242346016309E060
:1030A0004B600B600B614B610B83CB6188602031FF
:1030B000641CA4B29442F3D310BD000038B143683D
:1030C000C1F8BC3081688968096AC161704791F8AC
:1030D0003400022805D0072805D104A0C1F8BC009F
:1030E000704705A0FAE706A0F8E700005461736B8B
:1030F0002053656D000000005461736B2051000087
:1031000020000000054AC1F8BC20816811B189681F
:10311000096A00E00149C16170470000649200083B
:1031200030B58A68002592F8374002892AB9012211
:1031300002814D600D60016011E0521C0281026845
:1031400005E0936893F83730A34203D85268002A09
:10315000F7D100E02AB94D6042680A6051604160D1
:1031600030BD136823B91160C1E90052016030BD60
:10317000C1E900325960116030BD70B50646C48F98
:10318000056B07E0E8682946083000F009F82035AB
:10319000641EA4B2002CF5D10020F087306370BD0E
:1031A00010B502890024012A02D1046044600CE0B9
:1031B0000A681AB94A681460026006E04B6813B9DD
:1031C0005460426001E053601A600289521E02811D
:1031D0004C600C6010BDF8B505460C46184691F8D9
:1031E00036100026069B082941D2DFE801F0404056
:1031F00004044040212194F83410032906D100939F
:1032000003462146284600F033F803E0E265A4F8BF
:103210006000236435B12046FFF7AFFF2146284602
:10322000FFF770FF204600F0CDFC3434A6701CE0A0
:1032300094F83410032906D100930346214628460A
:1032400000F016F803E0E265A4F86000236420466D
:1032500000F096FE35B12046FFF78FFF2146284645
:10326000FFF750FF04203434A07066702670F8BD5C
:1032700070B50C6B049DC98F0AE0E668864204D1E4
:10328000C4E904022383E56170BD2034491E89B27C
:103290000029F2D170BD000010B50024064802E0FC
:1032A0002034E4B2001D01680029F9D00846FCF77B
:1032B000E8FF2044C0B210BD340000200020044AC2
:1032C000014600BF42F82010401CFBD070470000B0
:1032D0003400002000F01F0241090120C2F11F024A
:1032E000034B904053F82120024343F821207047BC
:1032F0003400002000F01F0241090120C2F11F022A
:10330000034B904053F82120824343F8212070471B
:1033100034000020034A00211160034A118001801B
:103320007047000070000020740000202DE9FC5F51
:1033300080468A4693461E46DDF83490FCF796FF99
:10334000284F3978491C3970FCF794FFB8F81040C1
:1033500008F108001CBBF00601D4002000E010209A
:103360000C9ACDE9002903465A46514608F120003F
:10337000FFF71AFEFCF77AFF3978491E11F0FF01BA
:10338000397008D11849098829B1FCF773FFBDE8E5
:10339000FC5F00F0CFB8BDE8FC5FFCF76BBFB10588
:1033A00000D4012405680AE0A9686D680C9B0093AD
:1033B0005B4652464046FFF70EFF641EA4B2002C47
:1033C000F2D1FCF753FF3978491E3970FCF752FFF0
:1033D000300401D4FEF786FE0020A9F80000BDE805
:1033E000FC9F000076000020480000200020074BD2
:1033F000024600BF00EB400103EB81010A81401C43
:103400000A60C0B24A602028F4D37047FC20002034
:1034100010B5044690F83700FFF75CFF074994F8B1
:10342000370009788842204603D1BDE8104000F0FB
:1034300023B8BDE8104000F003B800006A00002087
:1034400090F837100B4A01EB410102EB81010A8928
:10345000002332B901220A81C36003610860486019
:103460007047521C0A810A68C0E903230A68106188
:1034700008607047FC20002090F837100A4A01EBE2
:10348000410102EB81010A8900232AB901220A8144
:10349000C3600361086005E0521C0A81C3604A688A
:1034A0000261D06048607047FC20002010B501899F
:1034B00000290CD001290AD000240229016807D173
:1034C0004268C1E90342C2E90314C0E9002110BD0A
:1034D000CA6843681461C1E90343D960F5E7000095
:1034E00070B5044690F83700114900EB400001EB3D
:1034F0008000D4E90312002572B939B9058105604D
:10350000456094F83700FFF7F5FE0DE00289521E82
:1035100002810D61016007E003895B1E0381D160B8
:1035200009B9426000E00A612561E56070BD0000F4
:10353000FC20002010B5FCF799FE0C4A0021117008
:103540000C4A0B49116051F8902F521C0A600A4A2C
:103550001168491C11604FF080514FF0E022C2F811
:10356000041DBDE81040FCF785BE00006B00002084
:1035700030200020CC000020A000002070B50546BF
:1035800012480078012820D1FCF770FE0446286814
:10359000B0B10F49884213D0816D11B1491E8165C8
:1035A0000ED1288902280BD30A48007840B9284652
:1035B000FFF77CFF2868416D09B9074909688165F3
:1035C0002046BDE87040FCF755BE70BD7C00002071
:1035D000701F00207600002078000020034A0021A0
:1035E0001160034A118001807047000080000020B4
:1035F000840000202DE9F84F0646884693461F4672
:10360000FCF734FE318A06F108054FF0000A81B953
:10361000346A611C07D1FCF72DFE46F6C550388090
:103620000020BDE8F88F641CC6E9084BFCF722FEB9
:103630002CE0DFF8609099F80010491C89F8001020
:10364000FCF718FE5FEA885001D52C8900E00124C0
:103650002D680AE0A9686D6800231A463046CDF847
:1036600000B0FFF7B8FD641EA4B2002CF2D1346A9A
:10367000FCF7FCFD99F80010491E89F80010FCF7D2
:10368000F9FD5FEA084001D4FEF72CFDA7F800A081
:103690002046C6E7760000202DE9FC5F794D7A4C84
:1036A0002868460004E001AA00213046FFF7D8F858
:1036B00020780128F7D101A8FEF7D4FD73482A68C5
:1036C0000168914204D9B1FBF2FBBBF1000F03D1B9
:1036D00000680A21B0FBF1FB4FF47A79DFF8B0A162
:1036E00042F210764FF00008FDF7D1F90090FCF798
:1036F000BDFD6849684C0A682260C1F80080FCF78B
:10370000B9FD6648236802689A4228D96448824213
:1037100002D23046012113E06248824202D248467A
:103720000A210DE06048824202D26420014607E08F
:103730005E48824202D20A20494601E00120314619
:10374000B2FBF1F15843B0FBF1F0301A584980B2A6
:10375000088058490A88824203D2088001E0544810
:103760000680FEF7DBFD0025FCF780FDDAF800405F
:1037700025E000BFFCF77AFD4F4F3978491C3970BE
:10378000FCF778FD54F89C0F606044F89C89FCF7C6
:103790006DFD3978491E11F0FF01397007D1474995
:1037A000098821B1FCF766FDFFF7C4FE01E0FCF7D4
:1037B00061FD54F8A00F0544FCF758FDA469FCF71F
:1037C00059FD002CD6D1E5B13548854202D23746A5
:1037D000012013E03348854202D24F460A200DE013
:1037E0003148854202D26427384607E02F48854297
:1037F00002D20A27484601E001273046B5FBF0F522
:1038000001E000270125FCF731FDDAF800401CE05B
:10381000D4F8A00031467843B0FBF5F080B2B04256
:1038200000D90846A4F88C00B4F88E10814201D269
:10383000A4F88E0004F1AC0201AB111D2046FEF786
:1038400073FFFCF713FDD4F8B840FCF713FD002C10
:10385000DED11B480178012904D180F8008001A83D
:10386000FEF700FDFDF713F90099401A15490A68A3
:10387000824200D2086001AA00215846FEF7F0FFFC
:1038800032E70000189200089800002030920008EB
:10389000A40000208C000020940000209000002054
:1038A000801A060000093D00005A62020084D71702
:1038B000880000208A0000207600002048000020B8
:1038C000860000209C00002070B51D4A8AB00021AF
:1038D00011601C4A1F4C11601B4A11601B4A117079
:1038E0001B4A1170216811B946F62B610EE01A4E81
:1038F0001A4A31681268914202D246F62C6105E0FC
:10390000174D29781F2904D346F62A6101800AB091
:1039100070BD00210322CDE90612089005911148DF
:103920000B4601682068326801AC0FC42B78009305
:1039300000230D4A0DA11248FEF7F2FCE7E7000054
:103940008C000020940000209000002098000020AF
:10395000860000201C920008249200082C92000887
:10396000D0910008209200089936000875432F4F27
:10397000532D4949492053746174205461736B007D
:103980007C22002038B50446022559B16B4602223C
:10399000204600F08BFABDF8000018B9032084F827
:1039A000360001E084F836502046FFF799FD38BD17
:1039B0000022074BC0F8B420196811B9C0F8B8202C
:1039C00003E0C0F8B810C1F8B400186070470000F8
:1039D000A4000020D0E92D2100233AB90A4A116041
:1039E00009B1C1F8B430C0F8B830704721B9C2F895
:1039F000B830C0F8B4307047C2F8B810B430C1F86D
:103A0000B420436003607047A4000020044A0021F2
:103A10001160044A1180044A11600180704700005F
:103A2000A4000020A8000020A000002070B5002500
:103A3000056085604560C560056145618561044636
:103A4000C56123A0C4E90805A562E5622563E58791
:103A50002564E565A4F86050002104F16400FFF7D7
:103A60009BFA44F8745F6560E560A5822561743C4B
:103A70005FF0000004EB8001401CCD6710F0FF00F8
:103A8000F8D03434256125676567656084F8565041
:103A9000E567A56725814FF00040C4E90505E561AC
:103AA00025626562A4F85850A4F85A50E565256669
:103AB000FCF7EDFFC4E9190525706570A57020209D
:103AC000E070C4F8805044F8845F03A0606070BD6B
:103AD0003F5461736B000000200000002DE9FC5F83
:103AE000DDE90CB70446894692469846FCF7BEFBD2
:103AF000314D2978491C2970FCF7BCFB0CB92F48C3
:103B000004680020388094F836002D4E08283CD2F6
:103B1000DFE800F004041D1D04041D1DCDE900B7FD
:103B200043465246494604F16400FFF73DFAFCF76C
:103B30009DFB2978491E11F0FF01297021D13188A0
:103B4000F9B1FCF797FBBDE8FC5FFFF7F3BC94F815
:103B500034000228E2D153464A4621460020CDF8DF
:103B600000B0FFF738FBFCF781FB2978491E29706C
:103B7000FCF780FB5FEA08401BD4BDE8FC5FFEF762
:103B8000B1BABDE8FC5FFCF775BBFCF76FFB2978A9
:103B9000491E11F0FF01297006D1318821B1FCF7CF
:103BA00069FBFFF7C7FC01E0FCF764FB46F62D60FC
:103BB0003880BDE8FC9F000076000020C80000208F
:103BC0004800002010B5044600F0DAF994F83600F9
:103BD000400704D42046BDE81040FFF719BC10BDD3
:103BE00070B504460D46FCF741FB00262E8094F884
:103BF000361008294AD2DFE801F0040404040A233D
:103C0000333DFCF737FB47F25310288024E0224D68
:103C10002978491C2970FCF72DFB94F88A00401E76
:103C200010F0FF0084F88A0004D184F83660204642
:103C3000FFF7C8FFFCF71AFB2978491E297009E035
:103C400094F88A10491E11F0FF0184F88A1001D1FE
:103C5000012118E0FCF70EFBBDE87040FEF742BA08
:103C600094F88A10491E11F0FF0184F88A10F1D1EE
:103C7000022108E094F88A10491E11F0FF0184F82F
:103C80008A10E7D1032184F83610E3E7FCF7F2FA53
:103C900046F62D60288070BD7600002008B50448E7
:103CA0000068FEF7A4FC69460020FEF713FC08BD7F
:103CB000C80000202DE9F84F04468A4690461D466C
:103CC000FCF7D4FA414E3178491C3170FCF7D2FA36
:103CD0000CB93F4804680020C4F84080288094F85C
:103CE00036003C4F46F6C559082856D2DFE800F0AA
:103CF0004040252540402525FCF7BCFAFFF71AFC7B
:103D000002E000BFFCF7B6FAA5F800900020BDE87D
:103D1000F88F00BF08F10108C4F84480FCF7A6FA48
:103D20003178491E11F0FF01317033D1398881B3E8
:103D3000FCF7A0FAFFF7FEFB45E094F834000728F3
:103D400016D100231A4621461846CDF80080FFF709
:103D500042FAD4F84480FCF789FA3178491E317070
:103D6000FCF788FA5FEA0A402DD4FEF7BBF92AE097
:103D7000D4F8448018F10100CCD1FCF777FA3178FF
:103D8000491E11F0FF013170BCD139880029B9D02A
:103D9000B2E7FFE7FCF76EFA15E0FCF767FA317857
:103DA000491E11F0FF01317006D1398821B1FCF7AD
:103DB00061FAFFF7BFFB01E0FCF75CFA46F62D6005
:103DC00028804FF000084046A1E700007600002060
:103DD000C8000020480000202DE9F04104460D46AF
:103DE000FCF744FA244904B90C680968234F8C4253
:103DF00006D1397821B1FCF73DFA46F6635038E038
:103E00000021298094F83610012608292DD2DFE8F8
:103E100001F004171F21272727273978491C3970FB
:103E2000FCF728FA042084F8360084F88A602046DB
:103E3000FFF756FBFCF71AFA3978491E397001E092
:103E4000052108E0FCF716FABDE8F041FEF74AB993
:103E5000062100E0072184F8361084F88A60F1E733
:103E600014F88A1F491C2170ECE7FCF703FA46F6A8
:103E70002D602880BDE8F081C80000207600002079
:103E800010B500200246074B074C06E003EBC001CB
:103E90000A608A80401CCA8080B221888842F5D39B
:103EA00010BD0000601C0020D8910008F0B5314C16
:103EB0000025246847F27E26042A08D10A1B521ED8
:103EC00012F5803F2BD8521CC0E9131215E031B314
:103ED000284E082A36680E440DD1826C0A44171BFE
:103EE0007F1E8F4201D2C26400E0C664C16C0A1B0F
:103EF0000265816401E0C0E913611F4AC16C128848
:103F00001E4EB1FBF2F702FB171189B206EBC1029C
:103F1000918849B9456185610121106021E0C5643E
:103F20000565C5611E80F0BD1168C1B1CE6C361B40
:103F30000E65076DB74207D94E690EB13146F5E7F8
:103F4000C0E9055148610AE08C6924B9C0E905154A
:103F50008861106003E0C0E90514606188619188A0
:103F6000491C9180D48889B28C4200D2D180C26130
:103F70001D80F0BDAC000020D8910008601C00201E
:103F800010B5C169002915D0002404650A68824271
:103F900004D142690A6032B1946104E0D0E905239A
:103FA0005A6102B1936144618461C461C4648888C8
:103FB000401E888010BD000010B500200246064B50
:103FC000064C04E003EBC001401CCA8080B221888B
:103FD0008842F7D310BD0000601C0020D891000873
:103FE0002DE9F05FFCF742F94B490A78521C0A7040
:103FF000FCF740F9FCF74BFD484E834630684849D2
:10400000401C306009880025B0FBF1F201FB120072
:10401000444980B251F830402F464FF003094FF029
:10402000040A002C59D094F83610D4F814800829CA
:1040300050D2DFE801F04F044F114F274F34E06CAE
:1040400031688842A0EB0100206542D184F83670C7
:104050002046FFF7B7FD3DE0E06C31688842A0EBF9
:104060000100206535D1E765A4F86070FCF70FFD0D
:1040700020642046FFF781F82046FFF7A3FD343483
:10408000A77022E0E06C31688842A0EB0100206557
:104090001FD184F836A02046FFF772FF1AE0E06CCB
:1040A00031688842A0EB0100206512D1E765A4F8D1
:1040B0006070FCF7ECFC20642046FFF75EF82046B9
:1040C000FFF75EFF343484F802A084F80190277073
:1040D00000E001254446002DA3D0FCF7D8FC12498E
:1040E000A0EB0B000A68824200D20860FCF7BEF821
:1040F000094A1178491E11F0FF01117008D10B49CE
:10410000098829B1FCF7B6F8BDE8F05FFFF712BAED
:10411000BDE8F05FFCF7AEB876000020AC000020F0
:10412000D8910008601C0020B0000020480000204A
:104130001CB5084C002101AB6A460846FEF758FA48
:10414000BDF804000028F5D120780128F2D1FFF74E
:1041500047FFEFE73D000020F0B504461A4989B05B
:104160000020086019490860FFF78AFE184D28688A
:1041700010B947F212200EE0164F17493868096847
:10418000884202D247F2132005E0144E30781F28EF
:1041900004D347F21120208009B0F0BD00210B228A
:1041A000059106A816C00E480B46016828683A68B3
:1041B00001AC0FC43378009300230A4A0AA10F48C8
:1041C000FEF7AEF8E8E70000AC000020B0000020E9
:1041D000349200083C9200082C920008D19100080B
:1041E000389200083141000875432F4F532D49493B
:1041F00049205469636B205461736B003C23002099
:1042000070B529498AB000240C60284B284A2949F6
:104210001D6812680DB12B4600E00A23B2FBF3F2D1
:104220000A601146244A274B11602449264D0C6030
:1042300023490C60002106E003EBC1029480D48086
:10424000491C89B214602A889142F5D31F4C216819
:1042500011B947F247310EE01D4E1E4A316812680F
:10426000914202D247F2483105E01B4D29781F29BF
:1042700004D347F2463101800AB070BD00210B2201
:10428000CDE906120890059114480B460168206894
:10429000326801AC0FC42B7800930023104A11A19F
:1042A0001648FEF73DF8E7E7B40000204892000802
:1042B00030920008C0000020C4000020BC00002094
:1042C000B8000020E81E0020DA9100084C92000897
:1042D000549200082C920008D291000850920008D5
:1042E000C143000875432F4F532D49494920546954
:1042F0006D6572205461736B00000000FC23002088
:1043000070B5022280F82A20204A0129136801D0C2
:10431000016A01B9416A1E4A1944816112881D4C23
:10432000B1FBF2F502FB151292B204EBC202146863
:10433000002524B905614561106001201EE0C91AFD
:10434000C1611168C1B18C69E41ACC61C669A64229
:1043500007D90C690CB12146F5E7C0E904510861A1
:104360000AE04B6923B9C0E904154861106003E015
:10437000C0E90413186148619088401C9080D1887E
:1043800080B2814200D2D08070BD0000BC0000200D
:10439000DA910008E81E002010B500200246064B06
:1043A000064C04E003EBC001401CCA8080B22188A7
:1043B0008842F7D310BD0000E81E0020DA91000803
:1043C0002DE9FC5FDFF898B0DFF89880DFF898A05F
:1043D000002101AB6A460846FEF70AF901A8FDF77D
:1043E000BFFEFCF754FB0746D8F800004FF0030966
:1043F000401CC8F80000BBF800100026B0FBF1F329
:1044000001FB1300194980B251F83040D4B1A069C2
:10441000D8F800102569884214D1204600F028F809
:10442000208D022804D101212046FFF769FF01E019
:1044300084F82A90A26812B12046E16890472C4681
:10444000002EE3D0FCF723FBC41B01A8FDF7AEFE52
:10445000DAF800105046A142BAD20460B8E7000072
:10446000DA910008BC000020B8000020E81E0020FF
:1044700010B5104A816912880F4BB1FBF2F402FBB0
:10448000141189B203EBC1010B6800240269834255
:1044900003D10A602AB1546103E043691A6102B191
:1044A0005361012280F82A20046144618888401EFB
:1044B000888010BDDA910008E81E0020034A516888
:1044C00021F4404101435160704700000010024058
:1044D000044A0029516901D0014300E08143516140
:1044E0007047000000100240044A0029D16901D041
:1044F000014300E08143D161704700000010024099
:10450000044A0029916901D0014300E0814391618F
:104510007047000000100240044A0029D16801D011
:10452000014300E08143D160704700000010024069
:1045300010B5204A5168204B11F00C0103D004291A
:1045400001D0082901D0036011E0516853680224AA
:1045500001F4701104EB914113F4803F02D05368D1
:104560009B0301D5154B00E0134B59430160516883
:10457000134B01F0F00109095C5C0168E140416006
:10458000546804F4E064240A1C5D21FA04F4846095
:10459000546804F46054E40A1B5DD940C160526859
:1045A000074B02F44042920B1B1F9A5CB1FBF2F1E5
:1045B000016110BD0010024000127A0000093D00A8
:1045C000040000202DE9FC478146002168460A4688
:1045D00006C0084600F0A4F8800102D50E20BDE810
:1045E000FC87244C6946A06880B2FCF7CBFC2A28E3
:1045F000F5D140263720204D370101994FF0060AAA
:104600004FF00008B9F1010F13D149032FD5A1686C
:10461000C5E90387C5E9010609042960284600F0B9
:10462000C1F83720FCF738FA2A28D8D102202860B0
:1046300012E0C9031BD5A168C5E90387C5E90106D6
:10464000090429600C4800F0ADF83720FCF724FA83
:104650002A28C4D1C5F80080C5E901A6C5E90387A9
:10466000054800F09FF80620FCF716FAB7E725206A
:10467000B5E70000D4000020002500200149886330
:104680007047000000800140014908607047000049
:10469000A000304201490860704700008C0530429C
:1046A00030B5094902684A6242688A62CA6AD0E93A
:1046B0000354836840692B43044322F0F7022343E9
:1046C0001343CB6230BD000000800140064800214A
:1046D000016041608160C16041628162C162034AE0
:1046E0008263C1637047000000800140FF07C00083
:1046F00001480069C0B2704700800140034902468A
:10470000496B0020114200D0012070470080014019
:104710000248006800F0030070470000008001407C
:10472000014940587047000014800140044A0029A4
:10473000D16B01D0014300E08143D1637047000099
:104740000080014070B5094B5968041D47F6FF62AF
:1047500070CC9143027D34432A43056822430069AB
:104760002A4302430A435A6070BD000000800140A2
:1047700008B54FF4C060FDF7ADFB31208DF80000A7
:1047800001208DF8010003218DF802108DF803003F
:104790006846FDF770FB08BD0148006870470000DF
:1047A0008080014030B5084902688A60CA68D0E953
:1047B0000254436800692B4304436FF30A02234306
:1047C0001343CB6030BD00000080014004490A68FB
:1047D00022F003020A600A6802430A607047000080
:1047E000008001400149086070470000808001405E
:1047F0002DE9F04101461A482A244068032807D0D1
:1048000018B1012801D0022827D1B1F5805F02D16B
:104810002720BDE8F0814FF4006800260127114DE4
:1048200041450BD10120FFF7CDFE04462A2814D1C3
:104830002F752E606E60C5E902680AE00020FFF760
:10484000C1FE04462A2808D12F752E606E60AE6026
:10485000EE6004482E61FFF775FF2046D9E700009F
:10486000D4000020E82400202DE9F0438D49DFF832
:1048700038924C6880F84E408968A0F84C10D9F8FE
:1048800000104FF02A0C0A0E95090570C2F383053B
:10489000457002F0030282700A0CC2700A0A0271AB
:1048A0004171D9F80420110E0901C180C388C2F3F7
:1048B000074101F00F0543EA1111C1800572C2F3EF
:1048C0000721CB094372C1F380138372C1F34013F4
:1048D000C372C1F3001303734FF0000E80F80DE0B4
:1048E0004B469B684FF00108C3F30746C3F3072705
:1048F0004FEA13650CB1012C2AD18907090D01611A
:104900000169D2B241EA820101610269C5F3C204C0
:1049100042EA95120261047505F0070141757109BB
:104920008175C6F38201C175B107490F0176027E18
:10493000394642EAD71202760269057E047A521C91
:10494000AD1CAA4008FA04F56A43C0E9112512E03B
:10495000022C10D19106890A0161016941EA052101
:10496000016102693946324302610269521CD20474
:10497000426422028264C1F38012183042708906B8
:10498000490E8170D9B2837843EAD113837001F064
:104990007F01C170D9F80C20110ECB090371C1F34E
:1049A00041134371C1F3820383718907090FC171F8
:1049B000C379C2F3074143EA9113C371C1F34013B2
:1049C000037280F809E001F001018172C2F307214E
:1049D000CB09C372C1F380130373C1F34013437354
:1049E000C1F300138373C1F38103C37301F00301A7
:1049F0000174C2F346014174434680F812802A4A8A
:104A0000103211680C0E0475C1F307442402C482ED
:104A1000C58AC1F307242543C5820906816151680F
:104A200085690C0E45EA044484618569C1F3074435
:104A300045EA042484618569C1F30724254385611F
:104A4000017791680C0E4477C1F307442406046291
:104A5000056AC1F3072445EA04440462046AC9B242
:104A600044EA01210162D168046A44EA11640462E3
:104A700090F82440C1F3074244EA121480F824401D
:104A80001207120DC284C48CC1F307221443C484DC
:104A9000C1F3460180F8281080F829306046BDE84F
:104AA000F0830000D4000020C824002038B5012184
:104AB0003020FFF725FD4FF4F850ADF8000003203B
:104AC0008DF8020018208DF8030069461448FCF7A1
:104AD000FDFA0420ADF8000069461248FCF7F6FA2A
:104AE00001218802FFF7F4FC01210220FFF7F0FC0E
:104AF000FFF7ECFD00F09CF82A2810D100F016F822
:104B000004462A280AD108480121017500210160C4
:104B100041608160C1600161FFF714FE204638BD2D
:104B20000010014000140140E82400202DE9F84F56
:104B300001202A240090FFF7EBFD10B92520BDE8E5
:104B4000F88FDFF8E490D9F80400042869D0374ED4
:104B500000250220C6E900504FF0C00AC6E902A5B0
:104B60004FF480683046C6F81080FFF71BFEFCF754
:104B700007F804462A2854D10020FFF7D1FDA6F1FA
:104B8000280738600420FFF7CBFD78600820FFF786
:104B9000C7FDB8600C20FFF7C3FDF860D9F804002A
:104BA0004F4628B1012803D0062801D0022810D191
:104BB0000320C6E90050C6E903584020B0601B48F6
:104BC000FFF7F0FD69460320FBF7F4FF04462A28AF
:104BD00027D17868042824D0BDF80000B86000040C
:104BE0003060C6E902A50920C6F8108070600F4841
:104BF000FFF7D8FDFBF7C4FF04462A2811D1002097
:104C0000FFF78EFD094D383D28600420FFF788FD31
:104C100068600820FFF784FDA8600C20FFF780FD86
:104C2000E86020468BE70000D4000020002500202B
:104C30002DE9F05F00276E48B221017507604760DB
:104C40008760C7603C463E46B846BB463D46076166
:104C5000FFF778FD0320FFF7B9FD0120FFF714FDF2
:104C600063484FF480611830056045608560C0E995
:104C70000351FFF797FD42F2107A4FF02A0955468B
:104C800001E06D1E05D08020FFF738FD0028F8D028
:104C90000DB9032004E040F2FF50FFF7EFFC484657
:104CA0002A287ED1DFF848914FF4D57109F118090F
:104CB000C9F800100821C9F804104021C9E9021BF5
:104CC00009014846C9F81010FFF76CFD494A2A252A
:104CD000516B5046924602E0DAF83410401E11F053
:104CE000450F02D10028F7D102E008B1480702D5EC
:104CF0000325042003E0480603D52A254020FFF7BA
:104D0000BDFC2A2D05D13C4901204FF08048486068
:104D10000FE03722C9E900B24022C9E9022B34482A
:104D200011011830C9F81010FFF73CFD3720FBF7D0
:104D3000B3FE2F4837221830C0E900B24FF4806923
:104D4000C0E903B940228260FFF72CFD3720FBF752
:104D5000A3FE05462A2849D136E0254D37201835CF
:104D6000C5E900B0C5E903B940275E462846AF60F3
:104D7000FFF718FD3720FBF78FFE2A282ED11F4999
:104D800048EA01002860C5E903692920C5E901074F
:104D90002846FFF707FD2A255146486B10F0450FBE
:104DA00000E01BE0F9D0400702D50325042001E014
:104DB00040F2FF50FFF762FC2A2D17D10020FFF7C9
:104DC000AFFCC60F0746641C1EB94FF6FF70844245
:104DD000C3D34FF6FF70844202D31B20BDE8F09F7F
:104DE00017F0804F02D00448022141602846F5E7C1
:104DF000E824002000800140D40000200000108042
:104E00002DE9F84F06460C00154679D074482A2142
:104E1000017000278761DFF8D09107617149C9E906
:104E20000017C9F80870C9F80C70C9F81070484626
:104E3000C9F81470FFF734FC0020FFF72BFC0020AA
:104E4000FFF76EFC800102D50E20BDE8F88F6448A4
:104E50004068022801D10502760A681EB0F5006F8D
:104E60004ED205424CD1284602F065F8DFF8788131
:104E70000090A8F114084FF0400BC8E902B74FF4B6
:104E8000806A1021C8F810A0C8E900514046FFF719
:104E900089FC1020FBF700FE2A28D6D15149C9E928
:104EA0000015009950480901C9F808100221C9E904
:104EB00003170121C9F81410FFF7F2FBDFF8209166
:104EC0001121C9E90457C9F82440C8E902B7C8F854
:104ED00010A0C8E900614046FFF764FC1120FBF711
:104EE000DBFD06462A2879D1D9F80C004F46022866
:104EF00050D14FF400493D4F40F22A6810E0FFE7DF
:104F00002620A2E74846FFF7F9FB48B15FF000050D
:104F1000FFF742FC44F825006D1C082DF8D320341F
:104F2000786B10EA080FEDD00820FFF7E7FB20B1FF
:104F30000820FFF7A3FB042087E70220FFF7DEFB32
:104F400020B10220FFF79AFB02207EE72020FFF726
:104F5000D5FB20B12020FFF791FB062075E74FF429
:104F600000752846FFF7CAFB40B12846FFF786FBCD
:104F700007206AE7FFF710FC01C401E04FF40015B9
:104F80002846FFF7BBFB0028F4D140F2FF50FFF7A3
:104F900075FB23E001280ED1012148F22A30FFF7EA
:104FA000C5FBB86910B938782A28FAD038782A2889
:104FB00014D0387849E788B9012140F22A30FFF748
:104FC000B5FB0120FFF766FB29462046FBF7B4FE40
:104FD000074C2046FBF782FE0028FAD0304634E723
:104FE000D4000020FFFF0F001425002000800140A6
:104FF000002000102DE9F84F80460C0017461E4691
:105000004CD0DFF828A22A218AF800100025CAF81F
:10501000185088488649CAF81050C0E900158560C4
:10502000C56005614561FFF73BFB0020FFF732FBE0
:105030000020FFF775FB800102D50E20BDE8F88F38
:10504000DAF80400022802D107024FEA5828781E35
:10505000B0F5006F22D2074220D1384601F06BFF35
:10506000DFF8D0B10090ABF1140B1021CBE9007147
:105070004021CBE902150901A9465846CBF810108A
:10508000FFF790FB1020FBF707FD05462A2874D197
:10509000012E72D97E43B6F1007F01D32620CDE7E1
:1050A0000121CAE904616348614ACAF82440C0E9A1
:1050B0000026009A5746120182600222C0E90329A5
:1050C0004D464161FFF7ECFA4146CBF80010122142
:1050D000CBF804104021CBE90215D84658464FF4CE
:1050E000806BC0F810B053481438FFF75BFB1220F8
:1050F000FBF7D2FC05462A28C9D1F96840F22A30CC
:10510000022968D182460DE04FF40040FFF7F6FA1D
:1051100040B10026FFF740FB44F82600761C082E1D
:10512000F8D320344448406B10EA0A0FECD0082032
:10513000FFF7E4FA20B10820FFF7A0FA04207DE78A
:105140000220FFF7DBFA20B10220FFF797FA0220D6
:1051500074E72020FFF7D2FA20B12020FFF78EFA63
:1051600006206BE74FF400763046FFF7C7FA48B1E8
:105170003046FFF783FA072060E72BE0FFF70CFBD0
:1051800001C401E04FF400163046FFF7B7FA0028DB
:10519000F4D14FF48070FFF7B1FAB8B1786818B164
:1051A000022801D0012811D10C21C8E90091C8E9D9
:1051B000039B204840211438C8F80810FFF7F2FA82
:1051C0000C20FBF769FC05462A282CD140F2FF5041
:1051D000FFF754FA27E001290DD148F22A30FFF7F2
:1051E000A5FAB86910B938782A28FAD038782A2868
:1051F00019D0387822E7B1B90121FFF797FA0120D9
:10520000FFF748FA31462046FBF796FD0B4C204647
:10521000FBF764FD0028FAD0B8690028E6D1387899
:105220002A28F9D0E2E7284608E70000D400002049
:10523000FFFF0F0014250020008001400020001017
:1052400010B50949086007204860402088600020A8
:10525000C8604FF4806008610846FFF7A3FABDE814
:1052600010400720FBF718BC002500202A2118B1A8
:10527000012801D0022802D1024AD06000E0262194
:1052800008467047D400002070B5FFF70FFC0446B5
:105290002A2821D11148FFF7E7FA104D0446686C1F
:1052A000010D0FA0FAF7FAFF13A0A96CFAF7F6FFA9
:1052B0002A2C11D1B5F84C000004FFF7C1FF0446B9
:1052C0002A2809D10020FFF793FA04462A2803D19F
:1052D0000220FFF7CBFF0446204670BD800B002064
:1052E0005344436172644361706163697479203D22
:1052F0002025644D420D0A0043617264426C6F6365
:105300006B53697A6520203D2025640D0A0000005A
:105310002DE9FC5F4FF0000680460C00174635462D
:10532000009664D0DFF888922A2189F80010C9F825
:105330001860A1489F49C9F81060C0E9001686604E
:10534000C66006614661FFF7ABF90020FFF7A2F9DE
:105350000020FFF7E5F9800102D50E20BDE8FC9F93
:10536000D9F80400022802D107024FEA5828781E13
:10537000B0F5006F3BD2074239D1384601F0DBFD72
:10538000DFF834A20190AAF1140A4FF0400BCAE9E9
:1053900002B61021CAE9007189015046CAF81010FE
:1053A000FFF700FA1020FBF777FB2A28D6D18048B8
:1053B000D14680680104CAF800100D21CAF8041013
:1053C0005046C0F808B04FF48061C0E903617A48E4
:1053D000DA46B3461438FFF7E5F90D20FBF75CFB1E
:1053E0002A28BBD10020FFF79BF9724E1CE0262033
:1053F000B4E76F48761E80680104C9F800100D21DB
:10540000C9E902ABC9F804106B484FF48061143845
:10541000C9F81010FFF7C6F90D20FBF73DFB2A284D
:105420009CD10020FFF77CF9C00502D4002EE0D10A
:1054300000E00EB9292091E71821C9E902ABC9E9BA
:1054400000815D484FF480611438C9F81010FFF7EF
:10545000A9F91820FBF720FB2A28C9D1DFF85081D1
:105460005548C8E9047B534AC8F82040C0E90027E2
:10547000019A01211201C0E9022BC0E904B146469C
:10548000FFF70EF9F068022854D1DFF8309140F2AE
:105490001A6A24E04FF48040FFF730F9F8B1D8F8E9
:1054A0001000401B202810D281074FEA900700D13E
:1054B00000E07F1C002605E02068FFF793F9761CCA
:1054C000241D2D1DBE42F7D309E0002654F8260006
:1054D000FFF788F9761C082EF8D320342035D9F848
:1054E000340010EA0A0FD5D00820FFF707F920B1E1
:1054F0000820FFF7C3F8042030E70220FFF7FEF88A
:1055000020B10220FFF7BAF8022027E71020FFF7AA
:10551000F5F820B11020FFF7B1F805201EE74FF491
:1055200000742046FFF7EAF880B32046FFF7A6F89C
:10553000072013E7454601280ED1012144F21A3015
:10554000FFF7F4F8A86910B928782A28FAD0287843
:105550002A281CD0287801E7C0B9012140F21A306E
:10556000FFF7E4F839462046FBF714FC0120FFF76B
:1055700091F8134C2046FBF7B1FB0028FAD0A8693C
:105580000028E4D128782A28F9D0E0E7FFE740F2A4
:10559000FF50FFF773F86846FCF73EF82A28ABD1B6
:1055A0009DF800100729F6D00629F4D0D6E60000B1
:1055B000D4000020FFFF0F001425002000800140D0
:1055C000002000102DE9FC5F07464FF000000C00A2
:1055D00016469946054600905ED0DFF8C0A22A2202
:1055E0008AF800208346CAF81800AE49AC4ACAF8C7
:1055F0001000C1E900208860C86008614861084661
:10560000FFF74EF80020FFF745F80020FFF788F875
:10561000800102D50E20BDE8FC9FDAF804000228C4
:1056200001D106027F0A701EB0F5006F34D2064227
:1056300032D1304601F07FFC01909A481021143895
:10564000C0E900614021C0E9021B09010161FFF7C7
:10565000A9F81020FBF720FA2A28DCD18F484FF058
:10566000400A806801048F48143801600D21C0E9A8
:1056700002AB41604FF480610161FFF793F80D20A8
:10568000FBF70AFA2A28C6D1B9F1010F72D909FB32
:1056900006F8B8F1007F01D32620BCE77F4E706882
:1056A00018B1012801D0022823D1B06801047D4837
:1056B000143801603721C0E902AB41604FF48061CA
:1056C0000161FFF76FF83720FBF7E6F92A28A2D12E
:1056D000744817211438C0E902ABC0E900914FF4B7
:1056E00080610161FFF75EF81720FBF7D5F92A28E2
:1056F00091D16C4819211438C0E900714FF4806AC7
:10570000C0E903BA40218160FFF74CF81920FBF78C
:10571000C3F92A28C1D10122C6E90482614860493F
:105720003462C0E900180199B1460901C0E9021BC1
:10573000C0E904B2FEF7B4FFF16840F21A30022962
:1057400073D1804627E000BF4FF48040FEF7D6FFBC
:1057500008B3D9F81000401B20280CD35FF00006D6
:1057600054F82600FFF73EF8761C082EF8D32034B4
:10577000203510E057E081074FEA900700D100E0A4
:105780007F1C002605E02068FFF72CF8761C241DFE
:105790002D1DBE42F7D34448406B10EA080FD3D00A
:1057A0000820FEF7ABFF20B10820FEF767FF0420BA
:1057B00031E70220FEF7A2FF20B10220FEF75EFFD4
:1057C000022028E71020FEF799FF20B11020FEF7F5
:1057D00055FF05201FE74FF400742046FEF78EFFAB
:1057E00020B12046FEF74AFF072014E74FF48070EF
:1057F000FEF784FF002841D0D9F8040018B1012831
:1058000001D002283AD127480C221438C0E900B24E
:10581000C0E903BA40228260FEF7C4FF0C20FBF708
:105820003BF92A28C4D129E0FFE74D4601290DD1D3
:1058300044F21A30FEF77AFFA86910B928782A28AE
:10584000FAD028782A2819D02878E4E6B1B90121BD
:10585000FEF76CFF0120FEF71DFF41462046FBF7D7
:1058600099FA124C2046FBF739FA0028FAD0A869B9
:105870000028E6D128782A28F9D0E2E740F2FF5044
:10588000FEF7FCFE6846FBF7C7FE2A2890D19DF87C
:1058900000100729F6D00629F4D0BCE6D400002079
:1058A000FFFF0F00142500200080014000200010A1
:1058B00010B586B0012141F20400FEF721FEE02080
:1058C000ADF8140018208DF817000320194C8DF83E
:1058D000160005A92046FBF7F9FBE0212046FBF75F
:1058E00071FC0020ADF800004FF48271ADF8021099
:1058F000ADF804000221ADF806100121ADF8081042
:105900004902ADF80A103821ADF80C10ADF80E00C0
:105910000720094CADF810006946204600F0A6F9B2
:105920000121204600F062F8FF2000F007F806B0E1
:1059300010BD0000000801400030014000210C4A69
:1059400003E0491CC9B2C82909D813899B07F8D5B7
:105950009081002005E0401CC0B2C82801D9002079
:1059600070471189C907F6D09089C0B2704700000E
:105970000030014002460548018821F038010180CD
:10598000018811430180012100F030B8003001404E
:1059900000210E4A03E0491CC9B2C8290BD8B2F84D
:1059A00008389B07F7D5A2F80C08002005E0401C3A
:1059B000C0B2C82801D900207047B2F80818C9073A
:1059C000F5D0B2F80C08C0B27047000000300040BB
:1059D00005490A8822F038020A800A8802430A80B0
:1059E0000121014800F002B8003800400029018878
:1059F00002D041F0400101E021F0400101807047F8
:105A000008B501211020FEF77BFD0C20ADF8000049
:105A100010208DF8030003208DF802006946074826
:105A2000FBF754FBFFF744FF00F07CF804490880C3
:105A300081B204A0FAF732FC08BD0000001001405A
:105A400034010020466C61736849443D3A30582562
:105A5000780D0A002DE9F05F06460C4692460020BC
:105A6000FFF788FF4FF40470B4FBF0F500FB154717
:105A700029460120FBF7FAF800F08CF8DFF8A0B017
:105A80000021CBF88811D420FFF758FF0020FFF742
:105A900055FF380AFFF752FFF8B2FFF74FFF00201B
:105AA000FFF74CFF00244FF00109D8462CE0FF20FF
:105AB000FFF744FF641C06F8010BA4B2E0194FF491
:105AC0000471B0FBF1F201FB1200E8B9C8F888914B
:105AD0006D1CB5F5805F20D229460120FBF7C6F882
