:020000040800F2
:1000000090240020CD01000891090008F3050008A4
:1000100039090008C5030008D132000800000000BB
:10002000000000000000000000000000D1300008C7
:100030000B04000800000000430300080515000839
:10004000E7010008E7010008E7010008E7010008F0
:10005000E7010008E7010008E7010008E7010008E0
:10006000E7010008E7010008E7010008E7010008D0
:10007000E7010008E7010008E7010008E7010008C0
:10008000E7010008E7010008E7010008E7010008B0
:10009000E7010008E7010008E7010008E7010008A0
:1000A000E7010008E7010008E7010008E701000890
:1000B000E7010008E7010008E7010008E701000880
:1000C000E7010008E7010008E7010008E701000870
:1000D000E7010008E7010008E7010008E701000860
:1000E000E7010008E7010008E7010008E701000850
:1000F000E7010008E7010008E7010008E701000840
:10010000E7010008E7010008E7010008E70100082F
:10011000E7010008E7010008E7010008E70100081F
:10012000E7010008E7010008E7010008E70100080F
:1001300000F002F800F03CF80AA090E8000C8244BD
:100140008344AAF10107DA4501D100F031F8AFF29A
:10015000090EBAE80F0013F0010F18BFFB1A43F0A5
:10016000010318477C3900009C390000103A24BF75
:1001700078C878C1FAD8520724BF30C830C144BF0C
:1001800004680C607047000000230024002500264E
:10019000103A28BF78C1FBD8520728BF30C148BFEA
:1001A0000B6070471FB5AFF300801FBD10B510BDC9
:1001B00000F086F81146FFF7F5FF03F0B7F800F0FE
:1001C000A4F8FFF7F3FF03F084F800000948804724
:1001D00009480047FEE7FEE7FEE7FEE7FEE7FEE729
:1001E000FEE7FEE7FEE7FEE704480549054A064B41
:1001F000704700009D31000831010008901E00206A
:1002000090240020902000209020002072B670479B
:1002100062B67047EFF3108072B6704780F31088B3
:10022000704730BF704720BF7047B0FA80F070470A
:1002300090FAA0F0B0FA80F0704790FAA0F0704702
:10024000704700000FB4054A054910B503AB794467
:10025000029800F010F810BC5DF814FB18000020A4
:1002600087300000704770477047704701694A1C2B
:1002700002610878704710B50C46194690B0CDE978
:10028000024200220692044A7A44CDE9042001A8E1
:1002900000F004F810B010BDE1FFFFFF2DE9F041C0
:1002A00006460024D0E90178C56802E04146B84717
:1002B000641C3046A8470028F8D12046BDE8F081EC
:1002C000754600F029F8AE4605006946534620F011
:1002D0000700854618B020B5FFF786FFBDE820402F
:1002E0004FF000064FF000074FF000084FF0000BF2
:1002F00021F00701AC46ACE8C009ACE8C009ACE8A5
:10030000C009ACE8C0098D4670470446AFF30080D1
:100310002046FFF756FF000000487047301E0020BF
:1003200018484FF0FF010170002080F3098816483B
:10033000016881F3088815484FF08051016062B66A
:10034000FEE772B6EFF3098028B1203880E8F00F9D
:100350000F490968086000B50E4880475DF804EB56
:100360000D480E490A78027009480D490A68026072
:10037000106890E8F00F203080F309884EF0040EEA
:1003800062B6704722ED00E02000002004ED00E09E
:10039000B8000020E91300085A0000205B0000208C
:1003A000BC00002010B54FF4407000F0F3FA00F0EC
:1003B0009DF800F0FFF9BDE810404FF416514820B9
:1003C00002F0BCBFFEE7000010B504490020086041
:1003D00000F016F8BDE8104000F002B81C00002044
:1003E00010B5FFF717FF04461021044800F0A5FAE6
:1003F0002046BDE81040FFF711BF0000380500207F
:1004000070474FF0E0208069704770474FF02042FE
:1004100002EB80000029016802D041F0010101E0F7
:10042000014A114001607047FEFF0F00F0B5D0E9AE
:10043000024241682143D0E904341A431143D0E910
:100440000623214311431943D0E9082311431943DB
:10045000D0E90A2311431943026B036811434FF09B
:10046000204242F823108168082906D1016802EB76
:1004700081010B6843F040030B60416BD1E90143FC
:100480001D020B68D1E9036743EA041345EA0645F8
:100490002B4343EA0755D1E9054345EA0461046863
:1004A000194302EB84035960C16AB1F5804F15D13D
:1004B000816BD1E901431D020B68D1E9046743EA6E
:1004C000041345EA065489692343006843EA076335
:1004D0000B4302EB8000C0F80431F0BD00686FF000
:1004E000704102EB8000C0F80411F0BD10B501218D
:1004F0007C2002F0E1FD10484FF6FF7101800021E1
:10050000C17001460D4800F023F80B490C4800F07B
:100510001FF809490B4800F01BF807490A4800F08A
:1005200017F80549094800F013F80021BDE810400C
:100530007C2002F0C1BD0000000000200008014046
:10054000000C01400010014000140140001801405F
:10055000F0B5CB780022DC0603F00F0301D58C78D0
:1005600023430C884FF00F0C14F0FF0F4FF0010ED7
:100570001AD006680D880EFA02F42540A5420FD164
:1005800095000CFA05F726EA070703FA05F6CD7879
:100590003E43282D01D1446102E0482D00D1046181
:1005A000521C082AE6D306600A88FF2A1ED946682C
:1005B0005FF0000202F108050EFA05F40D882540EF
:1005C000A5420FD195000CFA05F726EA070703FAB2
:1005D00005F6CD783E43282D00D14461CD78482DD5
:1005E00000D10461521C082AE4D34660F0BD0161C9
:1005F0007047FEE7074A41069369074843F0010345
:100600009361426822F0E062426042680A434260BD
:1006100070470000001002400000014000B58BB0A0
:10062000FFF7D2FE0AA800F0C1F900210AAB0322AD
:10063000059106A80EC00B465022CDE903230821E0
:100640000748CDE90101042300930023054A06A1D0
:10065000C03800F041FC0AA800F0B4FB0BB000BDAC
:1006600080010020613200085461736B2053746173
:100670007274000070B50A49064608884D88002447
:1006800045432146204600F04BF922204FF0C0415F
:100690000880044801E00680641CAC42FBD370BDB6
:1006A000241E002000000260044800218171F02116
:1006B00001804FF4A071418070470000241E00208B
:1006C00000B5012197B0080202F0EAFC0220019077
:1006D00000200521CDE902014FF08051CDE906014E
:1006E0000490059008900821CDE909011021CDE979
:1006F0000B100E900F900902CDE91001129013908B
:10070000149001A81590169008A8FFF78FFE0121FC
:100710000020FFF77BFE17B000BD000038B50121B7
:10072000602002F0C9FC10208DF8030003248DF82E
:10073000024040021D4DADF8000069462846FFF713
:1007400007FF8DF8024018208DF803004CF233703B
:10075000ADF8000069462846FFF7FAFE4FF68070B4
:10076000ADF8000069461248FFF7F2FE8020ADF8B0
:10077000000069462846FFF7EBFEEC14ADF8004098
:1007800069462846FFF7E4FE10212846FFF72FFFB1
:1007900020212846FFF72BFF80212846FFF727FF5F
:1007A00021462846FFF723FF38BD00000014014012
:1007B000001801402DE9F041FFF7B0FFFFF780FF7F
:1007C00000264FF0C04426804C4D01272F80304634
:1007D00000F09AF84A49888026802F80278043F6C7
:1007E0003F30288002212180201528800C20208085
:1007F0004FF0070EA5F800E00D2020804FF0060C0A
:10080000A5F800C00E2020804FF4485028801E20FC
:100810002080BB2028800320208046F6642028808A
:100820000F2020802E80442222804FF46F402880A9
:10083000452020802E804620208040F23F102880D6
:10084000302020802E803120208040F206702880C9
:100850003220208040F2062028803320208063153B
:100860002B80342323802980352121802E8036213E
:10087000218040F207712980372121807902298067
:100880003A21218040F6081129803B21218040F641
:100890000D71298028212180A5F800C02F212180F9
:1008A00041F2EB212980262121804FF4E04129806B
:1008B000202121804BF2E3012980272121802A80F9
:1008C0002E21218047F645612980102121802E802C
:1008D0001121218046F678012980A4F800E02880C3
:1008E000222020800120FFF7DFFE06480760BDE8D8
:1008F000F0414FF6FF70FFF7BDBE00000000026040
:10090000241E0020B481224210B54FF0C04108805F
:10091000052002F0DFFC0148008810BD00000260E5
:100920004E234FF0C0421380024B18804F2010809E
:100930001980704700000260FEE70A46002100F0BF
:1009400001B8000010B5002A21D000281FD00023D4
:100950004FEA0304641C41EA0323042CFAD310F089
:1009600003040BD004E000BF521E00F8011B641CFE
:1009700022B1042CF8D301E008C0121F042AFBD2D4
:1009800003E000BF00F8011B521E002AFAD110BD7F
:1009900070470000024908430249086070470000A0
:1009A0000000FA050CED00E07047704710B50446F2
:1009B00000F096F83C48002202703C480A21027080
:1009C0003B4802703B4802603B4802603B48027073
:1009D0003B4802703B4802703B4802703B4800684D
:1009E000B0FBF1F03A4908603A49086830B13A483A
:1009F000006818B1096804C0491EFCD1374802706C
:100A000001F03CFA01F0D2FA204600F08FFD208878
:100A1000002847D1204601F039F82088002841D12C
:100A2000204601F057F8208800283BD1204601F0ED
:100A3000D9F82088002835D1204601F04BFA2088CB
:100A400000282FD1204601F0BBFB2088002829D1A7
:100A5000204601F0CDFD2088002823D1204600F05B
:100A60008DFF208800281DD1204600F025FE20881B
:100A7000002817D1204602F061F92088002811D102
:100A8000204601F013FD208800280BD1204602F0FB
:100A9000A9F92088002805D100F046FDBDE81040E6
:100AA000FFF782BF10BD00002C0000202D000020A9
:100AB00066000020B8000020BC0000205A00002082
:100AC0005B0000205C0000206C000020A83A0008B9
:100AD00068000020803A00087C3A00089A00002054
:100AE00030B5094B0021094A0C46186801E010C0D6
:100AF000491C1568A942FAD31868054900EB85001E
:100B0000001F086030BD00007C3A0008803A0008F1
:100B10002000002010B51B480078012830D1FFF7D5
:100B200079FB19490446087828B3401E10F0FF00ED
:100B3000087020D115480078E8B901F08DF9144902
:100B40000870C0B2134900EB400051F82000124970
:100B500008601249096888420DD050F8901F491C5E
:100B600001600F490868401C08604FF080504FF04A
:100B7000E021C1F8040D2046BDE81040FFF74EBB50
:100B800010BD00002D0000202C0000206600002079
:100B90005B000020641A0020BC000020B800002088
:100BA0009000002010B517480078002829D1164879
:100BB0000078002825D1FFF72DFB044601F04CF901
:100BC00012490870C1B201EB4100114951F82010DF
:100BD000104801601048006881420DD051F8900F14
:100BE000401C08600D490868401C08604FF08050A8
:100BF0004FF0E021C1F8040D2046BDE81040FFF79A
:100C00000DBB10BD2C000020660000205B00002002
:100C1000641A0020BC000020B800002090000020D2
:100C200070B504460E48007810B146F6625015E0E3
:100C30000C480078012802D045F689600EE00A4D84
:100C40002878FA2802D345F2092007E0FFF7E2FAF4
:100C50002978491C2970FFF7E1FA0020208070BD37
:100C60002C0000202D0000206600002070B50446F6
:100C70001348007810B146F665501EE01148007820
:100C8000012802D045F6896017E00F4D287810B989
:100C900046F6645011E0FFF7BDFA2978491E11F0BD
:100CA000FF01297004D0FFF7B9FA46F6635004E05B
:100CB000FFF7B4FAFFF776FF0020208070BD000038
:100CC0002C0000202D000020660000202DE9F041BE
:100CD000044619488846007817461D4610B142F66A
:100CE000E16002E024B945F6C3502880BDE8F081F8
:100CF000FFF790FA114E3178491C3170FFF78EFAE8
:100D000027620F4820600027C4F8048004F108001F
:100D1000676200F0E1FF204601F040FA09480188CF
:100D2000491C0180FFF776FA3178491E3170FFF7D0
:100D300075FA2F80DAE700002C0000206600002002
:100D400053454D41740000202DE9FF4106000C463B
:100D5000154602D145F6C3500BE064B1B4F5007FEF
:100D600009D0B4F5004F06D0B4F5024F03D045F6D4
:100D70002560288018E0114F3068B84202D045F64F
:100D8000C450F6E7FFF73DFB0D492B4609780246B4
:100D9000002921460CD000208DE80F0003460246B2
:100DA0003146384600F0BEFC002004B0BDE8F081BA
:100DB000304604B0BDE8F04101F00EBA53454D4154
:100DC0002C00002070B50F4D04462878B0B901F012
:100DD00043F80D4908700D49C0B208700C4900EB8A
:100DE000400051F820000B4908600B4908600120C1
:100DF0002870FFF795FA43F6992001E045F68A60DE
:100E0000208070BD2D0000205B0000205A000020D3
:100E1000641A0020BC000020B80000202DE9F04139
:100E20000646FFF7F7F9224900250D6021490D809C
:100E300021490D8021490D6021490D6021490D6036
:100E400021490D81FFF7EAF9FFF7E4F91F490C6822
:100E500014E000BFFFF7DEF944F8785F2563A56171
:100E6000A582E58265620746A562FFF7CAFA20629D
:100E7000783CA4F87050D4F8B8403846FFF7CEF963
:100E8000002CE7D1FFF7C6F911490C6804E000BF58
:100E9000FFF7C0F9A585A469FFF7C0F9002CF7D1C9
:100EA00001F07CFE02F06AF83580BDE8F0810000B8
:100EB000400000203A0000207A0000208C00002032
:100EC000A0000020A8000020581A00209400002054
:100ED00060000020704700002DE9FF4F83B00446FA
:100EE0006048DDE917A5DDE910780078DDF8549059
:100EF000139E10B147F24A1027E014B947F2AD1023
:100F000023E0059810B947F24F101EE0B8F1000F2A
:100F100002D146F62F6018E053480068864202D29C
:100F200046F6306011E01298B04202D346F63160C6
:100F30000BE046F27320202F07D20FB94B4902E095
:100F40001F2F06D14A498C4203D0288007B0BDE844
:100F5000F08F204601F05CFB4FF0000BA5F800B0CD
:100F60005FEACA700AD05FEA8A7007D5414600205E
:100F70005A4601E004C1401CB042FBD31299CDE9AE
:100F8000006A08EB8105DDE905012B46424600F0C9
:100F9000EDF90599A1620699E1620499216284F84C
:100FA0003770C4F85490A5602060B9F1000F02D1E9
:100FB0003048006800E04846A0651698C4F82480D0
:100FC000A6636060A4F83CA00020594604EB8002B0
:100FD000401CD16710F0FF00F8D004F164001499B0
:100FE00000F0B6FD204600F04FF8FFF713F9224D50
:100FF0002978491C2970FFF711F994F8370000F09F
:1010000049FF204601F018F8204601F0C3FA1B49B9
:101010000888401C08801A480078012816D0FFF77D
:10102000F9F82978491E11F0FF01297009D11549F5
:10103000098831B1FFF7F2F807B0BDE8F04F01F0D1
:1010400059B807B0BDE8F04FFFF7E8B8FFF7E2F88E
:101050002978491E2970FFF7E1F807B0BDE8F04F85
:10106000FFF7A0BD2C000020A43A0008981900202A
:10107000D81800206800002066000020980000209A
:101080002D000020380000207047000070B5044695
:101090003D480D46007810B147F24E1071E03B48D4
:1010A000844202D147F24C106BE03948844202D1AD
:1010B00047F24D1065E02CB9FFF7ACF835490C68E4
:1010C000FFF7ACF8FFF7A6F8334E3178491C3170C2
:1010D000FFF7A4F894F8360008283ED2DFE800F0C5
:1010E00004080C0C1C080C0C204600F0D9FF13E07F
:1010F000204601F037FD0FE0204601F033FD94F863
:101100003400072808D2DFE800F0070407040404CD
:101110000400204600F012FE04F1640000F0FEFC22
:10112000204600F03FF8204601F046FA1B490888A7
:10113000401E0880204601F06BFAFF2084F836003C
:10114000FFF768F83178491E3170FFF767F8002023
:101150002880BDE87040FFF725BDFFF75BF83178C8
:10116000491E11F0FF01317007D10D49098821B1E5
:10117000FFF754F800F0BEFF01E0FFF74FF846F626
:101180002D60288070BD00002C000020D8180020A1
:1011900098190020B8000020660000209800002068
:1011A00038000020704770472DE9F04782464948D3
:1011B0000F46007814461D4610B146F2AE103DE0D1
:1011C0002FB1B7F5004F02D045F6256036E0002676
:1011D00004B12660FFF71EF8DFF8FC808146D8F8DE
:1011E0000000416CD1B1491E4746884641640CB1AC
:1011F000006C2060FFF705F939680A6C801AC1F8A5
:10120000A400D1F8A820824201D2C1F8A800484623
:10121000FFF704F82E804046BDE8F087380405D576
:101220004846FEF7FBFF46F2B01007E02B4F387838
:1012300038B14846FEF7F2FF46F66350288000209A
:10124000EAE7012038704846FEF7E8FF00215346E0
:101250000722084600F0D2FCFEF7DCFF3978491E71
:101260003970FEF7DBFFFFF79DFCFEF7D3FFD8F8E0
:101270000010814691F83500474648B101281FD03B
:10128000032823D104B1266047F2D920288010E03A
:1012900074B1086C2060FFF7B4F839680A6C801AE2
:1012A000C1F8A400D1F8A820824201D2C1F8A80058
:1012B0002E803868446C4846FEF7B0FF2046ABE706
:1012C0000CB1086C206046F2A910DFE746F62E60EC
:1012D000DCE700002C000020B800002066000020A1
:1012E0002DE9F04104461F480E46007817461D467A
:1012F00010B147F2591020E046F2D520EEB1E7B127
:10130000FEF788FF0CB918490C684FF000082168F7
:1013100041B9FEF783FFC6F8008047F25210C7F8C4
:1013200000800AE0A18FC9070AD1FEF777FFC6F84F
:10133000008047F25410C7F800802880BDE8F08193
:10134000FEF76CFF0020616A01E0091D401C0A687D
:10135000002AFAD03060A16B081A3860A5F8008026
:10136000ECE700002C000020B800002010B5029C23
:1013700002EB84024FF0807442F8044D42F8040DF1
:10138000184842F8040D121F4FF012341046146032
:101390004FF0033240F8042D4FF0023240F8042D94
:1013A00040F8043D40F8041D4FF0113140F8041D91
:1013B000D10040F8041D611040F8041D910040F870
:1013C000041D4FF0073140F8041D4FF0063140F87E
:1013D000041D4FF0053140F8041D510040F8041D74
:1013E00010BD00008128000810B5FFF70AF8084971
:1013F000084A09681268914206D094314B68C31AB2
:101400000B608C6823448B60C2F8980010BD00000C
:10141000B8000020BC0000202DE9F0410646254818
:1014200088460078144610B147F275203EE0224D00
:10143000287810B146F6635038E05FEA080005D01E
:10144000022803D0042808D0082803D12EB947F277
:101450007E202BE045F6256028E0FEF7DBFE2978AC
:10146000491C2970FEF7DAFE144F01213868234623
:1014700080F836104246314601F00AFB208840B120
:10148000FEF7C8FE2978491E2970BDE8F041FEF735
:10149000C5BE386800F004FEFEF7BCFE2978491E80
:1014A0002970FEF7BBFEFFF77DFB00202080BDE822
:1014B000F08100002C00002066000020B800002011
:1014C00000B585B000F01CF8FEF79BFF04ABCDE93A
:1014D000020300210748009101910078064900EBC2
:1014E000400001EB800100231A46044800F01AF97D
:1014F00005B000BD5A000020641A00205449434B37
:101500007047000010B5FEF785FE064A1178491CA9
:101510001170FEF783FEFFF7D3FFBDE81040FFF721
:10152000F9BA00002C00002070470000034A002197
:101530001160034A118001807047000044000020C0
:10154000480000202DE9F04704460E4690469A4692
:10155000089DFEF75FFE5FEA08011AD0012906D058
:10156000B1F5004F15D06FF40042891814D1216AEB
:1015700031EA0601C4E9081A218A04F108064FF08D
:10158000000971B9FEF74AFEA5F80090206ABDE88F
:10159000F087216A3143EDE7FEF740FE45F625600E
:1015A0004CE0284F3978491C3970FEF737FE366811
:1015B00018E0B0F88810766801F00F0104290AD00D
:1015C000082927D1216AD0F88020114009D052463D
:1015D00000F03CF805E0216AD0F8802011408A42F2
:1015E000F5D016B1B0680028E3D1FEF713FE3978C4
:1015F000491E3970FEF712FE5FEA084001D4FFF77A
:10160000D1FAFEF707FE246AFEF708FEA5F800905F
:101610002046BCE7FEF7FEFD3978491E11F0FF01B8
:10162000397007D10849098821B1FEF7F7FD00F0AC
:1016300061FD01E0FEF7F2FD43F6FF202880002067
:10164000A5E70000660000203800002070B500F11A
:10165000340400252165657025700264A078343C4F
:1016600008280ED2DFE800F00D0D04040D0D0A0A63
:10167000204601F099F884F8365002E0042084F8FE
:1016800036002046BDE8704000F058BB70B5084DEC
:10169000084C00BFFEF7BEFD2968491C296021687F
:1016A000491C2160FEF7BAFDFFF77FF9F2E7000061
:1016B000280000207C00002000B50F4A89B00021DE
:1016C00011600B22CDE9061208900C4805910268C2
:1016D0000B480B4601680B480068CDE90323CDE9B0
:1016E00001011F2300930023074A08A10C48FFF7BC
:1016F000F3FB09B000BD0000280000205C3A0008A0
:10170000583A0008543A00088D16000875432F4FC8
:10171000532D4949492049646C65205461736B001D
:10172000D81800202DE9F84FDDE90BAB05460E4631
:1017300017469846DDF828900D9CFEF76BFD1D4975
:1017400000901D4A0888128890422BD2401C80B21B
:101750001A4A08801188814200D21080184908680E
:10176000C0E902670560A0F81080C0F81490A0F8E6
:1017700018A0C0F81CB0406808601248012101811F
:10178000114901604160002000F084FB0F4800789F
:1017900008B10F490870002020800098BDE8F84F7C
:1017A000FEF73CBD0B490888401C088044F253609A
:1017B000F2E70000380000204C3A00083A00002010
:1017C00030000020641A0020981900205A000020E0
:1017D0005C0000203C0000203EB5394C394A2068AE
:1017E00001688B1A91424AD016DC374A891830D0EA
:1017F000364A891824D0364A891836D0354A89188D
:1018000009D102ABC269CDE90023038B028AC1680A
:10181000806800F055FF3EBD2F49591820D02F4A4F
:10182000891827D02E4A8918F5D102ABC269CDE9B3
:101830000023038B028AC168806800F057FB3EBD1D
:1018400002AB0093028BC36941698068FFF77AFE9F
:101850003EBD018BC269806802AB00F0BDFC3EBD9D
:10186000806802A900F0AEFF3EBD018BC2698068AE
:1018700002AB22E0806802A901F0A0F83EBD194841
:101880001949007800EB400001EB800000F056FCA5
:10189000206802ABC2690021144800F0FDFF144922
:1018A0000868401E0860E9D1124800680860FEF729
:1018B000A8FD024602AB00210F4800F0EDFF3EBD3F
:1018C000340000205449434BADBAB2BE0DF90BFAB7
:1018D000F2F8F7FF0006F6FF00F7FDF700FFEFFF55
:1018E00003FE0FFE5C000020641A0020A41C0020F0
:1018F000B4000020B0000020641D00202DE9F0415C
:101900001A4F1B4CDFF86C80002600BFFEF782FCEC
:101910000546208860B918490020088108604860A1
:1019200000F0C8FA2846FEF779FCFFF73BF9E9E733
:101930002846FEF773FCFEF764FD0546FFF74CFFF3
:10194000FEF75FFD3968401B814200D23860FEF728
:1019500061FCD8F800104968C8F800102188491EB9
:101960002180FEF75BFC002ED0D0CBE740000020AA
:101970003800002034000020641A0020F0B52D4902
:1019800089B000252C4B0D80196811B944F25261C1
:1019900037E02A4E3188022902D244F2546130E005
:1019A000274900220D601968DFF898C001F1200472
:1019B0000BE08D60C1F800C0CD600D824D610D83DC
:1019C0004C6020312034521C92B23788BA42F0D396
:1019D0001A6841F81C2C1C491F4C0A601B490A60FC
:1019E0001B490D801B490D80216811B944F25561D6
:1019F00007E01A4D1A4A29681268914204D244F24B
:101A00005661018009B0F0BD00210322CDE9061224
:101A10000890059113480B46016820682A6801ACBC
:101A20000FC40023104A11A117480093FFF754FA7E
:101A3000E8E700003C000020643A00084C3A000847
:101A4000400000204E4F4E45300000203400002062
:101A5000380000203A0000206C3A0008743A000870
:101A6000A43A0008703A0008FD18000875432F4F8B
:101A7000532D4949492049535220517565756520B8
:101A80005461736B0000000098190020034A002184
:101A90001160034A11800180704700004C00002053
:101AA0005000002010B5491E8CB2002100F1100238
:101AB0000B4607E0C0E900230381C36010301032F9
:101AC000491C89B2A142F5D3036043600381C3601E
:101AD00010BD000070B50E4D0446286810B945F2DF
:101AE0001E7004E00B4E308818B945F21D7020803E
:101AF00070BD31882868FFF7D5FF07482968016065
:101B0000318881800021C1800181218070BD000069
:101B10008C3A00084E3A0008581A002010B5428945
:101B200092B10A4903680C681C6043680B60CB885B
:101B300044891B1BCB808B88448923448B800021E4
:101B40004181818101604160104610BD581A00201A
:101B50000181002141818181016041607047000065
:101B6000F0B544890589DDE905E7AC4202D346F2C8
:101B7000935004E01A4EB5881DB945F21D703880A7
:101B8000F0BD34686D1ED4F800C0C6F800C0B58042
:101B9000F5886D1CADB2F580B6F808C0AC4500D232
:101BA0003581468900251EB90460012344600BE09D
:101BB000DB0604D403681C602560046002E043680F
:101BC0002360446043895B1C438186899BB29E42AB
:101BD00000D2838161602281C4F80CE03D80F0BDB9
:101BE000581A0020034A00211160034A1180018025
:101BF0007047000054000020580000202DE9F041FB
:101C0000114D074628680C4680F8342000261946F6
:101C100080F8356000F0A8FC64B1FC6004F10806AF
:101C200001223946286800F011F83946304600F0A4
:101C300058F802E02868C687066320462968BDE890
:101C4000F04100F017B80000B800002010B5C287BE
:101C500000242346016309E04B600B600B614B617C
:101C60000B83CB6188602031641CA4B29442F3D30F
:101C700010BD000038B14368C1F8BC308168896884
:101C8000096AC161704791F83400022805D007281D
:101C900005D104A0C1F8BC00704705A0FAE706A072
:101CA000F8E700005461736B2053656D000000007D
:101CB0005461736B2051000020000000054AC1F8F8
:101CC000BC20816811B18968096A00E00149C161DD
:101CD00070470000DC3A000800210160416001818A
:101CE000704730B58A68002592F8374002892AB9D2
:101CF000012202814D600D60016011E0521C0281E1
:101D0000026805E0936893F83730A34203D852681D
:101D1000002AF7D100E02AB94D6042680A6051609C
:101D2000416030BD136823B91160C1E90052016000
:101D300030BDC1E900325960116030BD70B5064652
:101D4000C48F056B07E0E8682946083000F009F801
:101D50002035641EA4B2002CF5D10020F08730633A
:101D600070BD10B502890024012A02D104604460CC
:101D70000CE00A681AB94A681460026006E04B6811
:101D800013B95460426001E053601A600289521E28
:101D900002814C600C6010BDF8B505460C46184633
:101DA00091F836100026069B082941D2DFE801F0A1
:101DB000404004044040212194F83410032906D106
:101DC000009303462146284600F033F803E0E2651D
:101DD000A4F86000236435B12046FFF7AFFF214629
:101DE0002846FFF76BFF204600F0DEFC3434A67077
:101DF0001CE094F83410032906D1009303462146D1
:101E0000284600F016F803E0E265A4F860002364B9
:101E1000204600F0A7FE35B12046FFF78FFF214690
:101E20002846FFF74BFF04203434A07066702670FC
:101E3000F8BD70B50C6B049DC98F0AE0E668864258
:101E400004D1C4E904022383E56170BD2034491E36
:101E500089B20029F2D170BD10B50024064802E015
:101E60002034E4B2001D01680029F9D00846FEF7CD
:101E7000DCF92044C0B210BD240000200020044A38
:101E8000014600BF42F82010401CFBD07047000004
:101E90002400002000F01F0241090120C2F11F02AE
:101EA000034B904053F82120024343F82120704710
:101EB0002400002000F01F0241090120C2F11F028E
:101EC000034B904053F82120824343F82120704770
:101ED00024000020034A00211160034A1180018080
:101EE0007047000060000020640000202DE9FC5FC6
:101EF00080468A4693461E46DDF83490FEF78AF9FE
:101F0000284F3978491C3970FEF788F9B8F8104025
:101F100008F108001CBBF00601D4002000E01020EE
:101F20000C9ACDE9002903465A46514608F1200093
:101F3000FFF716FEFEF76EF93978491E11F0FF0122
:101F4000397008D11849098829B1FEF767F9BDE849
:101F5000FC5F00F0CFB8BDE8FC5FFEF75FB9B105EC
:101F600000D4012405680AE0A9686D680C9B009301
:101F70005B4652464046FFF70FFF641EA4B2002C9A
:101F8000F2D1FEF747F93978491E3970FEF746F964
:101F9000300401D4FEF706FE0020A9F80000BDE8D9
:101FA000FC9F000066000020380000200020074B46
:101FB000024600BF00EB400103EB81010A81401C97
:101FC0000A60C0B24A602028F4D37047641A002027
:101FD00010B5044690F83700FFF75CFF074994F806
:101FE000370009788842204603D1BDE8104000F050
:101FF00023B8BDE8104000F003B800005A000020EC
:1020000090F837100B4A01EB410102EB81010A897C
:10201000002332B901220A81C3600361086048606D
:102020007047521C0A810A68C0E903230A681061DC
:1020300008607047641A002090F837100A4A01EBD4
:10204000410102EB81010A8900232AB901220A8198
:10205000C3600361086005E0521C0A81C3604A68DE
:102060000261D06048607047641A002010B5018991
:1020700000290CD001290AD000240229016807D1C7
:102080004268C1E90342C2E90314C0E9002110BD5E
:10209000CA6843681461C1E90343D960F5E70000E9
:1020A00070B5044690F83700114900EB400001EB91
:1020B0008000D4E90312002572B939B905810560A1
:1020C000456094F83700FFF7F5FE0DE00289521ED7
:1020D00002810D61016007E003895B1E0381D1600D
:1020E00009B9426000E00A612561E56070BD000049
:1020F000641A002010B5FEF78DF80C4A002111700B
:102100000C4A0B49116051F8902F521C0A600A4A80
:102110001168491C11604FF080514FF0E022C2F865
:10212000041DBDE81040FEF779B800005B000020F8
:1021300098190020BC0000209000002070B50546D2
:1021400012480078012820D1FEF764F80446286878
:10215000B0B10F49884213D0816D11B1491E81651C
:102160000ED1288902280BD30A48007840B92846A6
:10217000FFF77CFF2868416D09B907490968816547
:102180002046BDE87040FEF749B870BD6C000020E5
:10219000D81800206600002068000020002206A158
:1021A000064B4261C161196809B9826101E0816130
:1021B0004861186070470000200000007000002097
:1021C000034A00211160034A11800180704700001A
:1021D00070000020740000202DE9F84F0646884664
:1021E00093461F46FEF716F8318A06F108054FF0B0
:1021F000000A81B9346A611C07D1FEF70FF846F670
:10220000C55038800020BDE8F88F641CC6E9084B33
:10221000FEF704F82CE0DFF8609099F80010491CF4
:1022200089F80010FDF7FAFF5FEA885001D52C8984
:1022300000E001242D680AE0A9686D6800231A46B1
:102240003046CDF800B0FFF7A7FD641EA4B2002C05
:10225000F2D1346AFDF7DEFF99F80010491E89F8C3
:102260000010FDF7DBFF5FEA084001D4FEF79AFC9F
:10227000A7F800A02046C6E7660000202DE9FC5F15
:10228000794D7A4C2868460004E001AA00213046C6
:10229000FFF7C2F820780128F7D101A8FEF7BEFDAC
:1022A00073482A680168914204D9B1FBF2FBBBF183
:1022B000000F03D100680A21B0FBF1FB4FF47A79DB
:1022C000DFF8B0A142F210764FF00008FEF799F85F
:1022D0000090FDF79FFF6849684C0A682260C1F8CA
:1022E0000080FDF79BFF6648236802689A4228D960
:1022F0006448824202D23046012113E062488242A1
:1023000002D248460A210DE06048824202D264208F
:10231000014607E05E48824202D20A20494601E0B7
:1023200001203146B2FBF1F15843B0FBF1F0301A15
:10233000584980B2088058490A88824203D20880EE
:1023400001E054480680FEF7C5FD0025FDF762FF59
:10235000DAF8004025E000BFFDF75CFF4F4F397809
:10236000491C3970FDF75AFF54F89C0F606044F81F
:102370009C89FDF74FFF3978491E11F0FF01397034
:1023800007D14749098821B1FDF748FFFFF7B2FEA1
:1023900001E0FDF743FF54F8A00F0544FDF73AFFB5
:1023A000A469FDF73BFF002CD6D1E5B13548854245
:1023B00002D23746012013E03348854202D24F460D
:1023C0000A200DE03148854202D26427384607E0F2
:1023D0002F48854202D20A27484601E001273046AD
:1023E000B5FBF0F501E000270125FDF713FFDAF852
:1023F00000401CE0D4F8A00031467843B0FBF5F073
:1024000080B2B04200D90846A4F88C00B4F88E100F
:10241000814201D2A4F88E0004F1AC0201AB111D7F
:102420002046FEF75DFFFDF7F5FED4F8B840FDF756
:10243000F5FE002CDED11B480178012904D180F87B
:10244000008001A8FEF7EAFCFDF7DBFF0099401AC7
:1024500015490A68824200D2086001AA0021584644
:10246000FEF7DAFF32E70000903A0008880000200B
:10247000A83A0008940000207C000020840000207E
:1024800080000020801A060000093D00005A620208
:102490000084D717780000207A0000206600002012
:1024A00038000020760000208C00002070B51D4A06
:1024B0008AB0002111601C4A1F4C11601B4A116038
:1024C0001B4A11701B4A1170216811B946F62B6125
:1024D0000EE01A4E1A4A31681268914202D246F64C
:1024E0002C6105E0174D29781F2904D346F62A618F
:1024F00001800AB070BD00210322CDE906120890C8
:10250000059111480B4601682068326801AC0FC480
:102510002B78009300230D4A0DA11248FEF7DCFC36
:10252000E7E700007C0000208400002080000020FD
:102530008800002076000020943A00089C3A0008A9
:10254000A43A0008483A0008983A00087D2200089A
:1025500075432F4F532D49494920537461742054BA
:1025600061736B00E41B002038B50446022559B1A5
:102570006B460222204600F08BFABDF8000018B925
:10258000032084F8360001E084F836502046FFF737
:1025900087FD38BD0022074BC0F8B420196811B977
:1025A000C0F8B82003E0C0F8B810C1F8B400186053
:1025B0007047000094000020D0E92D2100233AB993
:1025C0000A4A116009B1C1F8B430C0F8B830704798
:1025D00021B9C2F8B830C0F8B4307047C2F8B810AA
:1025E000B430C1F8B4204360036070479400002009
:1025F000044A00211160044A1180044A11600180DC
:1026000070470000940000209800002090000020F7
:1026100070B50025056085604560C5600561456150
:1026200085610446C56123A0C4E90805A562E56289
:102630002563E5872564E565A4F86050002104F171
:102640006400FFF785FA44F8745F6560E560A58271
:102650002561743C5FF0000004EB8001401CCD67F5
:1026600010F0FF00F8D03434256125676567656098
:1026700084F85650E567A56725814FF00040C4E90E
:102680000505E56125626562A4F85850A4F85A5022
:10269000E5652566FDF7B5FEC4E919052570657089
:1026A000A5702020E070C4F8805044F8845F03A037
:1026B000606070BD3F5461736B000000200000003B
:1026C0002DE9FC5FDDE90CB7044689469246984641
:1026D000FDF7A0FD314D2978491C2970FDF79EFDBD
:1026E0000CB92F4804680020388094F836002D4E2D
:1026F00008283CD2DFE800F004041D1D04041D1D61
:10270000CDE900B743465246494604F16400FFF75D
:1027100027FAFDF77FFD2978491E11F0FF01297086
:1027200021D13188F9B1FDF779FDBDE8FC5FFFF7F4
:10273000E1BC94F834000228E2D153464A462146CF
:102740000020CDF800B0FFF727FBFDF763FD2978E7
:10275000491E2970FDF762FD5FEA08401BD4BDE801
:10276000FC5FFEF71FBABDE8FC5FFDF757BDFDF744
:1027700051FD2978491E11F0FF01297006D13188D9
:1027800021B1FDF74BFDFFF7B5FC01E0FDF746FD7C
:1027900046F62D603880BDE8FC9F000066000020F2
:1027A000B80000203800002010B5044600F0DAF927
:1027B00094F83600400704D42046BDE81040FFF7E7
:1027C00007BC10BD70B504460D46FDF723FD00267D
:1027D0002E8094F8361008294AD2DFE801F004046C
:1027E00004040A23333DFDF719FD47F253102880F6
:1027F00024E0224D2978491C2970FDF70FFD94F83B
:102800008A00401E10F0FF0084F88A0004D184F88A
:1028100036602046FFF7C8FFFDF7FCFC2978491E0B
:10282000297009E094F88A10491E11F0FF0184F81C
:102830008A1001D1012118E0FDF7F0FCBDE87040DD
:10284000FEF7B0B994F88A10491E11F0FF0184F820
:102850008A10F1D1022108E094F88A10491E11F083
:10286000FF0184F88A10E7D1032184F83610E3E7EA
:10287000FDF7D4FC46F62D60288070BD6600002070
:1028800008B504480068FEF78EFC69460020FEF794
:10289000FDFB08BDB80000202DE9F84F04468A462C
:1028A00090461D46FDF7B6FC414E3178491C31700B
:1028B000FDF7B4FC0CB93F4804680020C4F8408020
:1028C000288094F836003C4F46F6C559082856D261
:1028D000DFE800F04040252540402525FDF79EFC1F
:1028E000FFF708FC02E000BFFDF798FCA5F8009098
:1028F0000020BDE8F88F00BF08F10108C4F844804B
:10290000FDF788FC3178491E11F0FF01317033D199
:10291000398881B3FDF782FCFFF7ECFB45E094F8C2
:102920003400072816D100231A4621461846CDF850
:102930000080FFF731FAD4F84480FDF76BFC317862
:10294000491E3170FDF76AFC5FEA0A402DD4FEF79C
:1029500029F92AE0D4F8448018F10100CCD1FDF720
:1029600059FC3178491E11F0FF013170BCD1398812
:102970000029B9D0B2E7FFE7FDF750FC15E0FDF7FD
:1029800049FC3178491E11F0FF01317006D13988B8
:1029900021B1FDF743FCFFF7ADFB01E0FDF73EFC85
:1029A00046F62D6028804FF000084046A1E7000061
:1029B00066000020B8000020380000202DE9F0411A
:1029C00004460D46FDF726FC244904B90C68096845
:1029D000234F8C4206D1397821B1FDF71FFC46F612
:1029E000635038E00021298094F836100126082928
:1029F0002DD2DFE801F004171F2127272727397878
:102A0000491C3970FDF70AFC042084F8360084F86C
:102A10008A602046FFF744FBFDF7FCFB3978491E2E
:102A2000397001E0052108E0FDF7F8FBBDE8F04151
:102A3000FEF7B8B8062100E0072184F8361084F8C4
:102A40008A60F1E714F88A1F491C2170ECE7FDF752
:102A5000E5FB46F62D602880BDE8F081B800002037
:102A60006600002010B500200246074B074C06E028
:102A700003EBC0010A608A80401CCA8080B22188B2
:102A80008842F5D310BD0000C8150020503A000858
:102A9000F0B5314C0025246847F27E26042A08D17F
:102AA0000A1B521E12F5803F2BD8521CC0E913128C
:102AB00015E031B3284E082A36680E440DD1826CD9
:102AC0000A44171B7F1E8F4201D2C26400E0C66415
:102AD000C16C0A1B0265816401E0C0E913611F4AF1
:102AE000C16C12881E4EB1FBF2F702FB171189B2BE
:102AF00006EBC102918849B94561856101211060E9
:102B000021E0C5640565C5611E80F0BD1168C1B1D5
:102B1000CE6C361B0E65076DB74207D94E690EB1F4
:102B20003146F5E7C0E9055148610AE08C6924B9EE
:102B3000C0E905158861106003E0C0E90514606113
:102B400088619188491C9180D48889B28C4200D2D6
:102B5000D180C2611D80F0BD9C000020503A000869
:102B6000C815002010B5C169002915D000240465DE
:102B70000A68824204D142690A6032B1946104E079
:102B8000D0E905235A6102B1936144618461C46153
:102B9000C4648888401E888010BD000010B50020E5
:102BA0000246064B064C04E003EBC001401CCA8001
:102BB00080B221888842F7D310BD0000C8150020DC
:102BC000503A00082DE9F05FFDF724FB4B490A78E5
:102BD000521C0A70FDF722FBFDF713FC484E83469A
:102BE00030684849401C306009880025B0FBF1F28C
:102BF00001FB1200444980B251F830402F464FF09B
:102C000003094FF0040A002C59D094F83610D4F878
:102C10001480082950D2DFE801F04F044F114F27EC
:102C20004F34E06C31688842A0EB0100206542D14E
:102C300084F836702046FFF7B7FD3DE0E06C316860
:102C40008842A0EB0100206535D1E765A4F86070EB
:102C5000FDF7D7FB20642046FFF770F82046FFF70A
:102C6000A3FD3434A77022E0E06C31688842A0EB09
:102C7000010020651FD184F836A02046FFF772FFBF
:102C80001AE0E06C31688842A0EB0100206512D1A7
:102C9000E765A4F86070FDF7B4FB20642046FFF7F9
:102CA0004DF82046FFF75EFF343484F802A084F824
:102CB0000190277000E001254446002DA3D0FDF7C8
:102CC000A0FB1249A0EB0B000A68824200D2086008
:102CD000FDF7A0FA094A1178491E11F0FF011170A1
:102CE00008D10B49098829B1FDF798FABDE8F05FD2
:102CF000FFF700BABDE8F05FFDF790BA660000206C
:102D00009C000020503A0008C8150020A0000020B8
:102D1000380000201CB5084C002101AB6A4608466B
:102D2000FEF742FABDF804000028F5D1207801280A
:102D3000F2D1FFF747FFEFE72D000020F0B5044682
:102D40001A4989B00020086019490860FFF78AFE17
:102D5000184D286810B947F212200EE0164F174997
:102D600038680968884202D247F2132005E0144E01
:102D700030781F2804D347F21120208009B0F0BD1D
:102D800000210B22059106A816C00E480B460168CB
:102D900028683A6801AC0FC43378009300230A4ACC
:102DA0000AA10F48FEF798F8E8E700009C00002011
:102DB000A0000020AC3A0008B43A0008A43A000889
:102DC000493A0008B03A0008152D000875432F4F06
:102DD000532D494949205469636B205461736B003A
:102DE000A41C002070B529498AB000240C60284B2F
:102DF000284A29491D6812680DB12B4600E00A23B4
:102E0000B2FBF3F20A601146244A274B11602449B1
:102E1000264D0C6023490C60002106E003EBC10243
:102E20009480D480491C89B214602A889142F5D3D9
:102E30001F4C216811B947F247310EE01D4E1E4A62
:102E400031681268914202D247F2483105E01B4DC9
:102E500029781F2904D347F2463101800AB070BD9A
:102E600000210B22CDE906120890059114480B466B
:102E700001682068326801AC0FC42B7800930023EE
:102E8000104A11A11648FEF727F8E7E7A400002032
:102E9000C03A0008A83A0008B0000020B4000020A2
:102EA000AC000020A800002050180020523A000872
:102EB000C43A0008CC3A0008A43A00084A3A00088C
:102EC000C83A0008A52F000875432F4F532D4949D4
:102ED000492054696D6572205461736B00000000D5
:102EE000641D002070B5022280F82A20204A0129A2
:102EF000136801D0016A01B9416A1E4A194481610F
:102F000012881D4CB1FBF2F502FB151292B204EBD4
:102F1000C2021468002524B90561456110600120D2
:102F20001EE0C91AC1611168C1B18C69E41ACC6193
:102F3000C669A64207D90C690CB12146F5E7C0E97C
:102F4000045108610AE04B6923B9C0E904154861DE
:102F5000106003E0C0E90413186148619088401CC8
:102F60009080D18880B2814200D2D08070BD0000B4
:102F7000AC000020523A00085018002010B5002084
:102F80000246064B064C04E003EBC001401CCA801D
:102F900080B221888842F7D310BD0000501800206D
:102FA000523A00082DE9FC5FDFF898B0DFF898800E
:102FB000DFF898A0002101AB6A460846FEF7F4F856
:102FC00001A8FDF72DFEFDF71CFA0746D8F8000012
:102FD0004FF00309401CC8F80000BBF800100026A1
:102FE000B0FBF1F301FB1300194980B251F83040F6
:102FF000D4B1A069D8F800102569884214D12046C0
:1030000000F028F8208D022804D101212046FFF786
:1030100069FF01E084F82A90A26812B12046E168B5
:1030200090472C46002EE3D0FDF7EBF9C41B01A816
:10303000FDF71CFEDAF800105046A142BAD2046037
:10304000B8E70000523A0008AC000020A8000020B9
:103050005018002010B5104A816912880F4BB1FB3F
:10306000F2F402FB141189B203EBC1010B680024D6
:103070000269834203D10A602AB1546103E04369C3
:103080001A6102B15361012280F82A20046144616F
:103090008888401E888010BD523A000850180020D1
:1030A000044A0029516901D0014300E08143516184
:1030B0007047000000100240044A0029916901D0C5
:1030C000014300E08143916170470000001002401D
:1030D00070470000214900200A6842F480320A60EB
:1030E0004FF4A0630A68401C12F4003F01D19842DB
:1030F000F8D10868800330D51948026842F0100200
:103100000260026822F003020260026842F00202DA
:1031100002604868486048684860486840F48060D9
:103120004860486820F47C104860486840F4E81023
:103130004860086840F08070086008688001FCD52D
:10314000486820F003004860486840F0020048608A
:103150004868C0F381000228FAD17047001002408D
:10316000002002400B484FF47A710068B0FBF1F088
:10317000B0F1807F0CD220F07F41491E4FF0E0205B
:103180004161054AF021117000218161072101612F
:10319000704700000400002023ED00E010B50F4848
:1031A000016841F00101016041680D4A1140416030
:1031B00001680C4A11400160016821F4802101601E
:1031C000416821F4FE0141604FF41F018160FFF767
:1031D00081FF05494FF00060086010BD00100240FB
:1031E0000000FFF8FFFFF6FE08ED00E02DE9F843D0
:1031F0000125154C4FF4784700264FF4FC684FF436
:10320000007900BFC4F88C51C4F890510FA0FDF7AD
:1032100019F83846FDF72EFA6A460021C820FEF755
:10322000FBF8C4F88C61C4F890614046FDF722FABF
:103230006A460021C820FEF7EFF86A46494607486B
:10324000FDF782FDDEE70000008021425461736BD0
:10325000312052756E696E670D0A0000100500205E
:1032600000B58BB0FFF77EFF00F042F800210AABFB
:103270000322059106A80EC00B460A210C486422C1
:10328000CDE90212CDE9001004930023094A0AA1F6
:10329000C038FDF721FEBDF82830002208A10A48F9
:1032A000FDF714FD0AA90948FDF7F0FE0BB000BDBB
:1032B00080030020ED3100085461736B3100000081
:1032C0007461736B53656D0010050020C000002011
:1032D000FEE7704770470000044900BFB1F80028BE
:1032E0005206FBD5C2B2A1F8042870470030014055
:1032F00038B501210820FFF7DFFE0120FDF77AF93C
:103300001820ADF8000010208DF803000320064CB3
:103310008DF8020069462046FDF71AF9182120466B
:10332000FDF765F938BD0000000C014010B5FDF750
:1033300039F8FDF773F9002010BD000070B50446A0
:10334000080100F006FA05461C48604300F001FA47
:10335000294600F0C7F8044600F0B6F985B22846C1
:1033600000F0F7F9214600F01DFA042100F02BFBD4
:1033700000F0AAF900EB05121148816941F004013F
:103380008161816941F4804181610E490B6823F4B8
:103390007F630B600B6843F40B630B60C16841F4FF
:1033A0008041C160C16821F48041C160064802804B
:1033B000818842F20C021143818070BD40420F00AF
:1033C00000100240040801400838014090EA010F53
:1033D00048BF81F0004100F1F681421A3CBF801ADB
:1033E00089184FEAD0524FF07F4C1CEA410FA2EBF4
:1033F000D15318BF9CEA026F00F040804FF0004CA0
:103400004CEA00204CEA012121FA03FC10EB0C0CE1
:1034100023D202F1FF325FEA1C2040EBC25038BFDA
:1034200070471CF07F0F4FEA400C18BFBCF17F4F74
:1034300038BF7047C3F12003994008BF20F0010056
:10344000BCF17F4F38BF7047A0F1C0404FF0FF0183
:1034500041EAD0514FEAC15070474FEA3C00000AA0
:1034600040EBC25028BF1CF0FF0F4FEA400CE1D0E8
:1034700018BFBCF17F4F38BF7047E5E79CEA026F89
:1034800005D010EA5C0F08BF00F000407047BCEBAD
:10349000410F4FEA400228BF9445DFF828C0C0F032
:1034A0001580AFF30080B2EB410F05D012F1807FA1
:1034B00008BF70470846704790EA010F58BF704731
:1034C00001487047010000040000C07F014800F07F
:1034D00048BA00000000C07F014800F042BA000076
:1034E0000000C07F4FF47F0C1CEAD0121EBF1CEA04
:1034F000D11392EA0C0F93EA0C0F00F0A58090EA2A
:10350000010F48BF42F4807240F4000C41F4000007
:103510002CF07F4120F07F4000B58142A2EB0302F6
:103520000FF2401CACEB504EC0F100009EF800E0E2
:103530004FEA4E0E00FB0EFC38BF49004FEA2C1C30
:1035400002F5FA020CFB0EF34FEACE1E4FEA112CE5
:103550004FEAC1210EEB635E0EFB0CFC4FEA1C53DD
:1035600000FB03114FEA112C4FEA01310EFB0CFC5A
:1035700002F4807E42EB22424FEADC4C00FB0C114D
:10358000C14228BF09184CEB0333012924BF4EF078
:10359000020E4EF0804E10EB410F24BF4EF0010E94
:1035A0004EF0804E08BF4EF0040E4EF008015DF85C
:1035B00004EB43EBC25018BFB2F57C0F38BF704725
:1035C00041EAC07108BF20F00100B2F57C0F38BF9E
:1035D000704729D512F0F00F1CBF00F1C04000F079
:1035E00000407047008182838485868788898B8C20
:1035F0008D8E8F919293959697999A9C9D9FA0A25C
:10360000A3A5A7A8AAACAEB0B2B3B5B7B9BCBEC0AB
:10361000C2C5C7C9CCCED1D4D7D9DCDFE2E6E9EC4C
:10362000F0F3F7FAFE0000004FEA400C0CF1807C4A
:10363000BCF17E4F28BF7047B0F1C0404FF07F40D3
:103640004CBF40104008704790EA010F0CEAD113BC
:1036500048BF42F48072624538BF634507D213F415
:103660007F0F23D080EA010000F0004070474FF048
:10367000807C1CEB400F98BF1CEB410FDFF840C073
:103680003FF624AFAFF300804FF0807C1CEB400F7F
:1036900002BF1CEB410F0B4870471CEB410F0CBFE6
:1036A000002020F0004040EAC250704712F47F0F23
:1036B00004BF0448704742F0FF004FEAC050704713
:1036C000040000040000C07FC2154FEA002318BFA9
:1036D00043F0004305D4D2F19E020AD323FA02F04C
:1036E00070474FEA4001B1F1FE4F02D24FF00000A7
:1036F0007047DFF828C04FEA4001B1F17F4F88BF23
:103700004CF4803C3FF6E8AE1CBF6FEAE0707047B7
:10371000AFF300806FEAE0707047000068000204B9
:1037200010F0004218BF404242F08042B0FA80F1EF
:103730008840A2EBC15202F1786208BF704741068F
:1037400042EB202018BF5FF0806C28BF20F0010002
:1037500070474FF08042FFF7E9BF10B412F47F0FBB
:103760004FEA00204FEA012110D1B0FA80F400FAAC
:1037700004F0A2EB044213F47F0F02F5803218BF6D
:1037800041F0004100D010BC18BF604740F000403D
:10379000B1FA81F401FA04F1A3EB044310BC03F580
:1037A0008033604780F0004090EA010F7FF515AE4E
:1037B00081F0004100F007B890EA010F48BF81F0A6
:1037C00000413FF50AAE421A3EBF82F00042801A25
:1037D00089184FEAD0524FF07F4C1CEA410FA2EB00
:1037E000D15318BF9CEA026F4FD04FF0004C4CEA07
:1037F00000204CEA012121FA03FCB0EB0C0C0FD4A1
:1038000012F0FE0F18BF5FEA4C001DD5001240EB0E
:10381000C25038BF70471CF03F0F18BF70470BE015
:10382000A2F101025FEA1C2040EBC25038BF704792
:103830001CF07F0F18BF7047C3F12003994014BFDD
:10384000401E20F0010070474FEA122316D00042BC
:1038500004BF002070474FEA9000B0FA80FCA2EB52
:103860000C02CCF1280C60FA0CF093EA122F04BF82
:1038700000EBC25070474FEAC37070475FEADC103C
:1038800008BF70474FEAC37070479CEA026F04D0CC
:1038900010EA5C0F08BF00207047BCEB410F4FEAF5
:1038A000400228BF9445DFF82CC0FFF40FAEAFF301
:1038B0000080B2EB410F06D012F1807F08BF704745
:1038C00081F00040704790EA010F48BF70470248FE
:1038D00070470000020000040000C07F00F00043B9
:1038E00043EAD05323F48073C3F1C10323F00041B2
:1038F00017291FD8C3F1200310FA03F1C3F12003E5
:1039000020F07F4040F4000020FA03F003F0004371
:1039100040EA03000DD00B46590009D318BF401CE4
:1039200006D17FEAE27398BF401C38BF20F0010047
:1039300070477047182903EB912318BF6FF00041BF
:10394000013168BF03F0004009D6400203F0004097
:1039500000F1010004BF12F0004F20F00100704799
:1039600070470CF00F03092B08BF082000F05380AC
:103970000A2B0BD0082B18BF704708BF1CF0400F54
:103980000AD04FF000004FF0000170471CF0400FCC
:1039900018BF4FF0004070471CF0100F08D020F007
:1039A000704300F07F4242EAD3014FEA4370704710
:1039B00000F0604021F07F4242EA000201F07F40C7
:1039C00040EA727070474FF0FF0212EAD0521CBFFB
:1039D00092F0FF038B42C2BFD14200EBC15070474F
:1039E000002A0AD0002B0BD0002900F00040A4BF11
:1039F00040F0FE4040F40000704700F00040704787
:103A000043024FF00B0C18BF4CF0806C7FF464AD98
:103A1000AFF3008070471CF4801F11D01CF4E02F1E
:103A200003D06FEACC31490070474FF04050EFF3BC
:103A3000008222F0704242EA000282F3008870475E
:103A40004FF00000704700000B0A0B000A006400F2
:103A50001100110048050020060000004000000091
:103A600000010000480600204001000088070020F7
:103A70000C00000080000000000200008809002007
:103A8000800000000002000040060000880B0020BB
:103A90000A000000C81100200C0000008000000097
:103AA0000002000040000000E8030000C8130020EE
:103AB0000C000000800000000002000088000000F0
:103AC0000A000000501600200C00000080000000DA
:103AD0000002000088000000901300002000000099
:103AE000003B000800000020C00000006C0100083E
:103AF000C03B0008C0000020D0230000880100085F
:103B00000000000000A24A040000000000000000C5
:103B1000010203040607080900000000000000007D
:103B20000000000000000000000000000000000095
:103B30000000000000000000000000000000000085
:103B40000000000000000000000000000000000075
:103B50000000000000000000000000000000000065
:103B60000000000000000000000000000000000055
:103B70000000000000000000000000000000000045
:103B80000000000000000000000000000000000035
:103B90000000000000000000000000000000000025
:103BA0000000000000000000000000000000000015
:103BB0000000000000000000000000000000000005
:0400000508000131BD
:00000001FF
